:100000000C9413010C943E060C946F060C94A006FD
:100010000C94D1060C9402070C9433070C946407DB
:100020000C9495070C9440010C9440010C944001F1
:100030000C9440010C9440010C9440010C9440013C
:100040000C9440010C9440010C9440010C9440012C
:100050000C9440010C9440010C9440010C94C60790
:100060000C9440010C9442010C943E020C9440010B
:100070000C9440010C9440010C9440010C944001FC
:100080000C9440010C9440010C9440010C944001EC
:100090000C9481010C947D020C9440010C9440015D
:1000A0000C9440010C9440010C9440010C944001CC
:1000B0000C9440010C9440010C9440010C944001BC
:1000C0000C9440010C9440010C9440010C94C0012C
:1000D0000C94BC020C9440010C94FF010C94FB02A4
:1000E0000C94400105A84CCDB2D44EB93836A902C3
:1000F0000C50B9918688083CA6AAAA2ABE00000026
:10010000803F00002100240027002A002D0030003D
:10011000330001010000040107010A010000220070
:10012000250028002B002E003100340002010000C1
:10013000050108010B010000200023002600290012
:100140002C002F003200000100000301060109010C
:1001500005050505070508080808020202020A0A43
:100160000808040404040101010101010101030361
:10017000030303030303040707070C0C0C0C0C0C0C
:100180000C0C0202020206060606060606060B0B09
:100190000B0B0B0B0B0B010210202008081020404A
:1001A000102040800201020108040201010204083B
:1001B00010204080804020100804020180040201C9
:1001C0008040201008040201080402010102040812
:1001D0001020408001020408102040800000090A1D
:1001E00002080B0C0D0706030401000000000000CC
:1001F00000000000000000000000000000000000FF
:10020000000000000000000011100F0000000000BE
:1002100000000000000000000000000000000000DE
:100220000000E4031A0511241FBECFEFD1E2DEBFA8
:10023000CDBF00E00CBF12E0A0E0B2E0E4E9FDE1D8
:1002400000E00BBF02C007900D92AE35B107D9F7A1
:100250001BBE15E0AEE5B2E001C01D92A73BB107A1
:10026000E1F712E0C6E2D2E004C02297FE010E944C
:10027000C40EC232D107C9F70E94070C0C94C80EF5
:100280000C9400001F920F920FB60F920BB60F92B4
:1002900011242F933F934F938F939F93EF93FF934B
:1002A0008091C00082FD1DC04091C60020919E0239
:1002B00030919F022F5F3F4F2F7330708091A002CB
:1002C0009091A1022817390771F0E0919E02F091F8
:1002D0009F02E25AFD4F408330939F0220939E027B
:1002E00002C08091C600FF91EF919F918F914F9135
:1002F0003F912F910F900BBE0F900FBE0F901F904C
:1003000018951F920F920FB60F920BB60F921124F1
:100310002F933F934F938F939F93EF93FF938091EE
:10032000C80082FD1DC04091CE002091260330916F
:1003300027032F5F3F4F2F733070809128039091D8
:1003400029032817390771F0E0912603F09127035C
:10035000EA51FD4F4083309327032093260302C0C8
:100360008091CE00FF91EF919F918F914F913F919E
:100370002F910F900BBE0F900FBE0F901F901895EE
:100380001F920F920FB60F920BB60F9211242F935C
:100390003F934F938F939F93EF93FF938091D00060
:1003A00082FD1DC04091D6002091AE033091AF0375
:1003B0002F5F3F4F2F7330708091B0039091B10346
:1003C0002817390771F0E091AE03F091AF03E259BD
:1003D000FC4F40833093AF032093AE0302C0809163
:1003E000D600FF91EF919F918F914F913F912F9167
:1003F0000F900BBE0F900FBE0F901F9018951F927D
:100400000F920FB60F920BB60F9211242F933F93BA
:100410004F938F939F93EF93FF938091300182FDD1
:100420001DC04091360120913604309137042F5F72
:100430003F4F2F7330708091380490913904281702
:10044000390771F0E0913604F0913704EA50FC4F1F
:100450004083309337042093360402C080913601E4
:10046000FF91EF919F918F914F913F912F910F901D
:100470000BBE0F900FBE0F901F9018951F920F92FA
:100480000FB60F920BB60F9211242F933F938F93B9
:100490009F93EF93FF932091E2023091E3028091CA
:1004A000E4029091E5022817390731F48091C100E8
:1004B0008F7D8093C10014C0E091E402F091E502C9
:1004C000EE55FD4F20818091E4029091E502019666
:1004D0008F7390709093E5028093E4022093C6009E
:1004E000FF91EF919F918F913F912F910F900BBEB4
:1004F0000F900FBE0F901F9018951F920F920FB67E
:100500000F920BB60F9211242F933F938F939F93CB
:10051000EF93FF9320916A0330916B0380916C03FA
:1005200090916D032817390731F48091C9008F7DB0
:100530008093C90014C0E0916C03F0916D03E65DF7
:10054000FC4F208180916C0390916D0301968F7315
:10055000907090936D0380936C032093CE00FF9175
:10056000EF919F918F913F912F910F900BBE0F9024
:100570000FBE0F901F9018951F920F920FB60F92FB
:100580000BB60F9211242F933F938F939F93EF936A
:10059000FF932091F2033091F3038091F403909143
:1005A000F5032817390731F48091D1008F7D8093AE
:1005B000D10014C0E091F403F091F503EE54FC4F28
:1005C00020818091F4039091F50301968F739070D0
:1005D0009093F5038093F4032093D600FF91EF915D
:1005E0009F918F913F912F910F900BBE0F900FBE57
:1005F0000F901F9018951F920F920FB60F920BB687
:100600000F9211242F933F938F939F93EF93FF9318
:1006100020917A0430917B0480917C0490917D0438
:100620002817390731F4809131018F7D8093310192
:1006300014C0E0917C04F0917D04E65CFB4F2081C6
:1006400080917C0490917D0401968F7390709093BB
:100650007D0480937C0420933601FF91EF919F915C
:100660008F913F912F910F900BBE0F900FBE0F9067
:100670001F901895DC011C96ED91FC911D97E05C94
:10068000FF4F2191319180819181281B390B2F736C
:100690003070C9010895DC011C96ED91FC911D9705
:1006A000E05CFF4F20813181E054F040DF01AE5B20
:1006B000BF4F8D919C9111972817390719F42FEF8F
:1006C0003FEF07C08D919C91E80FF91F8081282F83
:1006D00030E0C9010895DC011C96ED91FC911D9755
:1006E000E05CFF4F20813181E054F040DF01AE5BE0
:1006F000BF4F8D919C9111972817390719F42FEF4F
:100700003FEF10C08D919C911197E80FF91F208148
:100710008D919C91119701968F73907011969C9377
:100720008E9330E0C9010895DC0191968C919197E8
:10073000882339F05496ED91FC915597808186FF7E
:10074000F9CF91961C920895CF93DF93EC01EE853B
:10075000FF85E05CFF4F20813181E054F0402F5F46
:100760003F4F2F733070DF01AE5BBF4F8D919C9177
:10077000119728173907D1F3E05CFF4F80819181F1
:10078000E054F040E80FF91F6083EE85FF85E05CE0
:10079000FF4F31832083EE89FF89208181E090E043
:1007A0000F8C02C0880F991F0A94E2F7282B208330
:1007B00081E089A3EC89FD8980818064808381E068
:1007C00090E0DF91CF9108951F93109281041092D1
:1007D000800428EE33E040E050E020938204309320
:1007E000830440938404509385046AE472E0709318
:1007F0007F0460937E048EE592E090938B04809357
:100800008A0482EA92E090938D0480938C0485ECB4
:1008100090E090938F0480938E0484EC90E090930A
:1008200091048093900480EC90E0909393048093E3
:10083000920481EC90E0909395048093940482EC70
:1008400090E0909397048093960486EC90E09093C8
:1008500099048093980414E010939A04B3E0B09341
:100860009B04A7E0A0939C04F5E0F0939D04E1E0D5
:10087000E0939E041092A3041092A2042093A40477
:100880003093A5044093A6045093A7047093A10449
:100890006093A00486EE92E09093AD048093AC0444
:1008A0008AE293E09093AF048093AE048DEC90E0E5
:1008B0009093B1048093B0048CEC90E09093B304D7
:1008C0008093B20488EC90E09093B5048093B404D4
:1008D00089EC90E09093B7048093B6048AEC90E0A2
:1008E0009093B9048093B8048EEC90E09093BB048D
:1008F0008093BA041093BC04B093BD04A093BE04CB
:10090000F093BF04E093C0041092C5041092C40495
:100910002093C6043093C7044093C8045093C9047D
:100920007093C3046093C2048EE693E09093CF0467
:100930008093CE0482EB93E09093D1048093D00413
:1009400085ED90E09093D3048093D20484ED90E001
:100950009093D5048093D40480ED90E09093D704D5
:100960008093D60481ED90E09093D9048093D804CD
:1009700082ED90E09093DB048093DA0486ED90E0C2
:100980009093DD048093DC041093DE04B093DF04C5
:10099000A093E004F093E104E093E2041092E704F2
:1009A0001092E6042093E8043093E9044093EA04AB
:1009B0005093EB047093E5046093E40486EF93E0B6
:1009C0009093F1048093F0048AE394E09093F3040D
:1009D0008093F20485E391E09093F5048093F4040E
:1009E00084E391E09093F7048093F60480E391E030
:1009F0009093F9048093F80481E391E09093FB04D1
:100A00008093FA0482E391E09093FD048093FC04C8
:100A100086E391E09093FF048093FE041093000519
:100A2000B0930105A0930205F0930305E09304053C
:100A30001F9108958AE592E090930705809306053B
:100A4000109208051092090510920A0510920B05E4
:100A500008958F929F92AF92BF92CF92DF92EF92C2
:100A6000FF920F931F93CF93DF934C016B017C0197
:100A7000AA24BB24C0E0D0E0C601F70162814AE0AD
:100A800050E00E942C068C01C6016EE20E94950582
:100A9000080F191FA00EB11E21960894E11CF11C2D
:100AA000C330D10549F7C601F40165814AE050E041
:100AB0000E942C069501280F391FC901DF91CF91A3
:100AC0001F910F91FF90EF90DF90CF90BF90AF906C
:100AD0009F908F900895CF92DF92EF92FF920F93A5
:100AE0001F93CF93DF937C016B018A01C0E0D0E0BC
:100AF0000FC0D6016D916D01D701ED91FC91019070
:100B0000F081E02DC7011995C80FD91F0150104081
:100B10000115110571F7CE01DF91CF911F910F9152
:100B2000FF90EF90DF90CF900895DC01ED91FC9164
:100B30000190F081E02D19950895CF93DF93EC019A
:100B40006115710519F420E030E00FC0DB010D9054
:100B50000020E9F71197A61BB70BE881F981028005
:100B6000F381E02DAD0119959C01C901DF91CF9171
:100B700008954F925F927F928F929F92AF92BF9211
:100B8000CF92DF92EF92FF920F931F93DF93CF9359
:100B9000CDB7DEB7A1970FB6F894DEBF0FBECDBFBD
:100BA0002C01742ECB01223008F42AE019A231E284
:100BB000C32ED12CCC0EDD1E822E9924AA24BB2458
:100BC000672D752FA50194010E94A00E79018A015D
:100BD000C801B701A50194010E94810E472D461B53
:100BE0000894C108D1084A3014F4405D01C0495C42
:100BF000F6014083E114F1040105110521F07E2C7A
:100C00005F2DC801DDCFC201B6010E949D05A196EE
:100C10000FB6F894DEBF0FBECDBFCF91DF911F910D
:100C20000F91FF90EF90DF90CF90BF90AF909F908B
:100C30008F907F905F904F900895DC0121153105D2
:100C400041F4ED91FC910190F081E02D642F199514
:100C500008950E94B9050895EF92FF920F931F9394
:100C60009A01E62EFF2400E010E0B801A7010E94DF
:100C70001D061F910F91FF90EF9008951F920F9204
:100C80000FB60F920BB60F9211242F933F934F93F1
:100C90005F936F937F938F939F93AF93BF93EF93E4
:100CA000FF938091100590911105892B29F0E09117
:100CB0001005F09111051995FF91EF91BF91AF913A
:100CC0009F918F917F916F915F914F913F912F9164
:100CD0000F900BBE0F900FBE0F901F9018951F9294
:100CE0000F920FB60F920BB60F9211242F933F93D2
:100CF0004F935F936F937F938F939F93AF93BF9324
:100D0000EF93FF938091120590911305892B29F0A1
:100D1000E0911205F09113051995FF91EF91BF91A4
:100D2000AF919F918F917F916F915F914F913F9183
:100D30002F910F900BBE0F900FBE0F901F90189524
:100D40001F920F920FB60F920BB60F9211242F9392
:100D50003F934F935F936F937F938F939F93AF9343
:100D6000BF93EF93FF938091140590911505892B04
:100D700029F0E0911405F09115051995FF91EF9177
:100D8000BF91AF919F918F917F916F915F914F91A3
:100D90003F912F910F900BBE0F900FBE0F901F90A1
:100DA00018951F920F920FB60F920BB60F92112447
:100DB0002F933F934F935F936F937F938F939F9363
:100DC000AF93BF93EF93FF93809116059091170512
:100DD000892B29F0E0911605F09117051995FF91DF
:100DE000EF91BF91AF919F918F917F916F915F91A3
:100DF0004F913F912F910F900BBE0F900FBE0F9010
:100E00001F9018951F920F920FB60F920BB60F926C
:100E100011242F933F934F935F936F937F938F93FF
:100E20009F93AF93BF93EF93FF9380910C059091A5
:100E30000D05892B29F0E0910C05F0910D05199510
:100E4000FF91EF91BF91AF919F918F917F916F91A2
:100E50005F914F913F912F910F900BBE0F900FBE5E
:100E60000F901F9018951F920F920FB60F920BB60E
:100E70000F9211242F933F934F935F936F937F9320
:100E80008F939F93AF93BF93EF93FF9380910E0542
:100E900090910F05892B29F0E0910E05F0910F0537
:100EA0001995FF91EF91BF91AF919F918F917F9194
:100EB0006F915F914F913F912F910F900BBE0F90CB
:100EC0000FBE0F901F9018951F920F920FB60F92A2
:100ED0000BB60F9211242F933F934F935F936F9311
:100EE0007F938F939F93AF93BF93EF93FF938091E3
:100EF000180590911905892B29F0E0911805F091BA
:100F000019051995FF91EF91BF91AF919F918F9125
:100F10007F916F915F914F913F912F910F900BBEF9
:100F20000F900FBE0F901F9018951F920F920FB643
:100F30000F920BB60F9211242F933F934F935F9311
:100F40006F937F938F939F93AF93BF93EF93FF9391
:100F500080911A0590911B05892B29F0E0911A05C3
:100F6000F0911B051995FF91EF91BF91AF919F9162
:100F70008F917F916F915F914F913F912F910F9042
:100F80000BBE0F900FBE0F901F9018951F920F92DF
:100F90000FB60F9211242F933F938F939F93AF938C
:100FA000BF938091200590912105A0912205B091D9
:100FB0002305309124050196A11DB11D232F2D5F1E
:100FC0002D3720F02D570196A11DB11D209324052A
:100FD0008093200590932105A0932205B0932305CB
:100FE00080911C0590911D05A0911E05B0911F05D3
:100FF0000196A11DB11D80931C0590931D05A09322
:101000001E05B0931F05BF91AF919F918F913F91A6
:101010002F910F900FBE0F901F9018959FB7F894C7
:1010200020911C0530911D0540911E0550911F0512
:1010300086B5A89B06C08F3F21F02F5F3F4F4F4FD3
:101040005F4F9FBF542F432F322F2227280F311D70
:10105000411D511D82E0220F331F441F551F8A95E9
:10106000D1F7B901CA010895789484B5826084BD2E
:1010700084B5816084BD85B5826085BD85B581609C
:1010800085BDEEE6F0E0808181608083E1E8F0E0FC
:101090001082808182608083808181608083E0E82B
:1010A000F0E0808181608083E1EBF0E0808184600A
:1010B0008083E0EBF0E0808181608083E1E9F0E013
:1010C000808182608083808181608083E0E9F0E0BC
:1010D000808181608083E1EAF0E0808182608083AA
:1010E000808181608083E0EAF0E08081816080839C
:1010F000E1E2F1E080818260808380818160808391
:10110000E0E2F1E0808181608083EAE7F0E08081C5
:10111000846080838081826080838081816080831D
:101120008081806880831092C10008951F93CF93BF
:10113000DF93182FEB0161E00E947609209709F4F4
:10114000CAC0CF3FD10509F4C9C0E12FF0E0E45295
:10115000FE4F8491893009F466C08A30B0F484303F
:10116000F1F1853040F4823059F1833070F58130EF
:1011700009F0AEC020C0873009F443C0883008F0C1
:1011800048C0863009F0A4C034C08D3009F478C05E
:101190008E3038F48B3009F45AC08C3008F066C0B9
:1011A0004CC0803109F480C0813109F487C08F3090
:1011B00009F08EC06FC084B5806884BDC7BD92C081
:1011C00084B5806284BDC8BD8DC080918000806878
:1011D00080938000D0938900C093880083C0809161
:1011E0008000806280938000D0938B00C0938A003F
:1011F00079C08091B00080688093B000C093B30044
:1012000071C08091B00080628093B000C093B40040
:1012100069C080919000806880939000D09399007D
:10122000C09398005FC0809190008062809390008E
:10123000D0939B00C0939A0055C080919000886025
:1012400080939000D0939D00C0939C004BC08091F0
:10125000A00080688093A0008091A0008F7B809385
:10126000A000D093A900C093A8003CC08091A0002A
:1012700080628093A000D093AB00C093AA0032C0DC
:101280008091A00088608093A000D093AD00C093AF
:10129000AC0028C080912001806880932001D09309
:1012A0002901C09328011EC0809120018062809393
:1012B0002001D0932B01C0932A0114C080912001FA
:1012C000886080932001D0932D01C0932C010AC027
:1012D000C038D1051CF4812F60E002C0812F61E08D
:1012E0000E94290ADF91CF911F910895CF93DF9338
:1012F000482F50E0CA018A569E4FFC013491405B52
:101300005E4FFA018491882369F190E0880F991F5C
:10131000FC01EE5FFE4FA591B491FC01E45EFE4F2F
:10132000C591D491662351F42FB7F8948C91932FE3
:10133000909589238C93888189230BC0623061F456
:101340002FB7F8948C91932F909589238C93888153
:10135000832B88832FBF06C09FB7F8948C91832B73
:101360008C939FBFDF91CF910895893009F449C0D4
:101370008A30A0F4843051F1853040F4823079F124
:10138000833000F5813009F063C026C0873079F1E1
:10139000883098F5863009F05BC025C08D3009F49F
:1013A00042C08E3028F48B30B1F18C30C0F52DC0A6
:1013B000803109F442C0813109F445C08F3009F011
:1013C00047C037C0809180008F7703C08091800034
:1013D0008F7D80938000089584B58F7702C084B597
:1013E0008F7D84BD08958091B0008F7703C0809178
:1013F000B0008F7D8093B0000895809190008F772A
:1014000007C0809190008F7D03C080919000877FFE
:101410008093900008958091A0008F7707C08091FD
:10142000A0008F7D03C08091A000877F8093A000E3
:101430000895809120018F7703C0809120018F7DD6
:1014400080932001089580912001877F809320015F
:101450000895FF920F931F93F62E482F50E0CA0174
:1014600084529E4FFC012491CA018A569E4FFC0172
:101470001491405B5E4FFA0104910023C9F02223CE
:1014800019F0822F0E94B509E02FF0E0EE0FFF1F48
:10149000E45EFE4FA591B4919FB7F894FF2021F42C
:1014A0008C911095812302C08C91812B8C939FBFCE
:1014B0001F910F91FF900895EF92FF920F931F934A
:1014C0000DEA15E0E090AD05F090AE05F8013E970D
:1014D00060817181828193816F5F7F4F8F4F9F4FBA
:1014E00060837183828393830E94DA0C2091A30529
:1014F0003091A4054091A5055091A6050E94900D3C
:10150000F701608371838283938306501040F80152
:1015100080819181A281B3810196A11DB11D80833B
:101520009183A283B3831F910F91FF90EF90089551
:101530000895E8E2F5E08FE8DF011D928A95E9F76A
:101540008BEA95E090932D0580932C058DEA95E02C
:1015500097AF86AF83EA95E090933B0580933A0579
:10156000F0938B05E0938A05F0932B05E0932A0511
:1015700081E090E09093AC058093AB0580E092E031
:1015800090933105809330058FEA95E09093AE05F6
:101590008093AD058DEC9CECACE4BEE38093A30599
:1015A0009093A405A093A505B093A60583E0E5E27A
:1015B000F5E0DF011D928A95E9F78091120261E062
:1015C0000E9476098091160261E00E94760980915E
:1015D0001A0261E00E94760908952F923F924F927D
:1015E0005F926F927F928F929F92AF92BF92CF92B3
:1015F000DF92EF92FF920F931F93E091AD05F09170
:10160000AE05609126027091270280912802909188
:10161000290220813181428153810E94900D2091C5
:101620002A0230912B0240912C0250912D020E94EF
:10163000460C0E94F30D20911E0230911F02409132
:101640002002509121020E94900D2091220230919F
:10165000230240912402509125020E94460C1B0156
:101660002C0120912E0230912F0240913002509196
:1016700031020E94900D3B014C0120913A023091C1
:101680003B0240913C0250913D020E948C0D882308
:101690004CF0A0903202B0903302C0903402D0904F
:1016A000350208C0A0903602B0903702C0903802D0
:1016B000D0903902C401B301A60195010E94900D9A
:1016C0007B018C0120E030E040E853E40E94AA0C4A
:1016D0008823A4F4C801B70120E030E040E050E0E6
:1016E0000E948C0D88233CF0C801B7010E94AE0C0B
:1016F0006093250506C01092250503C08FEF8093E7
:101700002505609125058091120270E00E949608DF
:10171000C201B10120913E0230913F02409140024E
:10172000509141020E94900D7B018C0120E030E03D
:1017300040E853E40E94AA0C8823A4F4C801B7012E
:1017400020E030E040E050E00E948C0D88233CF027
:10175000C801B7010E94AE0C6093260506C0109226
:10176000260503C08FEF80932605609126058091A2
:10177000160270E00E949608C601B501209142024F
:101780003091430240914402509145020E94450C21
:101790009B01AC01C401B3010E94900D7B018C013F
:1017A00020E030E040E853E40E94AA0C8823A4F42F
:1017B000C801B70120E030E040E050E00E948C0D0D
:1017C00088233CF0C801B7010E94AE0C6093270546
:1017D00006C01092270503C08FEF80932705609104
:1017E000270580911A0270E00E9496081F910F91C0
:1017F000FF90EF90DF90CF90BF90AF909F908F9031
:101800007F906F905F904F903F902F900895AF9290
:10181000BF92CF92DF92EF92FF920F931F93CF93DD
:10182000DF930E9434080E94990AC0915C02D09113
:101830005D02AA24BB24650115C00E940E087B012D
:101840008C01DC01CB018A199B09AC09BD098054CC
:101850009D40A340B04030F00E94ED0A0E945C0A17
:101860005701680188819981892B39F30E94980A70
:1018700080E090E0DF91CF911F910F91FF90EF906A
:10188000DF90CF90BF90AF9008955058BB27AA2704
:101890000ED008C1F9D030F0FED020F031F49F3FD7
:1018A00011F41EF4EEC00EF4E095E7FBE4C0E92F5E
:1018B0000AD180F3BA17620773078407950718F0F7
:1018C00071F49EF522C10EF4E0950B2EBA2FA02DD7
:1018D0000B01B90190010C01CA01A0011124FF27DD
:1018E000591B99F0593F50F4503E68F11A16F040D8
:1018F000A22F232F342F4427585FF3CF46953795D7
:101900002795A795F0405395C9F77EF41F16BA0B9B
:10191000620B730B840BBAF09150A1F0FF0FBB1F49
:10192000661F771F881FC2F70EC0BA0F621F731F92
:10193000841F48F4879577956795B795F7959E3FEF
:1019400008F0B3CF9395880F08F09927EE0F97957D
:10195000879508956CD008F481E00895BCD088F094
:101960009F5790F0B92F9927B751A0F0D1F0660F8B
:10197000771F881F991F1AF0BA95C9F712C0B130A6
:1019800081F0C3D0B1E00895C0C0672F782F8827B9
:10199000B85F39F0B93FCCF3869577956795B395E5
:1019A000D9F73EF490958095709561957F4F8F4F54
:1019B0009F4F0895E89409C097FB3EF49095809559
:1019C000709561957F4F8F4F9F4F9923A9F0F92F05
:1019D00096E9BB279395F695879577956795B79583
:1019E000F111F8CFFAF4BB0F11F460FF1BC06F5F69
:1019F0007F4F8F4F9F4F16C0882311F096E911C07B
:101A0000772321F09EE8872F762F05C0662371F09B
:101A100096E8862F70E060E02AF09A95660F771FAF
:101A2000881FDAF7880F9695879597F90895990F8B
:101A30000008550FAA0BE0E8FEEF16161706E80798
:101A4000F907C0F012161306E407F50798F0621BB9
:101A5000730B840B950B39F40A2661F0232B242B8E
:101A6000252B21F408950A2609F4A140A6958FEFAD
:101A7000811D811D089597F99F6780E870E060E0FF
:101A800008959FEF80EC089500240A941616170617
:101A900018060906089500240A941216130614065F
:101AA00005060895092E0394000C11F4882352F0C2
:101AB000BB0F40F4BF2B11F460FF04C06F5F7F4F7A
:101AC0008F4F9F4F089557FD9058440F551F59F061
:101AD0005F3F71F04795880F97FB991F61F09F3F1B
:101AE00079F087950895121613061406551FF2CF44
:101AF0004695F1DF08C0161617061806991FF1CF94
:101B000086957105610508940895E894BB276627BA
:101B10007727CB0197F908958ADF08F48FEF0895AE
:101B20000BD0C0CFB1DF28F0B6DF18F0952309F055
:101B3000A2CFA7CF1124EACFC6DFA0F3959FD1F3A0
:101B4000950F50E0551F629FF001729FBB27F00D6B
:101B5000B11D639FAA27F00DB11DAA1F649F6627C0
:101B6000B00DA11D661F829F2227B00DA11D621F0F
:101B7000739FB00DA11D621F839FA00D611D221FC9
:101B8000749F3327A00D611D231F849F600D211DAD
:101B9000822F762F6A2F11249F5750408AF0E1F050
:101BA00088234AF0EE0FFF1FBB1F661F771F881F99
:101BB00091505040A9F79E3F510570F05CCFA6CFE1
:101BC0005F3FECF3983EDCF3869577956795B79584
:101BD000F795E7959F5FC1F7FE2B880F911D9695AE
:101BE000879597F908959F9305D00F9007FCEE5FB6
:101BF00031C047CF70DFE8F3E894EFEFBB273FE059
:101C000048EC5FE76B3D73078407950708F1FF27F2
:101C10009F57B25A6A4D7F40894CF04032F4BE550E
:101C20006542704F8643FF4F0894EE1F915030F08D
:101C3000BB0F661F771F881FFF1FEBCF9EE7882310
:101C400032F0BB0F661F771F881F9A95C1F79395D7
:101C5000E09511C0EF93E0FF06C0A2EA2AED3FE055
:101C600049EC5FEB24DE1EDF0F90039401FC9058DB
:101C7000E4EEF0E010C09F3F49F0915028F48695C3
:101C800077956795B7959F5F80389F4F880F96959A
:101C9000879597F908959F938F937F936F93FF9301
:101CA000EF939B01AC013CDFEF91FF9105D02F91A9
:101CB0003F914F915F9134CFDF93CF931F930F9359
:101CC000FF92EF92DF927B018C01689405C0DA2EBF
:101CD000EF0132DFFE01E894A59125913591459100
:101CE0005591AEF3EF01E3DDFE019701A801DA940F
:101CF00079F7DF90EF90FF900F911F91CF91DF91D7
:101D00000895629FD001739FF001829FE00DF11D45
:101D1000649FE00DF11D929FF00D839FF00D749F65
:101D2000F00D659FF00D9927729FB00DE11DF91F11
:101D3000639FB00DE11DF91FBD01CF01112408956E
:101D4000A1E21A2EAA1BBB1BFD010DC0AA1FBB1FBF
:101D5000EE1FFF1FA217B307E407F50720F0A21B31
:101D6000B30BE40BF50B661F771F881F991F1A949E
:101D700069F760957095809590959B01AC01BD01C8
:101D8000CF010895EE0FFF1F0590F491E02D1994F7
:041D9000F894FFCFF5
:101D940046697865645374657044697363726574E5
:101DA40065000500000009000000070000000000B5
:101DB400803F000000000000E04000000000000040
:101DC4007F430000803F000000000000000000008E
:101DD4007F430000803F00000000A4036B053A032A
:0E1DE4006B034B039403000000002905280543
:00000001FF
