:100000000C9404010C94B6060C94E7060C941807A3
:100010000C9449070C947A070C94AB070C94DC07FA
:100020000C940D080C9431010C9431010C943101A5
:100030000C9431010C9431010C9431010C94310178
:100040000C9431010C9431010C9431010C94310168
:100050000C9431010C9431010C9431010C943E0844
:100060000C9431010C9433010C942F020C94310147
:100070000C9431010C9431010C9431010C94310138
:100080000C9431010C9431010C9431010C94310128
:100090000C9472010C946E020C9431010C94310199
:1000A0000C9431010C9431010C9431010C94310108
:1000B0000C9431010C9431010C9431010C943101F8
:1000C0000C9431010C9431010C9431010C94B10168
:1000D0000C94AD020C9431010C94F0010C94EC02E0
:1000E0000C94310100002100240027002A002D007B
:1000F0003000330001010000040107010A01000083
:100100002200250028002B002E00310034000201BF
:100110000000050108010B0100002000230026005B
:1001200029002C002F00320000010000030106010D
:10013000090105050505070508080808020202026D
:100140000A0A080804040404010101010101010173
:100150000303030303030303040707070C0C0C0C3E
:100160000C0C0C0C02020202060606060606060627
:100170000B0B0B0B0B0B0B0B0102102020080810B4
:100180002040102040800201020108040201010207
:1001900004081020408080402010080402018004E0
:1001A000020180402010080402010804020101023B
:1001B0000408102040800102040810204080000044
:1001C000090A02080B0C0D070603040100000000D9
:1001D000000000000000000000000000000000001F
:1001E0000000000000000000000011100F000000DF
:1001F00000000000000000000000000000000000FF
:10020000000000005C04920511241FBECFEFD1E274
:10021000DEBFCDBF00E00CBF12E0A0E0B2E0ECED2D
:10022000FCE100E00BBF02C007900D92A833B107BC
:10023000D9F71BBE15E0A8E3B2E001C01D92A930BA
:10024000B107E1F712E0C8E0D2E004C02297FE0156
:100250000E94680EC430D107C9F70E94210D0C948A
:100260006C0E0C9400001F920F920FB60F920BB6FB
:100270000F9211242F933F934F938F939F93EF935C
:10028000FF938091C00082FD1DC04091C600209167
:100290007802309179022F5F3F4F2F733070809139
:1002A0007A0290917B022817390771F0E091780269
:1002B000F0917902E85CFD4F4083309379022093FE
:1002C000780202C08091C600FF91EF919F918F91BB
:1002D0004F913F912F910F900BBE0F900FBE0F903B
:1002E0001F9018951F920F920FB60F920BB60F9298
:1002F00011242F933F934F938F939F93EF93FF93EB
:100300008091C80082FD1DC04091CE002091000365
:10031000309101032F5F3F4F2F73307080910203A4
:10032000909103032817390771F0E0910003F091D1
:100330000103E054FD4F40833093010320930003F9
:1003400002C08091CE00FF91EF919F918F914F91CC
:100350003F912F910F900BBE0F900FBE0F901F90EB
:1003600018951F920F920FB60F920BB60F92112491
:100370002F933F934F938F939F93EF93FF9380918E
:10038000D00082FD1DC04091D6002091880330919D
:1003900089032F5F3F4F2F73307080918A039091B4
:1003A0008B032817390771F0E0918803F0918903D6
:1003B000E85BFC4F4083309389032093880302C09D
:1003C0008091D600FF91EF919F918F914F913F9136
:1003D0002F910F900BBE0F900FBE0F901F9018958E
:1003E0001F920F920FB60F920BB60F9211242F93FC
:1003F0003F934F938F939F93EF93FF93809130019F
:1004000082FD1DC0409136012091100430911104ED
:100410002F5F3F4F2F73307080911204909113041F
:100420002817390771F0E0911004F0911104E0539E
:10043000FC4F4083309311042093100402C080913C
:100440003601FF91EF919F918F914F913F912F91A5
:100450000F900BBE0F900FBE0F901F9018951F921C
:100460000F920FB60F920BB60F9211242F933F935A
:100470008F939F93EF93FF932091BC023091BD0225
:100480008091BE029091BF022817390731F4809104
:10049000C1008F7D8093C10014C0E091BE02F09135
:1004A000BF02E458FD4F20818091BE029091BF02AF
:1004B00001968F7390709093BF028093BE02209339
:1004C000C600FF91EF919F918F913F912F910F90D7
:1004D0000BBE0F900FBE0F901F9018951F920F929A
:1004E0000FB60F920BB60F9211242F933F938F9359
:1004F0009F93EF93FF9320914403309145038091A4
:100500004603909147032817390731F48091C900B9
:100510008F7D8093C90014C0E0914603F09147039A
:10052000EC5FFC4F20818091460390914703019638
:100530008F73907090934703809346032093CE006F
:10054000FF91EF919F918F913F912F910F900BBE53
:100550000F900FBE0F901F9018951F920F920FB61D
:100560000F920BB60F9211242F933F938F939F936B
:10057000EF93FF932091CC033091CD038091CE0374
:100580009091CF032817390731F48091D1008F7DE6
:100590008093D10014C0E091CE03F091CF03E457D3
:1005A000FC4F20818091CE039091CF0301968F73F1
:1005B00090709093CF038093CE032093D600FF9149
:1005C000EF919F918F913F912F910F900BBE0F90C4
:1005D0000FBE0F901F9018951F920F920FB60F929B
:1005E0000BB60F9211242F933F938F939F93EF930A
:1005F000FF932091540430915504809156049091BA
:1006000057042817390731F4809131018F7D809389
:10061000310114C0E0915604F0915704EC5EFB4F99
:100620002081809156049091570401968F739070A9
:10063000909357048093560420933601FF91EF91D5
:100640009F918F913F912F910F900BBE0F900FBEF6
:100650000F901F901895AF92BF92DF92EF92FF928A
:100660000F931F93CF93DF93EC017A018B01DD246D
:10067000403081EE580780E0680780E0780711F08D
:10068000DD24D39491E0A92EB12CEC89FD89DD20E5
:1006900069F0C50108A002C0880F991F0A94E2F70B
:1006A000808360E079E08DE390E005C0108260E82F
:1006B00074E88EE190E0A80197010E94440E215059
:1006C000304040405040569547953795279580E1FA
:1006D0002030380720F0DD2011F0DD24D6CFE88966
:1006E000F9893083EA89FB89208319A2EE89FF8981
:1006F000408121E030E0C9010C8C02C0880F991FB5
:100700000A94E2F7482B4083EE89FF894081C901B2
:100710000D8C02C0880F991F0A94E2F7482B408382
:10072000EE89FF894081C9010E8C02C0880F991F94
:100730000A94E2F7482B4083EE89FF8980810F8C71
:1007400002C0220F331F0A94E2F72095282320834A
:10075000DF91CF911F910F91FF90EF90DF90BF90AD
:10076000AF900895DC011C96ED91FC911D97E05C23
:10077000FF4F2191319180819181281B390B2F737B
:100780003070C9010895DC011C96ED91FC911D9714
:10079000E05CFF4F20813181E054F040DF01AE5B2F
:1007A000BF4F8D919C9111972817390719F42FEF9E
:1007B0003FEF07C08D919C91E80FF91F8081282F92
:1007C00030E0C9010895DC011C96ED91FC911D9764
:1007D000E05CFF4F20813181E054F040DF01AE5BEF
:1007E000BF4F8D919C9111972817390719F42FEF5E
:1007F0003FEF10C08D919C911197E80FF91F208158
:100800008D919C91119701968F73907011969C9386
:100810008E9330E0C9010895DC0191968C919197F7
:10082000882339F05496ED91FC915597808186FF8D
:10083000F9CF91961C920895CF93DF93EC01EE854A
:10084000FF85E05CFF4F20813181E054F0402F5F55
:100850003F4F2F733070DF01AE5BBF4F8D919C9186
:10086000119728173907D1F3E05CFF4F8081918100
:10087000E054F040E80FF91F6083EE85FF85E05CEF
:10088000FF4F31832083EE89FF89208181E090E052
:100890000F8C02C0880F991F0A94E2F7282B20833F
:1008A00081E089A3EC89FD8980818064808381E077
:1008B00090E0DF91CF9108951F9310925B04109206
:1008C0005A0428EE33E040E050E020935C0430937B
:1008D0005D0440935E0450935F0463E272E07093A2
:1008E00059046093580488E392E0909365048093E0
:1008F00064048CE792E0909367048093660485EC2F
:1009000090E0909369048093680484EC90E0909365
:100910006B0480936A0480EC90E090936D04809364
:100920006C0481EC90E090936F0480936E0482ECF1
:1009300090E0909371048093700486EC90E0909323
:1009400073048093720414E010937404B3E0B093C2
:100950007504A7E0A0937604F5E0F0937704E1E056
:10096000E093780410927D0410927C0420937E041E
:1009700030937F04409380045093810470937B04F0
:1009800060937A0480EC92E09093870480938604CD
:1009900084E093E090938904809388048DEC90E048
:1009A00090938B0480938A048CEC90E090938D0458
:1009B00080938C0488EC90E090938F0480938E0455
:1009C00089EC90E090939104809390048AEC90E0FD
:1009D00090939304809392048EEC90E0909395040E
:1009E0008093940410939604B0939704A093980472
:1009F000F0939904E0939A0410929F0410929E043D
:100A00002093A0043093A1044093A2045093A30424
:100A100070939D0460939C0488E493E09093A904F0
:100A20008093A8048CE893E09093AB048093AA048D
:100A300085ED90E09093AD048093AC0484ED90E05C
:100A40009093AF048093AE0480ED90E09093B10456
:100A50008093B00481ED90E09093B3048093B2044E
:100A600082ED90E09093B5048093B40486ED90E01D
:100A70009093B7048093B6041093B804B093B9046C
:100A8000A093BA04F093BB04E093BC041092C10499
:100A90001092C0042093C2043093C3044093C40452
:100AA0005093C5047093BF046093BE0480ED93E03F
:100AB0009093CB048093CA0484E194E09093CD0496
:100AC0008093CC0485E391E09093CF048093CE048F
:100AD00084E391E09093D1048093D00480E391E08B
:100AE0009093D3048093D20481E391E09093D50452
:100AF0008093D40482E391E09093D7048093D6044A
:100B000086E391E09093D9048093D8041093DA049B
:100B1000B093DB04A093DC04F093DD04E093DE04E7
:100B20001F91089583E392E09093E1048093E004A1
:100B30001092E2041092E3041092E4041092E5048F
:100B400008958F929F92AF92BF92CF92DF92EF92D1
:100B5000FF920F931F93CF93DF934C016B017C01A6
:100B6000AA24BB24C0E0D0E0C601F70162814AE0BC
:100B700050E00E94A4068C01C6016EE20E940D06A0
:100B8000080F191FA00EB11E21960894E11CF11C3C
:100B9000C330D10549F7C601F40165814AE050E050
:100BA0000E94A4069501280F391FC901DF91CF913A
:100BB0001F910F91FF90EF90DF90CF90BF90AF907B
:100BC0009F908F900895CF92DF92EF92FF920F93B4
:100BD0001F93CF93DF937C016B018A01C0E0D0E0CB
:100BE0000FC0D6016D916D01D701ED91FC9101907F
:100BF000F081E02DC7011995C80FD91F0150104091
:100C00000115110571F7CE01DF91CF911F910F9161
:100C1000FF90EF90DF90CF900895DC01ED91FC9173
:100C20000190F081E02D19950895CF93DF93EC01A9
:100C30006115710519F420E030E00FC0DB010D9063
:100C40000020E9F71197A61BB70BE881F981028014
:100C5000F381E02DAD0119959C01C901DF91CF9180
:100C600008954F925F927F928F929F92AF92BF9220
:100C7000CF92DF92EF92FF920F931F93DF93CF9368
:100C8000CDB7DEB7A1970FB6F894DEBF0FBECDBFCC
:100C90002C01742ECB01223008F42AE019A231E293
:100CA000C32ED12CCC0EDD1E822E9924AA24BB2467
:100CB000672D752FA50194010E94440E79018A01C8
:100CC000C801B701A50194010E94250E472D461BBE
:100CD0000894C108D1084A3014F4405D01C0495C51
:100CE000F6014083E114F1040105110521F07E2C89
:100CF0005F2DC801DDCFC201B6010E941506A19685
:100D00000FB6F894DEBF0FBECDBFCF91DF911F911C
:100D10000F91FF90EF90DF90CF90BF90AF909F909A
:100D20008F907F905F904F900895DC0121153105E1
:100D300041F4ED91FC910190F081E02D642F199523
:100D400008950E9431060895EF92FF920F931F932A
:100D50009A01E62EFF2400E010E0B801A7010E94EE
:100D600095061F910F91FF90EF9008951F920F929B
:100D70000FB60F920BB60F9211242F933F934F9300
:100D80005F936F937F938F939F93AF93BF93EF93F3
:100D9000FF938091EA049091EB04892B29F0E09174
:100DA000EA04F091EB041995FF91EF91BF91AF9197
:100DB0009F918F917F916F915F914F913F912F9173
:100DC0000F900BBE0F900FBE0F901F9018951F92A3
:100DD0000F920FB60F920BB60F9211242F933F93E1
:100DE0004F935F936F937F938F939F93AF93BF9333
:100DF000EF93FF938091EC049091ED04892B29F0FF
:100E0000E091EC04F091ED041995FF91EF91BF9101
:100E1000AF919F918F917F916F915F914F913F9192
:100E20002F910F900BBE0F900FBE0F901F90189533
:100E30001F920F920FB60F920BB60F9211242F93A1
:100E40003F934F935F936F937F938F939F93AF9352
:100E5000BF93EF93FF938091EE049091EF04892B61
:100E600029F0E091EE04F091EF041995FF91EF91D4
:100E7000BF91AF919F918F917F916F915F914F91B2
:100E80003F912F910F900BBE0F900FBE0F901F90B0
:100E900018951F920F920FB60F920BB60F92112456
:100EA0002F933F934F935F936F937F938F939F9372
:100EB000AF93BF93EF93FF938091F0049091F1046F
:100EC000892B29F0E091F004F091F1041995FF913C
:100ED000EF91BF91AF919F918F917F916F915F91B2
:100EE0004F913F912F910F900BBE0F900FBE0F901F
:100EF0001F9018951F920F920FB60F920BB60F927C
:100F000011242F933F934F935F936F937F938F930E
:100F10009F93AF93BF93EF93FF938091E6049091DB
:100F2000E704892B29F0E091E604F091E704199594
:100F3000FF91EF91BF91AF919F918F917F916F91B1
:100F40005F914F913F912F910F900BBE0F900FBE6D
:100F50000F901F9018951F920F920FB60F920BB61D
:100F60000F9211242F933F934F935F936F937F932F
:100F70008F939F93AF93BF93EF93FF938091E80478
:100F80009091E904892B29F0E091E804F091E904BB
:100F90001995FF91EF91BF91AF919F918F917F91A3
:100FA0006F915F914F913F912F910F900BBE0F90DA
:100FB0000FBE0F901F9018951F920F920FB60F92B1
:100FC0000BB60F9211242F933F934F935F936F9320
:100FD0007F938F939F93AF93BF93EF93FF938091F2
:100FE000F2049091F304892B29F0E091F204F0913E
:100FF000F3041995FF91EF91BF91AF919F918F915C
:101000007F916F915F914F913F912F910F900BBE08
:101010000F900FBE0F901F9018951F920F920FB652
:101020000F920BB60F9211242F933F934F935F9320
:101030006F937F938F939F93AF93BF93EF93FF93A0
:101040008091F4049091F504892B29F0E091F40447
:10105000F091F5041995FF91EF91BF91AF919F9198
:101060008F917F916F915F914F913F912F910F9051
:101070000BBE0F900FBE0F901F9018951F920F92EE
:101080000FB60F9211242F933F938F939F93AF939B
:10109000BF938091FA049091FB04A091FC04B0915D
:1010A000FD043091FE040196A11DB11D232F2D5F7B
:1010B0002D3720F02D570196A11DB11D2093FE0460
:1010C0008093FA049093FB04A093FC04B093FD0476
:1010D0008091F6049091F704A091F804B091F9047E
:1010E0000196A11DB11D8093F6049093F704A0937F
:1010F000F804B093F904BF91AF919F918F913F9104
:101100002F910F900FBE0F901F9018959FB7F894D6
:101110002091F6043091F7044091F8045091F904BD
:1011200086B5A89B06C08F3F21F02F5F3F4F4F4FE2
:101130005F4F9FBF542F432F322F2227280F311D7F
:10114000411D511D82E0220F331F441F551F8A95F8
:10115000D1F7B901CA010895789484B5826084BD3D
:1011600084B5816084BD85B5826085BD85B58160AB
:1011700085BDEEE6F0E0808181608083E1E8F0E00B
:101180001082808182608083808181608083E0E83A
:10119000F0E0808181608083E1EBF0E08081846019
:1011A0008083E0EBF0E0808181608083E1E9F0E022
:1011B000808182608083808181608083E0E9F0E0CB
:1011C000808181608083E1EAF0E0808182608083B9
:1011D000808181608083E0EAF0E0808181608083AB
:1011E000E1E2F1E0808182608083808181608083A0
:1011F000E0E2F1E0808181608083EAE7F0E08081D5
:10120000846080838081826080838081816080832C
:101210008081806880831092C10008951F93CF93CE
:10122000DF93182FEB0161E00E94EE09209709F48B
:10123000CAC0CF3FD10509F4C9C0E12FF0E0E254A4
:10124000FE4F8491893009F466C08A30B0F484304E
:10125000F1F1853040F4823059F1833070F58130FE
:1012600009F0AEC020C0873009F443C0883008F0D0
:1012700048C0863009F0A4C034C08D3009F478C06D
:101280008E3038F48B3009F45AC08C3008F066C0C8
:101290004CC0803109F480C0813109F487C08F309F
:1012A00009F08EC06FC084B5806884BDC7BD92C090
:1012B00084B5806284BDC8BD8DC080918000806887
:1012C00080938000D0938900C093880083C0809170
:1012D0008000806280938000D0938B00C0938A004E
:1012E00079C08091B00080688093B000C093B30053
:1012F00071C08091B00080628093B000C093B40050
:1013000069C080919000806880939000D09399008C
:10131000C09398005FC0809190008062809390009D
:10132000D0939B00C0939A0055C080919000886034
:1013300080939000D0939D00C0939C004BC08091FF
:10134000A00080688093A0008091A0008F7B809394
:10135000A000D093A900C093A8003CC08091A00039
:1013600080628093A000D093AB00C093AA0032C0EB
:101370008091A00088608093A000D093AD00C093BE
:10138000AC0028C080912001806880932001D09318
:101390002901C09328011EC08091200180628093A2
:1013A0002001D0932B01C0932A0114C08091200109
:1013B000886080932001D0932D01C0932C010AC036
:1013C000C038D1051CF4812F60E002C0812F61E09C
:1013D0000E94A10ADF91CF911F910895CF93DF93CF
:1013E000482F50E0CA0188589E4FFC0134914E5C52
:1013F0005E4FFA018491882369F190E0880F991F6C
:10140000FC01EC51FF4FA591B491FC01E250FF4F5C
:10141000C591D491662351F42FB7F8948C91932FF2
:10142000909589238C93888189230BC0623061F465
:101430002FB7F8948C91932F909589238C93888162
:10144000832B88832FBF06C09FB7F8948C91832B82
:101450008C939FBFDF91CF910895893009F449C0E3
:101460008A30A0F4843051F1853040F4823079F133
:10147000833000F5813009F063C026C0873079F1F0
:10148000883098F5863009F05BC025C08D3009F4AE
:1014900042C08E3028F48B30B1F18C30C0F52DC0B5
:1014A000803109F442C0813109F445C08F3009F020
:1014B00047C037C0809180008F7703C08091800043
:1014C0008F7D80938000089584B58F7702C084B5A6
:1014D0008F7D84BD08958091B0008F7703C0809187
:1014E000B0008F7D8093B0000895809190008F7739
:1014F00007C0809190008F7D03C080919000877F0E
:101500008093900008958091A0008F7707C080910C
:10151000A0008F7D03C08091A000877F8093A000F2
:101520000895809120018F7703C0809120018F7DE5
:1015300080932001089580912001877F809320016E
:101540000895FF920F931F93F62E482F50E0CA0183
:1015500082549E4FFC012491CA0188589E4FFC0181
:1015600014914E5C5E4FFA0104910023C9F02223CE
:1015700019F0822F0E942D0AE02FF0E0EE0FFF1FDE
:10158000E250FF4FA591B4919FB7F894FF2021F44A
:101590008C911095812302C08C91812B8C939FBFDD
:1015A0001F910F91FF9008958130910579F082305D
:1015B00091051CF4892B39F008958230910549F08A
:1015C000039781F40BC088E594E005C08AE794E0B6
:1015D00002C08CE994E00E94E30508958EEB94E04C
:1015E0000E94E30508950F931F93CF93DF938A0121
:1015F000E9018130910581F0823091051CF400975A
:1016000041F014C08230910551F08330910571F49E
:1016100009C088E594E008C08AE794E005C08CE939
:1016200094E002C08EEB94E00E94E303F801808313
:10163000198218828F5F9F4F21F081E090E099839B
:101640008883DF91CF911F910F910895813091058B
:1016500079F0823091051CF4892B39F0089582309D
:10166000910549F0039781F40BC088E594E005C02B
:101670008AE794E002C08CE994E00E942B0308956D
:101680008EEB94E00E942B030895809105059091C4
:101690000605A0910705B091080580930105909378
:1016A0000205A0930305B0930405089508951092D0
:1016B00000051092FF041092050510920605109285
:1016C000070510920805109201051092020510926C
:1016D0000305109204058091000261E00E94EE096A
:1016E0008091080290910902A0910A02B0910B0228
:1016F0008093010590930205A0930305B093040520
:101700000895EF92FF920F931F93DF93CF93CDB77E
:10171000DEB72E970FB6F894DEBF0FBECDBF609137
:101720001E02809118029091190270E0AE014F5F85
:101730005F4F9E012E5F3F4F0E94F30A2A813B813B
:1017400080911C0290911D02821793077CF469819D
:1017500070E080E090E00E94970D60930505709323
:101760000605809307059093080510C08091010538
:1017700090910205A0910305B091040580930505A1
:1017800090930605A0930705B0930805E090050522
:10179000F09006050091070510910805C801B701F2
:1017A00020E030E040E853E40E94670D882394F481
:1017B000C801B70120E030E040E050E00E94210E77
:1017C000882334F0C801B7010E946B0D698304C0FF
:1017D000198202C08FEF898369818091000270E0D5
:1017E0000E940E09E0900C02F0900D0200910E0292
:1017F00010910F02C801B70120E030E040E853E447
:101800000E94670D882394F4C801B70120E030E0FE
:1018100040E050E00E94210E882334F0C801B70157
:101820000E946B0D6C8304C01C8202C08FEF8C83FE
:10183000E0900505F0900605009107051091080558
:10184000C801B70120E030E040E853E40E94670D92
:10185000882394F4C801B70120E030E040E050E074
:101860000E94210E882334F0C801B7010E946B0D3D
:101870006D830CC01D820AC08FEF8D838E838F8392
:10188000888789878A878B878C8777C0C801B7014B
:1018900020E030E040E050E00E94210E882334F048
:1018A000C801B7010E946B0D6E8301C01E82C80182
:1018B000B70120E030E040E050E00E94210E882394
:1018C00034F0C801B7010E946B0D6F8301C01F8205
:1018D000C801B70120E030E040E050E00E94210E56
:1018E000882334F0C801B7010E946B0D688701C0DE
:1018F0001886C801B70120E030E040E050E00E94C7
:10190000210E882334F0C801B7010E946B0D69874E
:1019100001C01986C801B70120E030E040E050E086
:101920000E94210E882334F0C801B7010E946B0D7C
:101930006A8701C01A86C801B70120E030E040E0A4
:1019400050E00E94210E882334F0C801B7010E94A4
:101950006B0D6B8701C01B86C801B70120E030E02A
:1019600040E050E00E94210E882334F0C801B70106
:101970000E946B0D6C8701C01C86E0901002F090F5
:1019800011020091120210911302C801B70120E068
:1019900030E040E853E40E94670D882394F4C801C6
:1019A000B70120E030E040E050E00E94210E8823A3
:1019B00034F0C801B7010E946B0D6D8704C01D860D
:1019C00002C08FEF8D87E0901402F0901502009115
:1019D000160210911702C801B70120E030E040E87C
:1019E00053E40E94670D882394F4C801B70120E0F6
:1019F00030E040E050E00E94210E882334F0C8011E
:101A0000B7010E946B0D6E8704C01E8602C08FEF67
:101A10008E878091040290910502BE016C5F7F4F1A
:101A20004BE050E00E94D40A2E960FB6F894DEBF29
:101A30000FBECDBFCF91DF911F910F91FF90EF901F
:101A40000895AF92BF92CF92DF92EF92FF920F93E1
:101A50001F93CF93DF930E94AC080E94570B81E045
:101A600090E040E855E260E070E00E94260BC091F3
:101A70003502D0913602AA24BB24650115C00E940C
:101A800086087B018C01DC01CB018A199B09AC091A
:101A9000BD0980529E44A040B04030F00E94810BAE
:101AA0000E94450B5701680188819981892B39F380
:101AB0000E94560B80E090E0DF91CF911F910F9133
:101AC000FF90EF90DF90CF90BF90AF9008956CD0D3
:101AD00008F481E0089594D088F09F5790F0B92FD2
:101AE0009927B751A0F0D1F0660F771F881F991F73
:101AF0001AF0BA95C9F712C0B13081F09BD0B1E0AD
:101B0000089598C0672F782F8827B85F39F0B93FBC
:101B1000CCF3869577956795B395D9F73EF4909574
:101B20008095709561957F4F8F4F9F4F0895E894F2
:101B300009C097FB3EF490958095709561957F4F15
:101B40008F4F9F4F9923A9F0F92F96E9BB279395C3
:101B5000F695879577956795B795F111F8CFFAF4D3
:101B6000BB0F11F460FF1BC06F5F7F4F8F4F9F4F04
:101B700016C0882311F096E911C0772321F09EE862
:101B8000872F762F05C0662371F096E8862F70E0C8
:101B900060E02AF09A95660F771F881FDAF7880FA2
:101BA0009695879597F90895990F0008550FAA0BF8
:101BB000E0E8FEEF16161706E807F907C0F0121660
:101BC0001306E407F50798F0621B730B840B950B63
:101BD00039F40A2661F0232B242B252B21F40895B8
:101BE0000A2609F4A140A6958FEF811D811D089555
:101BF00057FD9058440F551F59F05F3F71F04795BE
:101C0000880F97FB991F61F09F3F79F087950895A2
:101C1000121613061406551FF2CF4695F1DF08C0C1
:101C2000161617061806991FF1CF869571056105DE
:101C300008940895E894BB2766277727CB0197F986
:101C40000895B2DF08F48FEF0895629FD001739F6B
:101C5000F001829FE00DF11D649FE00DF11D929F48
:101C6000F00D839FF00D749FF00D659FF00D992787
:101C7000729FB00DE11DF91F639FB00DE11DF91FAB
:101C8000BD01CF0111240895A1E21A2EAA1BBB1B8E
:101C9000FD010DC0AA1FBB1FEE1FFF1FA217B30738
:101CA000E407F50720F0A21BB30BE40BF50B661F4E
:101CB000771F881F991F1A9469F760957095809512
:101CC00090959B01AC01BD01CF010895EE0FFF1F60
:0C1CD0000590F491E02D1994F894FFCFDA
:101CDC0005000000010000000000000000002D4382
:101CEC000000803F0000803F010000000000010068
:101CFC000000001C04E305B203E303C3030C04005F
:081D0C00000000A105FF040026
:00000001FF
