:100000000C9404010C942F060C9460060C94910639
:100010000C94C2060C94F3060C9424070C94550718
:100020000C9486070C9431010C9431010C9431012D
:100030000C9431010C9431010C9431010C94310178
:100040000C9431010C9431010C9431010C94310168
:100050000C9431010C9431010C9431010C94B707CC
:100060000C9431010C9433010C942F020C94310147
:100070000C9431010C9431010C9431010C94310138
:100080000C9431010C9431010C9431010C94310128
:100090000C9472010C946E020C9431010C94310199
:1000A0000C9431010C9431010C9431010C94310108
:1000B0000C9431010C9431010C9431010C943101F8
:1000C0000C9431010C9431010C9431010C94B10168
:1000D0000C94AD020C9431010C94F0010C94EC02E0
:1000E0000C94310100002100240027002A002D007B
:1000F0003000330001010000040107010A01000083
:100100002200250028002B002E00310034000201BF
:100110000000050108010B0100002000230026005B
:1001200029002C002F00320000010000030106010D
:10013000090105050505070508080808020202026D
:100140000A0A080804040404010101010101010173
:100150000303030303030303040707070C0C0C0C3E
:100160000C0C0C0C02020202060606060606060627
:100170000B0B0B0B0B0B0B0B0102102020080810B4
:100180002040102040800201020108040201010207
:1001900004081020408080402010080402018004E0
:1001A000020180402010080402010804020101023B
:1001B0000408102040800102040810204080000044
:1001C000090A02080B0C0D070603040100000000D9
:1001D000000000000000000000000000000000001F
:1001E0000000000000000000000011100F000000DF
:1001F00000000000000000000000000000000000FF
:1002000000000000D5030B0511241FBECFEFD1E283
:10021000DEBFCDBF00E00CBF12E0A0E0B2E0E6E53B
:10022000F0E200E00BBF02C007900D92A437B107C7
:10023000D9F71BBE15E0A4E7B2E001C01D92A536B8
:10024000B107E1F712E0C8E0D2E004C02297FE0156
:100250000E942510C430D107C9F70E949B0D0C9451
:1002600029100C9400001F920F920FB60F920BB63C
:100270000F9211242F933F934F938F939F93EF935C
:10028000FF938091C00082FD1DC04091C600209167
:10029000B4023091B5022F5F3F4F2F7330708091C1
:1002A000B6029091B7022817390771F0E091B402B5
:1002B000F091B502EC58FD4F40833093B502209386
:1002C000B40202C08091C600FF91EF919F918F917F
:1002D0004F913F912F910F900BBE0F900FBE0F903B
:1002E0001F9018951F920F920FB60F920BB60F9298
:1002F00011242F933F934F938F939F93EF93FF93EB
:100300008091C80082FD1DC04091CE0020913C0329
:1003100030913D032F5F3F4F2F73307080913E032C
:1003200090913F032817390771F0E0913C03F09159
:100330003D03E450FD4F408330933D0320933C0345
:1003400002C08091CE00FF91EF919F918F914F91CC
:100350003F912F910F900BBE0F900FBE0F901F90EB
:1003600018951F920F920FB60F920BB60F92112491
:100370002F933F934F938F939F93EF93FF9380918E
:10038000D00082FD1DC04091D6002091C403309161
:10039000C5032F5F3F4F2F7330708091C60390913C
:1003A000C7032817390771F0E091C403F091C50322
:1003B000EC57FC4F40833093C5032093C40302C025
:1003C0008091D600FF91EF919F918F914F913F9136
:1003D0002F910F900BBE0F900FBE0F901F9018958E
:1003E0001F920F920FB60F920BB60F9211242F93FC
:1003F0003F934F938F939F93EF93FF93809130019F
:1004000082FD1DC04091360120914C0430914D0475
:100410002F5F3F4F2F73307080914E0490914F04A7
:100420002817390771F0E0914C04F0914D04E45F16
:10043000FB4F408330934D0420934C0402C08091C5
:100440003601FF91EF919F918F914F913F912F91A5
:100450000F900BBE0F900FBE0F901F9018951F921C
:100460000F920FB60F920BB60F9211242F933F935A
:100470008F939F93EF93FF932091F8023091F902AD
:100480008091FA029091FB022817390731F480918C
:10049000C1008F7D8093C10014C0E091FA02F091F9
:1004A000FB02E854FD4F20818091FA029091FB02FB
:1004B00001968F7390709093FB028093FA022093C1
:1004C000C600FF91EF919F918F913F912F910F90D7
:1004D0000BBE0F900FBE0F901F9018951F920F929A
:1004E0000FB60F920BB60F9211242F933F938F9359
:1004F0009F93EF93FF93209180033091810380912C
:100500008203909183032817390731F48091C90041
:100510008F7D8093C90014C0E0918203F091830322
:10052000E05CFC4F208180918203909183030196CF
:100530008F73907090938303809382032093CE00F7
:10054000FF91EF919F918F913F912F910F900BBE53
:100550000F900FBE0F901F9018951F920F920FB61D
:100560000F920BB60F9211242F933F938F939F936B
:10057000EF93FF93209108043091090480910A04BD
:1005800090910B042817390731F48091D1008F7DA9
:100590008093D10014C0E0910A04F0910B04E85359
:1005A000FC4F208180910A0490910B0401968F7377
:1005B000907090930B0480930A042093D600FF91CF
:1005C000EF919F918F913F912F910F900BBE0F90C4
:1005D0000FBE0F901F9018951F920F920FB60F929B
:1005E0000BB60F9211242F933F938F939F93EF930A
:1005F000FF93209190043091910480919204909106
:1006000093042817390731F4809131018F7D80934D
:10061000310114C0E0919204F0919304E05BFB4F30
:100620002081809192049091930401968F73907031
:10063000909393048093920420933601FF91EF915D
:100640009F918F913F912F910F900BBE0F900FBEF6
:100650000F901F901895DC011C96ED91FC911D9751
:10066000E05CFF4F2191319180819181281B390BF2
:100670002F733070C9010895DC011C96ED91FC9137
:100680001D97E05CFF4F20813181E054F040DF0195
:10069000AE5BBF4F8D919C9111972817390719F4C4
:1006A0002FEF3FEF07C08D919C91E80FF91F8081DC
:1006B000282F30E0C9010895DC011C96ED91FC91D2
:1006C0001D97E05CFF4F20813181E054F040DF0155
:1006D000AE5BBF4F8D919C9111972817390719F484
:1006E0002FEF3FEF10C08D919C911197E80FF91FEC
:1006F00020818D919C91119701968F739070119626
:100700009C938E9330E0C9010895DC0191968C9101
:100710009197882339F05496ED91FC9155978081FB
:1007200086FFF9CF91961C920895CF93DF93EC0149
:10073000EE85FF85E05CFF4F20813181E054F04081
:100740002F5F3F4F2F733070DF01AE5BBF4F8D9136
:100750009C91119728173907D1F3E05CFF4F8081F6
:100760009181E054F040E80FF91F6083EE85FF852A
:10077000E05CFF4F31832083EE89FF89208181E097
:1007800090E00F8C02C0880F991F0A94E2F7282B83
:10079000208381E089A3EC89FD8980818064808346
:1007A00081E090E0DF91CF9108951F93109297041C
:1007B0001092960428EE33E040E050E02093980435
:1007C0003093990440939A0450939B046FE572E030
:1007D000709395046093940484E792E09093A1044D
:1007E0008093A00488EB92E09093A3048093A204EA
:1007F00085EC90E09093A5048093A40484EC90E0B1
:100800009093A7048093A60480EC90E09093A904B1
:100810008093A80481EC90E09093AB048093AA04A9
:1008200082EC90E09093AD048093AC0486EC90E071
:100830009093AF048093AE0414E01093B004B3E03F
:10084000B093B104A7E0A093B204F5E0F093B30431
:10085000E1E0E093B4041092B9041092B80420933C
:10086000BA043093BB044093BC045093BD0470930E
:10087000B7046093B6048CEF92E09093C304809326
:10088000C20480E493E09093C5048093C4048DEC8B
:1008900090E09093C7048093C6048CEC90E0909312
:1008A000C9048093C80488EC90E09093CB048093B3
:1008B000CA0489EC90E09093CD048093CC048AEC38
:1008C00090E09093CF048093CE048EEC90E09093D0
:1008D000D1048093D0041093D204B093D304A09396
:1008E000D404F093D504E093D6041092DB04109264
:1008F000DA042093DC043093DD044093DE0450934B
:10090000DF047093D9046093D80484E893E0909353
:10091000E5048093E40488EC93E09093E7048093EB
:10092000E60485ED90E09093E9048093E80484ED7B
:1009300090E09093EB048093EA0480ED90E0909334
:10094000ED048093EC0481ED90E09093EF048093AC
:10095000EE0482ED90E09093F1048093F00486ED34
:1009600090E09093F3048093F2041093F404B09316
:10097000F504A093F604F093F704E093F8041092C2
:10098000FD041092FC042093FE043093FF04409376
:100990000005509301057093FB046093FA048CE00A
:1009A00094E0909307058093060580E594E090938A
:1009B00009058093080585E391E090930B058093EA
:1009C0000A0584E391E090930D0580930C0580E384
:1009D00091E090930F0580930E0581E391E0909351
:1009E00011058093100582E391E0909313058093A5
:1009F000120586E391E090931505809314051093FA
:100A00001605B0931705A0931805F0931905E09308
:100A10001A051F9108958FE692E090931D0580932B
:100A20001C0510921E0510921F05109220051092B1
:100A3000210508958F929F92AF92BF92CF92DF923D
:100A4000EF92FF920F931F93CF93DF934C016B01B3
:100A50007C01AA24BB24C0E0D0E0C601F70162817A
:100A60004AE050E00E941D068C01C6016EE20E9421
:100A70008605080F191FA00EB11E21960894E11CCF
:100A8000F11CC330D10549F7C601F40165814AE084
:100A900050E00E941D069501280F391FC901DF9102
:100AA000CF911F910F91FF90EF90DF90CF90BF906B
:100AB000AF909F908F900895CF92DF92EF92FF9228
:100AC0000F931F93CF93DF937C016B018A01C0E0EA
:100AD000D0E00FC0D6016D916D01D701ED91FC9171
:100AE0000190F081E02DC7011995C80FD91F015061
:100AF00010400115110571F7CE01DF91CF911F91C3
:100B00000F91FF90EF90DF90CF900895DC01ED9171
:100B1000FC910190F081E02D19950895CF93DF931A
:100B2000EC016115710519F420E030E00FC0DB0124
:100B30000D900020E9F71197A61BB70BE881F9810A
:100B40000280F381E02DAD0119959C01C901DF916F
:100B5000CF9108954F925F927F928F929F92AF9222
:100B6000BF92CF92DF92EF92FF920F931F93DF938A
:100B7000CF93CDB7DEB7A1970FB6F894DEBF0FBE07
:100B8000CDBF2C01742ECB01223008F42AE019A22B
:100B900031E2C32ED12CCC0EDD1E822E9924AA2444
:100BA000BB24672D752FA50194010E9401107901C6
:100BB0008A01C801B701A50194010E94E20F472DE7
:100BC000461B0894C108D1084A3014F4405D01C0A6
:100BD000495CF6014083E114F1040105110521F09F
:100BE0007E2C5F2DC801DDCFC201B6010E948E05AB
:100BF000A1960FB6F894DEBF0FBECDBFCF91DF91A7
:100C00001F910F91FF90EF90DF90CF90BF90AF902A
:100C10009F908F907F905F904F900895DC012115F9
:100C2000310541F4ED91FC910190F081E02D642FAC
:100C3000199508950E94AA050895EF92FF920F93C7
:100C40001F939A01E62EFF2400E010E0B801A701EF
:100C50000E940E061F910F91FF90EF9008951F9232
:100C60000F920FB60F920BB60F9211242F933F9352
:100C70004F935F936F937F938F939F93AF93BF93A4
:100C8000EF93FF938091260590912705892B29F0FA
:100C9000E0912605F09127051995FF91EF91BF91FD
:100CA000AF919F918F917F916F915F914F913F9104
:100CB0002F910F900BBE0F900FBE0F901F901895A5
:100CC0001F920F920FB60F920BB60F9211242F9313
:100CD0003F934F935F936F937F938F939F93AF93C4
:100CE000BF93EF93FF938091280590912905892B5D
:100CF00029F0E0912805F09129051995FF91EF91D0
:100D0000BF91AF919F918F917F916F915F914F9123
:100D10003F912F910F900BBE0F900FBE0F901F9021
:100D200018951F920F920FB60F920BB60F921124C7
:100D30002F933F934F935F936F937F938F939F93E3
:100D4000AF93BF93EF93FF9380912A0590912B056A
:100D5000892B29F0E0912A05F0912B051995FF9137
:100D6000EF91BF91AF919F918F917F916F915F9123
:100D70004F913F912F910F900BBE0F900FBE0F9090
:100D80001F9018951F920F920FB60F920BB60F92ED
:100D900011242F933F934F935F936F937F938F9380
:100DA0009F93AF93BF93EF93FF9380912C05909106
:100DB0002D05892B29F0E0912C05F0912D05199531
:100DC000FF91EF91BF91AF919F918F917F916F9123
:100DD0005F914F913F912F910F900BBE0F900FBEDF
:100DE0000F901F9018951F920F920FB60F920BB68F
:100DF0000F9211242F933F934F935F936F937F93A1
:100E00008F939F93AF93BF93EF93FF9380912205AE
:100E100090912305892B29F0E0912205F09123057B
:100E20001995FF91EF91BF91AF919F918F917F9114
:100E30006F915F914F913F912F910F900BBE0F904B
:100E40000FBE0F901F9018951F920F920FB60F9222
:100E50000BB60F9211242F933F934F935F936F9391
:100E60007F938F939F93AF93BF93EF93FF93809163
:100E7000240590912505892B29F0E0912405F09116
:100E800025051995FF91EF91BF91AF919F918F919A
:100E90007F916F915F914F913F912F910F900BBE7A
:100EA0000F900FBE0F901F9018951F920F920FB6C4
:100EB0000F920BB60F9211242F933F934F935F9392
:100EC0006F937F938F939F93AF93BF93EF93FF9312
:100ED00080912E0590912F05892B29F0E0912E0508
:100EE000F0912F051995FF91EF91BF91AF919F91CF
:100EF0008F917F916F915F914F913F912F910F90C3
:100F00000BBE0F900FBE0F901F9018951F920F925F
:100F10000FB60F920BB60F9211242F933F934F935E
:100F20005F936F937F938F939F93AF93BF93EF9351
:100F3000FF938091300590913105892B29F0E09144
:100F40003005F09131051995FF91EF91BF91AF9167
:100F50009F918F917F916F915F914F913F912F91D1
:100F60000F900BBE0F900FBE0F901F9018951F9201
:100F70000F920FB60F9211242F933F938F939F934D
:100F8000AF93BF938091360590913705A0913805B6
:100F9000B091390530913A050196A11DB11D232F5D
:100FA0002D5F2D3720F02D570196A11DB11D2093E7
:100FB0003A058093360590933705A0933805B09392
:100FC00039058091320590913305A0913405B09197
:100FD00035050196A11DB11D80933205909333050F
:100FE000A0933405B0933505BF91AF919F918F9138
:100FF0003F912F910F900FBE0F901F9018959FB7A4
:10100000F894209132053091330540913405509188
:10101000350586B5A89B06C08F3F21F02F5F3F4F57
:101020004F4F5F4F9FBF542F432F322F2227280F40
:10103000311D411D511D82E0220F331F441F551FDA
:101040008A95D1F7B901CA010895789484B5826070
:1010500084BD84B5816084BD85B5826085BD85B55C
:10106000816085BDEEE6F0E0808181608083E1E80B
:10107000F0E0108280818260808380818160808343
:10108000E0E8F0E0808181608083E1EBF0E0808146
:1010900084608083E0EBF0E0808181608083E1E91F
:1010A000F0E0808182608083808181608083E0E9DC
:1010B000F0E0808181608083E1EAF0E080818260FD
:1010C0008083808181608083E0EAF0E080818160BC
:1010D0008083E1E2F1E080818260808380818160B1
:1010E0008083E0E2F1E0808181608083EAE7F0E0E4
:1010F0008081846080838081826080838081816040
:1011000080838081806880831092C1000895382F89
:10111000863308F0365320917B00832F8695869581
:10112000869590E08170907043E0880F991F4A95F2
:10113000E1F7277F282B20937B00377080910002F6
:101140008295880F880F807C832B80937C00809110
:101150007A00806480937A0080917A0086FDFCCFCB
:101160002091780040917900942F80E030E0282B86
:10117000392BC90108951F93CF93DF93182FEB01EB
:1011800061E00E949B09209709F4CAC0CF3FD105B6
:1011900009F4C9C0E12FF0E0E254FE4F8491893098
:1011A00009F466C08A30B0F48430F1F1853040F43F
:1011B000823059F1833070F5813009F0AEC020C023
:1011C000873009F443C0883008F048C0863009F001
:1011D000A4C034C08D3009F478C08E3038F48B3020
:1011E00009F45AC08C3008F066C04CC0803109F454
:1011F00080C0813109F487C08F3009F08EC06FC084
:1012000084B5806884BDC7BD92C084B5806284BD4A
:10121000C8BD8DC080918000806880938000D0938D
:101220008900C093880083C0809180008062809391
:101230008000D0938B00C0938A0079C08091B00069
:1012400080688093B000C093B30071C08091B000FB
:1012500080628093B000C093B40069C08091900018
:10126000806880939000D0939900C09398005FC0ED
:1012700080919000806280939000D0939B00C093F7
:101280009A0055C080919000886080939000D09320
:101290009D00C0939C004BC08091A000806880930B
:1012A000A0008091A0008F7B8093A000D093A90024
:1012B000C093A8003CC08091A00080628093A000F1
:1012C000D093AB00C093AA0032C08091A000886088
:1012D0008093A000D093AD00C093AC0028C0809153
:1012E0002001806880932001D0932901C0932801B8
:1012F0001EC080912001806280932001D0932B0139
:10130000C0932A0114C0809120018860809320013D
:10131000D0932D01C0932C010AC0C038D1051CF414
:10132000812F60E002C0812F61E00E944E0ADF91B0
:10133000CF911F910895CF93DF93482F50E0CA01BA
:1013400088589E4FFC0134914E5C5E4FFA018491A7
:10135000882369F190E0880F991FFC01EC51FF4F41
:10136000A591B491FC01E250FF4FC591D491662341
:1013700051F42FB7F8948C91932F909589238C93E7
:10138000888189230BC0623061F42FB7F8948C9167
:10139000932F909589238C938881832B88832FBFEB
:1013A00006C09FB7F8948C91832B8C939FBFDF91DD
:1013B000CF910895893009F449C08A30A0F484306F
:1013C00051F1853040F4823079F1833000F581307D
:1013D00009F063C026C0873079F1883098F58630EF
:1013E00009F05BC025C08D3009F442C08E3028F46E
:1013F0008B30B1F18C30C0F52DC0803109F442C082
:10140000813109F445C08F3009F047C037C0809161
:1014100080008F7703C0809180008F7D8093800053
:10142000089584B58F7702C084B58F7D84BD0895FB
:101430008091B0008F7703C08091B0008F7D809342
:10144000B0000895809190008F7707C08091900040
:101450008F7D03C080919000877F809390000895D6
:101460008091A0008F7707C08091A0008F7D03C07E
:101470008091A000877F8093A00008958091200133
:101480008F7703C0809120018F7D80932001089584
:1014900080912001877F809320010895FF920F9310
:1014A0001F93F62E482F50E0CA0182549E4FFC0134
:1014B0002491CA0188589E4FFC0114914E5C5E4FE6
:1014C000FA0104910023C9F0222319F0822F0E940F
:1014D000DA09E02FF0E0EE0FFF1FE250FF4FA59179
:1014E000B4919FB7F894FF2021F48C91109581233B
:1014F00002C08C91812B8C939FBF1F910F91FF9005
:101500000895862F60E00E949B0908956091310242
:1015100070913202809133029091340220913F0504
:101520003091400540914105509142050E947F0F46
:101530009B01AC0160914305709144058091450584
:10154000909146050E94350E6093430570934405C3
:1015500080934505909346056091390270913A0257
:1015600080913B0290913C0220913B0530913C05DB
:1015700040913D0550913E050E947F0F9B01AC01BB
:1015800060914705709148058091490590914A0501
:101590000E94350E60934705709348058093490576
:1015A00090934A050895089584E090E00E94F70D15
:1015B00080915D0590915E05A0915F05B0916005F9
:1015C0008093090290930A02A0930B02B0930C023D
:1015D0008091550590915605A0915705B0915805F9
:1015E0008093150290931602A0931702B0931802ED
:1015F00010924C0510924B0588E0EBE3F5E0DF011B
:10160000982F1D929A95E9F7E3E4F5E0DF011D922A
:101610008A95E9F7609155027091560280915702C0
:10162000909158020E94810A8091190261E00E9403
:101630009B0980911D0261E00E949B09809121021B
:1016400061E00E949B098091350290913602A09141
:101650003702B09138028093430590934405A093DC
:101660004505B093460580913D0290913E02A091C0
:101670003F02B09140028093470590934805A093A4
:101680004905B0934A0508952F923F924F925F9279
:101690006F927F928F929F92AF92BF92CF92DF9282
:1016A000EF92FF920F931F93DF93CF93CDB7DEB7E7
:1016B0002C970FB6F894DEBF0FBECDBF80915502B8
:1016C0000E948708A0E0B0E02091590230915A02B0
:1016D00040E050E0BC01CD010E94E20F0E94C90E23
:1016E00020E030E040E053EB0E947F0F20912D027C
:1016F00030912E0240912F02509130020E94350EFF
:1017000069837A838B839C8320910102309102024A
:1017100040910302509104020E947F0F20914705DF
:10172000309148054091490550914A050E94340E78
:1017300020910D0230910E0240910F025091100243
:101740000E947F0F7B018C0160933B0570933C05E9
:1017500080933D0590933E0569817A818B819C81C0
:101760002091110230911202409113025091140203
:101770000E947F0F2091430530914405409145051B
:10178000509146050E94350EA80197010E94350E22
:101790001B012C01A0901502B0901602C0901702F8
:1017A000D0901802A60195010E947B0F181694F0A4
:1017B000A0900902B0900A02C0900B02D0900C02D7
:1017C000C201B101A60195010E94990E87FD02C0D8
:1017D00062015101C601B5012091410230914202DE
:1017E00040914302509144020E947B0F88234CF0A9
:1017F0006090290270902A0280902B0290902C0217
:1018000008C0609025027090260280902702909078
:101810002802C601B501A40193010E947F0F7B013C
:101820008C0120E030E040E853E40E94990E87FDEF
:1018300002C06FEF10C0C801B70120E030E040E007
:1018400050E00E947B0F87FF02C060E004C0C80127
:10185000B7010E949D0E8091190270E00E94BB08A2
:101860006091450270914602809147029091480232
:1018700020912D0230912E0240912F025091300282
:101880000E947F0F7B018C0120E030E040E853E4B0
:101890000E94990E87FD02C06FEF10C0C801B7010A
:1018A00020E030E040E050E00E947B0F87FF02C064
:1018B00060E004C0C801B7010E949D0E80911D0226
:1018C00070E00E94BB08C401B3012091490230912D
:1018D0004A0240914B0250914C020E94340E9B01EF
:1018E000AC01C601B5010E947F0F7B018C0120E095
:1018F00030E040E853E40E94990E87FD02C06FEF8C
:1019000010C0C801B70120E030E040E050E00E9484
:101910007B0F87FF02C060E004C0C801B7010E94CE
:101920009D0E8091210270E00E94BB0880914D02C3
:1019300090914E02A0914F02B09150028D839E83F0
:10194000AF83B887E0901502F0901602009117025D
:1019500010911802C201B101A80197010E947B0FEA
:101960001816DCF0E0900902F0900A0200910B02D8
:1019700010910C02C201B101A80197010E947B0FD6
:1019800088235CF00F2EF0E0EF2EF0E0FF2EF0E069
:101990000F2FF0E01F2FF02D08C0C201B101A801E8
:1019A00097010E94340E7B018C0169817A818B81C1
:1019B0009C812091050230910602409107025091CE
:1019C00008020E947F0F5B016C01C801B70120E093
:1019D00030E040E050E00E94990E88233CF41986E4
:1019E0001A8690E89B87AFEBAC8726C0C801B70189
:1019F00020E030E040E050E00E947B0F18163CF4FD
:101A000019861A86B0E8BB87EFE3EC8715C0C801DA
:101A1000B70120E030E040E050E00E94990E8823BA
:101A200039F0D801C701E9869A87AB87BC8704C023
:101A300019861A861B861C86C601B50120E030E097
:101A400040E050E00E94990E88233CF466247724FD
:101A500030E8832E2FEB922E24C0C601B50120E082
:101A600030E040E050E00E947B0F18163CF4662402
:101A7000772490E8892E8FE3982E13C0C601B50114
:101A800020E030E040E050E00E94990E882329F0E9
:101A9000D601C50135014D0104C066247724882490
:101AA00099246D817E818F819885A20191010E9488
:101AB0007F0FA80197010E94990E8823D9F06985AC
:101AC0007A858B859C859301A4010E94990E8823B9
:101AD00089F48091510290915202A0915302B091E9
:101AE000540280933F0590934005A0934105B09325
:101AF000420508C0A0923F05B0924005C092410542
:101B0000D09242052C960FB6F894DEBF0FBECDBF23
:101B1000CF91DF911F910F91FF90EF90DF90CF90C9
:101B2000BF90AF909F908F907F906F905F904F90FD
:101B30003F902F900895AF92BF92CF92DF92EF9295
:101B4000FF920F931F93CF93DF930E9425080E946B
:101B5000D40AC0917102D0917202AA24BB246501FB
:101B600015C00E94FF077B018C01DC01CB018A19A3
:101B70009B09AC09BD0980519742A040B04030F0AC
:101B80000E94440B0E94860A57016801888199814E
:101B9000892B39F30E94D30A80E090E0DF91CF9146
:101BA0001F910F91FF90EF90DF90CF90BF90AF907B
:101BB000089560E070E080E89FE7089560E070E0DD
:101BC00080E89FE7089560E070E080E89FEF089567
:101BD00060E070E080E89FEF089560E070E080ECE6
:101BE0009FEF089560E070E080EC9FEF08950E9401
:101BF000ED0D6093590570935A0580935B059093A2
:101C00005C050E94F20D60934D0570934E05809324
:101C10004F05909350050E94D90D60935505709320
:101C2000560580935705909358050E94DE0D6093EA
:101C300051057093520580935305909354050E946B
:101C4000E30D60935D0570935E0580935F0590934F
:101C500060050E94E80D60936105709362058093B2
:101C600063059093640508955058BB27AA270ED0AA
:101C700008C1F9D030F0FED020F031F49F3F11F4CC
:101C80001EF4EEC00EF4E095E7FBE4C0E92F0AD1A4
:101C900080F3BA17620773078407950718F071F489
:101CA0009EF522C10EF4E0950B2EBA2FA02D0B014C
:101CB000B90190010C01CA01A0011124FF27591B91
:101CC00099F0593F50F4503E68F11A16F040A22F97
:101CD000232F342F4427585FF3CF46953795279508
:101CE000A795F0405395C9F77EF41F16BA0B620B07
:101CF000730B840BBAF09150A1F0FF0FBB1F661F4E
:101D0000771F881FC2F70EC0BA0F621F731F841F90
:101D100048F4879577956795B795F7959E3F08F0B6
:101D2000B3CF9395880F08F09927EE0F9795879575
:101D300008956CD008F481E00895BCD088F09F57D6
:101D400090F0B92F9927B751A0F0D1F0660F771F07
:101D5000881F991F1AF0BA95C9F712C0B13081F0E7
:101D6000C3D0B1E00895C0C0672F782F8827B85F2F
:101D700039F0B93FCCF3869577956795B395D9F748
:101D80003EF490958095709561957F4F8F4F9F4F52
:101D90000895E89409C097FB3EF49095809570955E
:101DA00061957F4F8F4F9F4F9923A9F0F92F96E9A7
:101DB000BB279395F695879577956795B795F1111C
:101DC000F8CFFAF4BB0F11F460FF1BC06F5F7F4FB9
:101DD0008F4F9F4F16C0882311F096E911C07723CB
:101DE00021F09EE8872F762F05C0662371F096E8D4
:101DF000862F70E060E02AF09A95660F771F881FA3
:101E0000DAF7880F9695879597F90895990F000846
:101E1000550FAA0BE0E8FEEF16161706E807F907BC
:101E2000C0F012161306E407F50798F0621B730B57
:101E3000840B950B39F40A2661F0232B242B252BD8
:101E400021F408950A2609F4A140A6958FEF811D7B
:101E5000811D089597F99F6780E870E060E008951C
:101E60009FEF80EC089500240A94161617061806B2
:101E70000906089500240A9412161306140605068E
:101E80000895092E0394000C11F4882352F0BB0F1F
:101E900040F4BF2B11F460FF04C06F5F7F4F8F4F82
:101EA0009F4F089557FD9058440F551F59F05F3FBD
:101EB00071F04795880F97FB991F61F09F3F79F06C
:101EC00087950895121613061406551FF2CF4695EE
:101ED000F1DF08C0161617061806991FF1CF869570
:101EE0007105610508940895E894BB276627772754
:101EF000CB0197F908958ADF08F48FEF08950BD08E
:101F0000C0CFB1DF28F0B6DF18F0952309F0A2CFDB
:101F1000A7CF1124EACFC6DFA0F3959FD1F3950F89
:101F200050E0551F629FF001729FBB27F00DB11D5D
:101F3000639FAA27F00DB11DAA1F649F6627B00DED
:101F4000A11D661F829F2227B00DA11D621F739FD6
:101F5000B00DA11D621F839FA00D611D221F749FE4
:101F60003327A00D611D231F849F600D211D822F2B
:101F7000762F6A2F11249F5750408AF0E1F0882372
:101F80004AF0EE0FFF1FBB1F661F771F881F91507F
:101F90005040A9F79E3F510570F05CCFA6CF5F3F40
:101FA000ECF3983EDCF3869577956795B795F795B2
:101FB000E7959F5FC1F7FE2B880F911D969587953A
:101FC00097F90895629FD001739FF001829FE00D01
:101FD000F11D649FE00DF11D929FF00D839FF00DA8
:101FE000749FF00D659FF00D9927729FB00DE11D54
:101FF000F91F639FB00DE11DF91FBD01CF01112431
:102000000895A1E21A2EAA1BBB1BFD010DC0AA1F39
:10201000BB1FEE1FFF1FA217B307E407F50720F051
:10202000A21BB30BE40BF50B661F771F881F991FCC
:102030001A9469F760957095809590959B01AC0115
:10204000BD01CF010895EE0FFF1F0590F491E02D23
:062050001994F894FFCF83
:10205600010000000000000000000000000000C8B1
:10206600420060EA4600000000050000000900008A
:102076000007000000000000000000803F00000094
:102086003F0AD7233C000000000AD7233C0000008B
:10209600000000000000007F430000803F000000B9
:1020A60000000000000200000020800000000095F3
:1020B600035C052B035C033C038503000000001A48
:0420C600054B0500C1
:00000001FF
