:100000000C9404010C942F060C9460060C94910639
:100010000C94C2060C94F3060C9424070C94550718
:100020000C9486070C9431010C9431010C9431012D
:100030000C9431010C9431010C9431010C94310178
:100040000C9431010C9431010C9431010C94310168
:100050000C9431010C9431010C9431010C94B707CC
:100060000C9431010C9433010C942F020C94310147
:100070000C9431010C9431010C9431010C94310138
:100080000C9431010C9431010C9431010C94310128
:100090000C9472010C946E020C9431010C94310199
:1000A0000C9431010C9431010C9431010C94310108
:1000B0000C9431010C9431010C9431010C943101F8
:1000C0000C9431010C9431010C9431010C94B10168
:1000D0000C94AD020C9431010C94F0010C94EC02E0
:1000E0000C94310100002100240027002A002D007B
:1000F0003000330001010000040107010A01000083
:100100002200250028002B002E00310034000201BF
:100110000000050108010B0100002000230026005B
:1001200029002C002F00320000010000030106010D
:10013000090105050505070508080808020202026D
:100140000A0A080804040404010101010101010173
:100150000303030303030303040707070C0C0C0C3E
:100160000C0C0C0C02020202060606060606060627
:100170000B0B0B0B0B0B0B0B0102102020080810B4
:100180002040102040800201020108040201010207
:1001900004081020408080402010080402018004E0
:1001A000020180402010080402010804020101023B
:1001B0000408102040800102040810204080000044
:1001C000090A02080B0C0D070603040100000000D9
:1001D000000000000000000000000000000000001F
:1001E0000000000000000000000011100F000000DF
:1001F00000000000000000000000000000000000FF
:1002000000000000D5030B0511241FBECFEFD1E283
:10021000DEBFCDBF00E00CBF12E0A0E0B2E0E4EC36
:10022000F3E200E00BBF02C007900D92AE38B107B9
:10023000D9F71BBE15E0AEE8B2E001C01D92A13AAD
:10024000B107E1F712E0C8E0D2E004C02297FE0156
:100250000E94DC11C430D107C9F70E944D0F0C94E5
:10026000E0110C9400001F920F920FB60F920BB684
:100270000F9211242F933F934F938F939F93EF935C
:10028000FF938091C00082FD1DC04091C600209167
:10029000CE023091CF022F5F3F4F2F73307080918D
:1002A000D0029091D1022817390771F0E091CE0267
:1002B000F091CF02E257FD4F40833093CF0220935D
:1002C000CE0202C08091C600FF91EF919F918F9165
:1002D0004F913F912F910F900BBE0F900FBE0F903B
:1002E0001F9018951F920F920FB60F920BB60F9298
:1002F00011242F933F934F938F939F93EF93FF93EB
:100300008091C80082FD1DC04091CE00209156030F
:10031000309157032F5F3F4F2F73307080915803F8
:10032000909159032817390771F0E0915603F09125
:100330005703EA5EFC4F40833093570320935603E4
:1003400002C08091CE00FF91EF919F918F914F91CC
:100350003F912F910F900BBE0F900FBE0F901F90EB
:1003600018951F920F920FB60F920BB60F92112491
:100370002F933F934F938F939F93EF93FF9380918E
:10038000D00082FD1DC04091D6002091DE03309147
:10039000DF032F5F3F4F2F7330708091E003909108
:1003A000E1032817390771F0E091DE03F091DF03D4
:1003B000E256FC4F40833093DF032093DE0302C0FC
:1003C0008091D600FF91EF919F918F914F913F9136
:1003D0002F910F900BBE0F900FBE0F901F9018958E
:1003E0001F920F920FB60F920BB60F9211242F93FC
:1003F0003F934F938F939F93EF93FF93809130019F
:1004000082FD1DC040913601209166043091670441
:100410002F5F3F4F2F733070809168049091690473
:100420002817390771F0E0916604F0916704EA5DDE
:10043000FB4F4083309367042093660402C0809191
:100440003601FF91EF919F918F914F913F912F91A5
:100450000F900BBE0F900FBE0F901F9018951F921C
:100460000F920FB60F920BB60F9211242F933F935A
:100470008F939F93EF93FF93209112033091130377
:1004800080911403909115032817390731F4809156
:10049000C1008F7D8093C10014C0E0911403F091DE
:1004A0001503EE52FD4F20818091140390911503A6
:1004B00001968F739070909315038093140320938B
:1004C000C600FF91EF919F918F913F912F910F90D7
:1004D0000BBE0F900FBE0F901F9018951F920F929A
:1004E0000FB60F920BB60F9211242F933F938F9359
:1004F0009F93EF93FF9320919A0330919B038091F8
:100500009C0390919D032817390731F48091C9000D
:100510008F7D8093C90014C0E0919C03F0919D03EE
:10052000E65AFC4F208180919C0390919D03019697
:100530008F73907090939D0380939C032093CE00C3
:10054000FF91EF919F918F913F912F910F900BBE53
:100550000F900FBE0F901F9018951F920F920FB61D
:100560000F920BB60F9211242F933F938F939F936B
:10057000EF93FF932091220430912304809124046F
:10058000909125042817390731F48091D1008F7D8F
:100590008093D10014C0E0912404F0912504EE5121
:1005A000FC4F2081809124049091250401968F7343
:1005B000907090932504809324042093D600FF919B
:1005C000EF919F918F913F912F910F900BBE0F90C4
:1005D0000FBE0F901F9018951F920F920FB60F929B
:1005E0000BB60F9211242F933F938F939F93EF930A
:1005F000FF932091AA043091AB048091AC049091B8
:10060000AD042817390731F4809131018F7D809333
:10061000310114C0E091AC04F091AD04E659FB4FF8
:1006200020818091AC049091AD0401968F739070FD
:100630009093AD048093AC0420933601FF91EF9129
:100640009F918F913F912F910F900BBE0F900FBEF6
:100650000F901F901895DC011C96ED91FC911D9751
:10066000E05CFF4F2191319180819181281B390BF2
:100670002F733070C9010895DC011C96ED91FC9137
:100680001D97E05CFF4F20813181E054F040DF0195
:10069000AE5BBF4F8D919C9111972817390719F4C4
:1006A0002FEF3FEF07C08D919C91E80FF91F8081DC
:1006B000282F30E0C9010895DC011C96ED91FC91D2
:1006C0001D97E05CFF4F20813181E054F040DF0155
:1006D000AE5BBF4F8D919C9111972817390719F484
:1006E0002FEF3FEF10C08D919C911197E80FF91FEC
:1006F00020818D919C91119701968F739070119626
:100700009C938E9330E0C9010895DC0191968C9101
:100710009197882339F05496ED91FC9155978081FB
:1007200086FFF9CF91961C920895CF93DF93EC0149
:10073000EE85FF85E05CFF4F20813181E054F04081
:100740002F5F3F4F2F733070DF01AE5BBF4F8D9136
:100750009C91119728173907D1F3E05CFF4F8081F6
:100760009181E054F040E80FF91F6083EE85FF852A
:10077000E05CFF4F31832083EE89FF89208181E097
:1007800090E00F8C02C0880F991F0A94E2F7282B83
:10079000208381E089A3EC89FD8980818064808346
:1007A00081E090E0DF91CF9108951F931092B10402
:1007B0001092B00428EE33E040E050E02093B20401
:1007C0003093B3044093B4045093B50463E772E0EC
:1007D0007093AF046093AE048EE892E09093BB04F4
:1007E0008093BA0482ED92E09093BD048093BC04A0
:1007F00085EC90E09093BF048093BE0484EC90E07D
:100800009093C1048093C00480EC90E09093C30463
:100810008093C20481EC90E09093C5048093C4045B
:1008200082EC90E09093C7048093C60486EC90E03D
:100830009093C9048093C80414E01093CA04B3E0F1
:10084000B093CB04A7E0A093CC04F5E0F093CD04E3
:10085000E1E0E093CE041092D3041092D2042093EE
:10086000D4043093D5044093D6045093D7047093A6
:10087000D1046093D00486E193E09093DD048093EB
:10088000DC048AE593E09093DF048093DE048DEC32
:1008900090E09093E1048093E0048CEC90E09093DE
:1008A000E3048093E20488EC90E09093E504809365
:1008B000E40489EC90E09093E7048093E6048AECEA
:1008C00090E09093E9048093E8048EEC90E090939C
:1008D000EB048093EA041093EC04B093ED04A0932E
:1008E000EE04F093EF04E093F0041092F5041092FC
:1008F000F4042093F6043093F7044093F8045093E3
:10090000F9047093F3046093F2048EE993E09093FA
:10091000FF048093FE0482EE93E0909301058093A0
:10092000000585ED90E0909303058093020584ED2A
:1009300090E0909305058093040580ED90E09093FE
:1009400007058093060581ED90E09093090580935B
:10095000080582ED90E090930B0580930A0586EDE3
:1009600090E090930D0580930C0510930E05B093C5
:100970000F05A0931005F0931105E0931205109256
:10098000170510921605209318053093190540930A
:100990001A0550931B05709315056093140586E2A4
:1009A00094E090932105809320058AE694E090934B
:1009B00023058093220585E391E09093250580939C
:1009C000240584E391E0909327058093260580E336
:1009D00091E0909329058093280581E391E090931D
:1009E0002B0580932A0582E391E090932D05809357
:1009F0002C0586E391E090932F0580932E051093AC
:100A00003005B0933105A0933205F0933305E093A0
:100A100034051F91089583E892E090933705809301
:100A20003605109238051092390510923A05109249
:100A30003B0508958F929F92AF92BF92CF92DF9223
:100A4000EF92FF920F931F93CF93DF934C016B01B3
:100A50007C01AA24BB24C0E0D0E0C601F70162817A
:100A60004AE050E00E941D068C01C6016EE20E9421
:100A70008605080F191FA00EB11E21960894E11CCF
:100A8000F11CC330D10549F7C601F40165814AE084
:100A900050E00E941D069501280F391FC901DF9102
:100AA000CF911F910F91FF90EF90DF90CF90BF906B
:100AB000AF909F908F900895CF92DF92EF92FF9228
:100AC0000F931F93CF93DF937C016B018A01C0E0EA
:100AD000D0E00FC0D6016D916D01D701ED91FC9171
:100AE0000190F081E02DC7011995C80FD91F015061
:100AF00010400115110571F7CE01DF91CF911F91C3
:100B00000F91FF90EF90DF90CF900895DC01ED9171
:100B1000FC910190F081E02D19950895CF93DF931A
:100B2000EC016115710519F420E030E00FC0DB0124
:100B30000D900020E9F71197A61BB70BE881F9810A
:100B40000280F381E02DAD0119959C01C901DF916F
:100B5000CF9108954F925F927F928F929F92AF9222
:100B6000BF92CF92DF92EF92FF920F931F93DF938A
:100B7000CF93CDB7DEB7A1970FB6F894DEBF0FBE07
:100B8000CDBF2C01742ECB01223008F42AE019A22B
:100B900031E2C32ED12CCC0EDD1E822E9924AA2444
:100BA000BB24672D752FA50194010E94B81179010E
:100BB0008A01C801B701A50194010E949911472D2E
:100BC000461B0894C108D1084A3014F4405D01C0A6
:100BD000495CF6014083E114F1040105110521F09F
:100BE0007E2C5F2DC801DDCFC201B6010E948E05AB
:100BF000A1960FB6F894DEBF0FBECDBFCF91DF91A7
:100C00001F910F91FF90EF90DF90CF90BF90AF902A
:100C10009F908F907F905F904F900895DC012115F9
:100C2000310541F4ED91FC910190F081E02D642FAC
:100C3000199508950E94AA050895EF92FF920F93C7
:100C40001F939A01E62EFF2400E010E0B801A701EF
:100C50000E940E061F910F91FF90EF9008951F9232
:100C60000F920FB60F920BB60F9211242F933F9352
:100C70004F935F936F937F938F939F93AF93BF93A4
:100C8000EF93FF938091400590914105892B29F0C6
:100C9000E0914005F09141051995FF91EF91BF91C9
:100CA000AF919F918F917F916F915F914F913F9104
:100CB0002F910F900BBE0F900FBE0F901F901895A5
:100CC0001F920F920FB60F920BB60F9211242F9313
:100CD0003F934F935F936F937F938F939F93AF93C4
:100CE000BF93EF93FF938091420590914305892B29
:100CF00029F0E0914205F09143051995FF91EF919C
:100D0000BF91AF919F918F917F916F915F914F9123
:100D10003F912F910F900BBE0F900FBE0F901F9021
:100D200018951F920F920FB60F920BB60F921124C7
:100D30002F933F934F935F936F937F938F939F93E3
:100D4000AF93BF93EF93FF93809144059091450536
:100D5000892B29F0E0914405F09145051995FF9103
:100D6000EF91BF91AF919F918F917F916F915F9123
:100D70004F913F912F910F900BBE0F900FBE0F9090
:100D80001F9018951F920F920FB60F920BB60F92ED
:100D900011242F933F934F935F936F937F938F9380
:100DA0009F93AF93BF93EF93FF93809146059091EC
:100DB0004705892B29F0E0914605F09147051995E3
:100DC000FF91EF91BF91AF919F918F917F916F9123
:100DD0005F914F913F912F910F900BBE0F900FBEDF
:100DE0000F901F9018951F920F920FB60F920BB68F
:100DF0000F9211242F933F934F935F936F937F93A1
:100E00008F939F93AF93BF93EF93FF9380913C0594
:100E100090913D05892B29F0E0913C05F0913D052D
:100E20001995FF91EF91BF91AF919F918F917F9114
:100E30006F915F914F913F912F910F900BBE0F904B
:100E40000FBE0F901F9018951F920F920FB60F9222
:100E50000BB60F9211242F933F934F935F936F9391
:100E60007F938F939F93AF93BF93EF93FF93809163
:100E70003E0590913F05892B29F0E0913E05F091C8
:100E80003F051995FF91EF91BF91AF919F918F9180
:100E90007F916F915F914F913F912F910F900BBE7A
:100EA0000F900FBE0F901F9018951F920F920FB6C4
:100EB0000F920BB60F9211242F933F934F935F9392
:100EC0006F937F938F939F93AF93BF93EF93FF9312
:100ED0008091480590914905892B29F0E0914805BA
:100EE000F09149051995FF91EF91BF91AF919F91B5
:100EF0008F917F916F915F914F913F912F910F90C3
:100F00000BBE0F900FBE0F901F9018951F920F925F
:100F10000FB60F920BB60F9211242F933F934F935E
:100F20005F936F937F938F939F93AF93BF93EF9351
:100F3000FF9380914A0590914B05892B29F0E09110
:100F40004A05F0914B051995FF91EF91BF91AF9133
:100F50009F918F917F916F915F914F913F912F91D1
:100F60000F900BBE0F900FBE0F901F9018951F9201
:100F70000F920FB60F9211242F933F938F939F934D
:100F8000AF93BF938091500590915105A091520568
:100F9000B0915305309154050196A11DB11D232F29
:100FA0002D5F2D3720F02D570196A11DB11D2093E7
:100FB00054058093500590935105A0935205B0932A
:100FC000530580914C0590914D05A0914E05B0912F
:100FD0004F050196A11DB11D80934C0590934D05C1
:100FE000A0934E05B0934F05BF91AF919F918F9104
:100FF0003F912F910F900FBE0F901F9018959FB7A4
:10100000F89420914C0530914D0540914E0550913A
:101010004F0586B5A89B06C08F3F21F02F5F3F4F3D
:101020004F4F5F4F9FBF542F432F322F2227280F40
:10103000311D411D511D82E0220F331F441F551FDA
:101040008A95D1F7B901CA010895789484B5826070
:1010500084BD84B5816084BD85B5826085BD85B55C
:10106000816085BDEEE6F0E0808181608083E1E80B
:10107000F0E0108280818260808380818160808343
:10108000E0E8F0E0808181608083E1EBF0E0808146
:1010900084608083E0EBF0E0808181608083E1E91F
:1010A000F0E0808182608083808181608083E0E9DC
:1010B000F0E0808181608083E1EAF0E080818260FD
:1010C0008083808181608083E0EAF0E080818160BC
:1010D0008083E1E2F1E080818260808380818160B1
:1010E0008083E0E2F1E0808181608083EAE7F0E0E4
:1010F0008081846080838081826080838081816040
:1011000080838081806880831092C1000895382F89
:10111000863308F0365320917B00832F8695869581
:10112000869590E08170907043E0880F991F4A95F2
:10113000E1F7277F282B20937B00377080910002F6
:101140008295880F880F807C832B80937C00809110
:101150007A00806480937A0080917A0086FDFCCFCB
:101160002091780040917900942F80E030E0282B86
:10117000392BC90108951F93CF93DF93182FEB01EB
:1011800061E00E949B09209709F4CAC0CF3FD105B6
:1011900009F4C9C0E12FF0E0E254FE4F8491893098
:1011A00009F466C08A30B0F48430F1F1853040F43F
:1011B000823059F1833070F5813009F0AEC020C023
:1011C000873009F443C0883008F048C0863009F001
:1011D000A4C034C08D3009F478C08E3038F48B3020
:1011E00009F45AC08C3008F066C04CC0803109F454
:1011F00080C0813109F487C08F3009F08EC06FC084
:1012000084B5806884BDC7BD92C084B5806284BD4A
:10121000C8BD8DC080918000806880938000D0938D
:101220008900C093880083C0809180008062809391
:101230008000D0938B00C0938A0079C08091B00069
:1012400080688093B000C093B30071C08091B000FB
:1012500080628093B000C093B40069C08091900018
:10126000806880939000D0939900C09398005FC0ED
:1012700080919000806280939000D0939B00C093F7
:101280009A0055C080919000886080939000D09320
:101290009D00C0939C004BC08091A000806880930B
:1012A000A0008091A0008F7B8093A000D093A90024
:1012B000C093A8003CC08091A00080628093A000F1
:1012C000D093AB00C093AA0032C08091A000886088
:1012D0008093A000D093AD00C093AC0028C0809153
:1012E0002001806880932001D0932901C0932801B8
:1012F0001EC080912001806280932001D0932B0139
:10130000C0932A0114C0809120018860809320013D
:10131000D0932D01C0932C010AC0C038D1051CF414
:10132000812F60E002C0812F61E00E944E0ADF91B0
:10133000CF911F910895CF93DF93482F50E0CA01BA
:1013400088589E4FFC0134914E5C5E4FFA018491A7
:10135000882369F190E0880F991FFC01EC51FF4F41
:10136000A591B491FC01E250FF4FC591D491662341
:1013700051F42FB7F8948C91932F909589238C93E7
:10138000888189230BC0623061F42FB7F8948C9167
:10139000932F909589238C938881832B88832FBFEB
:1013A00006C09FB7F8948C91832B8C939FBFDF91DD
:1013B000CF910895893009F449C08A30A0F484306F
:1013C00051F1853040F4823079F1833000F581307D
:1013D00009F063C026C0873079F1883098F58630EF
:1013E00009F05BC025C08D3009F442C08E3028F46E
:1013F0008B30B1F18C30C0F52DC0803109F442C082
:10140000813109F445C08F3009F047C037C0809161
:1014100080008F7703C0809180008F7D8093800053
:10142000089584B58F7702C084B58F7D84BD0895FB
:101430008091B0008F7703C08091B0008F7D809342
:10144000B0000895809190008F7707C08091900040
:101450008F7D03C080919000877F809390000895D6
:101460008091A0008F7707C08091A0008F7D03C07E
:101470008091A000877F8093A00008958091200133
:101480008F7703C0809120018F7D80932001089584
:1014900080912001877F809320010895FF920F9310
:1014A0001F93F62E482F50E0CA0182549E4FFC0134
:1014B0002491CA0188589E4FFC0114914E5C5E4FE6
:1014C000FA0104910023C9F0222319F0822F0E940F
:1014D000DA09E02FF0E0EE0FFF1FE250FF4FA59179
:1014E000B4919FB7F894FF2021F48C91109581233B
:1014F00002C08C91812B8C939FBF1F910F91FF9005
:101500000895862F60E00E949B09089580916105EF
:1015100090916205A0916305B09164058093730575
:1015200090937405A0937505B093760580915D0541
:1015300090915E05A0915F05B0916005809377055D
:1015400090937805A0937905B0937A058091690509
:1015500090916A05A0916B05B0916C0580937B0515
:1015600090937C05A0937D05B0937E056091490220
:1015700070914A0280914B0290914C022091590542
:1015800030915A0540915B0550915C050E943611DF
:101590009B01AC0160917F05709180058091810570
:1015A000909182050E94E70F60937F0570938005FC
:1015B000809381059093820560915102709152024F
:1015C0008091530290915402209155053091560517
:1015D00040915705509158050E9436119B01AC016E
:1015E00060918305709184058091850590918605B1
:1015F0000E94E70F609383057093840580938505AF
:101600009093860580916F0590917005A09171056A
:10161000B09172050196A11DB11D80936F05909345
:101620007005A0937105B09372050895089584E044
:1016300090E00E94A90F8091990590919A05A09140
:101640009B05B0919C058093090290930A02A09398
:101650000B02B0930C028091910590919205A0919C
:101660009305B09194058093150290931602A09370
:101670001702B093180286E0EDE6F5E0DF011D9257
:101680008A95E9F788E1E5E5F5E0DF011D928A95A5
:10169000E9F786E1E3E7F5E0DF011D928A95E9F7D6
:1016A0006091690270916A0280916B0290916C0264
:1016B0000E94810A8091190261E00E949B09809139
:1016C0001D0261E00E949B098091290290912A02EB
:1016D000A0912B02B0912C02809373059093740516
:1016E000A0937505B09376058091390290913A02E6
:1016F000A0913B02B0913C028093770590937805CE
:10170000A0937905B0937A0580913D0290913E02B5
:10171000A0913F02B091400280937B0590937C059D
:10172000A0937D05B0937E051092870510928805E1
:1017300080914D0290914E02A0914F02B0915002C3
:1017400080937F0590938005A0938105B0938205D7
:101750008091550290915602A0915702B091580283
:101760008093830590938405A0938505B0938605A7
:1017700008952F923F924F925F926F927F928F9235
:101780009F92AF92BF92CF92DF92EF92FF920F9310
:101790001F93DF93CF93CDB7DEB760970FB6F89462
:1017A000DEBF0FBECDBF809169020E9487086C0129
:1017B00060916F057091700580917105909172052F
:1017C0000E9480102AE037ED43E25CE30E9436116C
:1017D00020912D0230912E0240912F025091300223
:1017E0000E944B1088234CF4E0903102F0903202BA
:1017F000009133021091340208C0E0903502F0905D
:10180000360200913702109138026091770570918D
:1018100078058091790590917A0520917B0530912A
:101820007C0540917D0550917E050E94E60F9F77D3
:101830002091410230914202409143025091440272
:101840000E944B1087FD05C020E030E040E050E0F2
:1018500004C020E030E040E85FE380918705882302
:1018600021F481E0809387054CC0C801B7010E9434
:1018700036117B018C0180918805813019F082300E
:10188000B1F50BC0C801B70120E030E040E85FE3EC
:101890000E944B10882371F034C0C801B70120E0CA
:1018A00030E040E85FE30E944B10882391F481E030
:1018B000809388056091730570917405809175051A
:1018C0009091760520E030E040E85FE30E94E70F6A
:1018D0003AC0C801B70120E030E040E85FEB0E9469
:1018E0004B108823C1F583E0809388051EC0C80192
:1018F000B70120E030E040E85FEB0E944B10882306
:10190000A1F082E080938805809173059091740521
:10191000A0917505B0917605809365059093660555
:10192000A0936705B093680516C060917305709128
:101930007405809175059091760520E030E040E8CF
:101940005FE30E94E60F60936505709366058093E0
:10195000670590936805E0906505F0906605009135
:10196000670510916805E0926105F09262050093A9
:10197000630510936405C801B70120E030E040EC36
:1019800050E40E943211181664F480E090E0A0E860
:10199000BFE38093610590936205A0936305B093C4
:1019A0006405C801B70120E030E040E85FE30E9431
:1019B0004B10882364F480E090E0A0ECB0E48093C6
:1019C000610590936205A0936305B0936405E09070
:1019D0006105F09062050091630510916405C801EE
:1019E000B70120E030E040E85FE30E944B1088231D
:1019F0005CF40F2EF0E0EF2EF0E0FF2EF0E80F2F5A
:101A0000FFE31F2FF02D14C0C801B70120E030E024
:101A100040EC50E40E943211181654F40F2EF0E0FE
:101A2000EF2EF0E0FF2EF0EC0F2FF0E41F2FF02D43
:101A3000C801B7010E944F10DC01CB018A579D4FAE
:101A4000DC016C91772767FD7095872F972F0E9497
:101A500082106093690570936A0580936B0590937B
:101A60006C05209145023091460240914702509109
:101A700048020E9436117B018C01B60180E090E0A3
:101A800020916D0230916E0240E050E00E94991169
:101A90000E94801020E030E040E053EB0E943611BD
:101AA0009B01AC01C801B7010E94E70F1B012C018B
:101AB00020910102309102024091030250910402F0
:101AC0000E9436112091830530918405409185054F
:101AD000509186050E94E60F20910D0230910E0272
:101AE00040910F02509110020E9436117B018C012F
:101AF000609355057093560580935705909358054C
:101B0000C201B101209111023091120240911302E1
:101B1000509114020E94361120917F05309180056A
:101B200040918105509182050E94E70FA80197011D
:101B30000E94E70F3B014C01E0901502F090160265
:101B40000091170210911802A80197010E9432110A
:101B5000181694F0E0900902F0900A0200910B022E
:101B600010910C02C401B301A80197010E944B100F
:101B700087FD02C084017301C801B7012091590299
:101B800030915A0240915B0250915C020E943211E6
:101B900088234CF0A0902502B0902602C090270226
:101BA000D090280208C0A0902102B0902202C090DC
:101BB0002302D0902402C801B701A60195010E941A
:101BC00036116D837E838F83988720E030E040E874
:101BD00053E40E944B1087FD02C06FEF14C06D816B
:101BE0007E818F81988520E030E040E050E00E94C7
:101BF000321187FF02C060E006C06D817E818F8157
:101C000098850E9454108091190270E00E94BB08D0
:101C1000C601B50120915D0230915E0240915F02E4
:101C2000509160020E94E60F9B01AC01C801B70110
:101C30000E9436119B01AC015F7729833A834B8365
:101C40005C83CA01B90120E030E040E853E40E941F
:101C50004B1087FD02C06FEF06C069817A818B81CE
:101C60009C810E94541080911D0270E00E94BB086C
:101C70008091610290916202A0916302B09164022E
:101C800089879A87AB87BC87E0901502F09016028F
:101C90000091170210911802C401B301A801970125
:101CA0000E9432111816DCF0E0900902F0900A024E
:101CB00000910B0210910C02C401B301A80197011D
:101CC0000E94321188235CF00F2EF0E0EF2EF0E03E
:101CD000FF2EF0E00F2FF0E01F2FF02D08C0C40101
:101CE000B301A80197010E94E60F7B018C01C2019C
:101CF000B1012091050230910602409107025091F6
:101D000008020E9436115B016C01C801B70120E096
:101D100030E040E050E00E944B1088233CF41D86E8
:101D20001E8690E89F87AFEBA88B26C0C801B7013D
:101D300020E030E040E050E00E94321118163CF400
:101D40001D861E86B0E8BF87EFE3E88B15C0C8018B
:101D5000B70120E030E040E050E00E944B108823C3
:101D600039F0D801C701ED869E87AF87B88B04C0D4
:101D70001D861E861F86188AC601B50120E030E048
:101D800040E050E00E944B1088233CF4222433248E
:101D900030E8432E2FEB522E24C0C601B50120E0BF
:101DA00030E040E050E00E94321118163CF422244A
:101DB000332490E8492E8FE3582E13C0C601B50195
:101DC00020E030E040E050E00E944B10882329F0F2
:101DD000D601C50115012D0104C022243324442459
:101DE000552469857A858B859C85A40193010E9481
:101DF0003611A80197010E944B108823D9F06D85F8
:101E00007E858F8598899101A2010E944B108823BD
:101E100089F48091650290916602A0916702B09169
:101E200068028093590590935A05A0935B05B0937F
:101E30005C0508C0A0925905B0925A05C0925B0596
:101E4000D0925C056D817E818F81988529813A8150
:101E50004B815C810E94E70F60935D0570935E0586
:101E600080935F059093600560960FB6F894DEBF8F
:101E70000FBECDBFCF91DF911F910F91FF90EF90DB
:101E8000DF90CF90BF90AF909F908F907F906F909A
:101E90005F904F903F902F900895AF92BF92CF9256
:101EA000DF92EF92FF920F931F93CF93DF930E94E5
:101EB00025080E94170BC0918502D0918602AA24A2
:101EC000BB24650115C00E94FF077B018C01DC016A
:101ED000CB018A199B09AC09BD0980519742A040EA
:101EE000B04030F00E94B90B0E94860A5701680189
:101EF00088819981892B39F30E94160B80E090E04C
:101F0000DF91CF911F910F91FF90EF90DF90CF90D5
:101F1000BF90AF90089560E070E080E89FE708957B
:101F200060E070E080E89FE7089560E070E080E89E
:101F30009FEF089560E070E080E89FEF089560E013
:101F400070E080EC9FEF089560E070E080EC9FEF20
:101F500008950E949F0F6093950570939605809356
:101F60009705909398050E94A40F6093890570933C
:101F70008A0580938B0590938C050E948B0F60934C
:101F800091057093920580939305909394050E9418
:101F9000900F60938D0570938E0580938F059093BD
:101FA00090050E94950F6093990570939A05809310
:101FB0009B0590939C050E949A0F60939D057093DA
:101FC0009E0580939F059093A00508955058BB27C8
:101FD000AA270ED00DC1FED030F003D120F031F48D
:101FE0009F3F11F41EF4F3C00EF4E095E7FBE9C047
:101FF000E92F0FD180F3BA1762077307840795079B
:1020000018F071F49EF527C10EF4E0950B2EBA2F4F
:10201000A02D0B01B90190010C01CA01A0011124EE
:10202000FF27591B99F0593F50F4503E68F11A169A
:10203000F040A22F232F342F4427585FF3CF46952B
:1020400037952795A795F0405395C9F77EF41F164D
:10205000BA0B620B730B840BBAF09150A1F0FF0F17
:10206000BB1F661F771F881FC2F70EC0BA0F621F03
:10207000731F841F48F4879577956795B795F795F3
:102080009E3F08F0B3CF9395880F08F09927EE0F85
:1020900097958795089571D008F481E0089504D04C
:1020A0006894B111D9C00895BCD088F09F5790F0C2
:1020B000B92F9927B751A0F0D1F0660F771F881F6D
:1020C000991F1AF0BA95C9F712C0B13081F0C3D088
:1020D000B1E00895C0C0672F782F8827B85F39F026
:1020E000B93FCCF3869577956795B395D9F73EF4CC
:1020F00090958095709561957F4F8F4F9F4F089574
:10210000E89409C097FB3EF4909580957095619591
:102110007F4F8F4F9F4F9923A9F0F92F96E9BB2747
:102120009395F695879577956795B795F111F8CFC3
:10213000FAF4BB0F11F460FF1BC06F5F7F4F8F4F2E
:102140009F4F16C0882311F096E911C0772321F024
:102150009EE8872F762F05C0662371F096E8862FBC
:1021600070E060E02AF09A95660F771F881FDAF713
:10217000880F9695879597F90895990F0008550F40
:10218000AA0BE0E8FEEF16161706E807F907C0F0FD
:1021900012161306E407F50798F0621B730B840B05
:1021A000950B39F40A2661F0232B242B252B21F4DF
:1021B00008950A2609F4A140A6958FEF811D811D7F
:1021C000089597F99F6780E870E060E008959FEFB9
:1021D00080EC089500240A941616170618060906BE
:1021E000089500240A94121613061406050608958D
:1021F000092E0394000C11F4882352F0BB0F40F415
:10220000BF2B11F460FF04C06F5F7F4F8F4F9F4F54
:10221000089557FD9058440F551F59F05F3F71F0D6
:102220004795880F97FB991F61F09F3F79F087953D
:102230000895121613061406551FF2CF4695F1DFC6
:1022400008C0161617061806991FF1CF8695710556
:10225000610508940895E894BB2766277727CB018A
:1022600097F908958ADF08F48FEF08950BD0C0CF57
:10227000B1DF28F0B6DF18F0952309F0A2CFA7CF81
:102280001124EACFC6DFA0F3959FD1F3950F50E05C
:10229000551F629FF001729FBB27F00DB11D639F18
:1022A000AA27F00DB11DAA1F649F6627B00DA11DBE
:1022B000661F829F2227B00DA11D621F739FB00D64
:1022C000A11D621F839FA00D611D221F749F3327D4
:1022D000A00D611D231F849F600D211D822F762F6D
:1022E0006A2F11249F5750408AF0E1F088234AF06A
:1022F000EE0FFF1FBB1F661F771F881F91505040B6
:10230000A9F79E3F510570F05CCFA6CF5F3FECF37D
:10231000983EDCF3869577956795B795F795E795A1
:102320009F5FC1F7FE2B880F911D9695879597F9B2
:102330000895629FD001739FF001829FE00DF11D0F
:10234000649FE00DF11D929FF00D839FF00D749F2F
:10235000F00D659FF00D9927729FB00DE11DF91FDB
:10236000639FB00DE11DF91FBD01CF011124089538
:10237000A1E21A2EAA1BBB1BFD010DC0AA1FBB1F89
:10238000EE1FFF1FA217B307E407F50720F0A21BFB
:10239000B30BE40BF50B661F771F881F991F1A9468
:1023A00069F760957095809590959B01AC01BD0192
:1023B000CF010895EE0FFF1F0590F491E02D1994C1
:0423C000F894FFCFBF
:1023C40001000000000000C841000000000000C837
:1023D4004200803B450000000005000000070000AB
:1023E40000000000000000803F000000000000002A
:1023F40000000000000000803F000000000000001A
:102404000000002041CDCC4C3E0AD7233C00000004
:10241400000AD7233C0000000000000000000080F8
:102424003F000000000000000002000000208000C7
:1024340000000095035C052B035C033C038503004B
:0E2444000000001A056D0501020304030200EA
:00000001FF
