:100000000C9404010C942F060C9460060C94910639
:100010000C94C2060C94F3060C9424070C94550718
:100020000C9486070C9431010C9431010C9431012D
:100030000C9431010C9431010C9431010C94310178
:100040000C9431010C9431010C9431010C94310168
:100050000C9431010C9431010C9431010C94B707CC
:100060000C9431010C9433010C942F020C94310147
:100070000C9431010C9431010C9431010C94310138
:100080000C9431010C9431010C9431010C94310128
:100090000C9472010C946E020C9431010C94310199
:1000A0000C9431010C9431010C9431010C94310108
:1000B0000C9431010C9431010C9431010C943101F8
:1000C0000C9431010C9431010C9431010C94B10168
:1000D0000C94AD020C9431010C94F0010C94EC02E0
:1000E0000C94310100002100240027002A002D007B
:1000F0003000330001010000040107010A01000083
:100100002200250028002B002E00310034000201BF
:100110000000050108010B0100002000230026005B
:1001200029002C002F00320000010000030106010D
:10013000090105050505070508080808020202026D
:100140000A0A080804040404010101010101010173
:100150000303030303030303040707070C0C0C0C3E
:100160000C0C0C0C02020202060606060606060627
:100170000B0B0B0B0B0B0B0B0102102020080810B4
:100180002040102040800201020108040201010207
:1001900004081020408080402010080402018004E0
:1001A000020180402010080402010804020101023B
:1001B0000408102040800102040810204080000044
:1001C000090A02080B0C0D070603040100000000D9
:1001D000000000000000000000000000000000001F
:1001E0000000000000000000000011100F000000DF
:1001F00000000000000000000000000000000000FF
:1002000000000000D5030B0511241FBECFEFD1E283
:10021000DEBFCDBF00E00CBF12E0A0E0B2E0E4E240
:10022000F4E100E00BBF02C007900D92A232B107CB
:10023000D9F71BBE14E0A2E2B2E001C01D92AB3EB2
:10024000B107E1F712E0C8E0D2E004C02297FE0156
:100250000E940C0AC430D107C9F70E948B090C9484
:10026000100A0C9400001F920F920FB60F920BB65B
:100270000F9211242F933F934F938F939F93EF935C
:10028000FF938091C00082FD1DC04091C600209167
:100290006202309163022F5F3F4F2F733070809165
:1002A0006402909165022817390771F0E0916202AB
:1002B000F0916302EE5DFD4F408330936302209323
:1002C000620202C08091C600FF91EF919F918F91D1
:1002D0004F913F912F910F900BBE0F900FBE0F903B
:1002E0001F9018951F920F920FB60F920BB60F9298
:1002F00011242F933F934F938F939F93EF93FF93EB
:100300008091C80082FD1DC04091CE002091EA027C
:100310003091EB022F5F3F4F2F7330708091EC02D2
:100320009091ED022817390771F0E091EA02F091FF
:10033000EB02E655FD4F40833093EB022093EA0237
:1003400002C08091CE00FF91EF919F918F914F91CC
:100350003F912F910F900BBE0F900FBE0F901F90EB
:1003600018951F920F920FB60F920BB60F92112491
:100370002F933F934F938F939F93EF93FF9380918E
:10038000D00082FD1DC04091D600209172033091B3
:1003900073032F5F3F4F2F733070809174039091E0
:1003A00075032817390771F0E0917203F091730318
:1003B000EE5CFC4F4083309373032093720302C0C2
:1003C0008091D600FF91EF919F918F914F913F9136
:1003D0002F910F900BBE0F900FBE0F901F9018958E
:1003E0001F920F920FB60F920BB60F9211242F93FC
:1003F0003F934F938F939F93EF93FF93809130019F
:1004000082FD1DC0409136012091FA033091FB031B
:100410002F5F3F4F2F7330708091FC039091FD034D
:100420002817390771F0E091FA03F091FB03E654C5
:10043000FC4F40833093FB032093FA0302C080916A
:100440003601FF91EF919F918F914F913F912F91A5
:100450000F900BBE0F900FBE0F901F9018951F921C
:100460000F920FB60F920BB60F9211242F933F935A
:100470008F939F93EF93FF932091A6023091A70251
:100480008091A8029091A9022817390731F4809130
:10049000C1008F7D8093C10014C0E091A802F0914B
:1004A000A902EA59FD4F20818091A8029091A902EA
:1004B00001968F7390709093A9028093A802209365
:1004C000C600FF91EF919F918F913F912F910F90D7
:1004D0000BBE0F900FBE0F901F9018951F920F929A
:1004E0000FB60F920BB60F9211242F933F938F9359
:1004F0009F93EF93FF9320912E0330912F038091D0
:100500003003909131032817390731F48091C900E5
:100510008F7D8093C90014C0E0913003F0913103C6
:10052000E251FD4F2081809130039091310301967B
:100530008F73907090933103809330032093CE009B
:10054000FF91EF919F918F913F912F910F900BBE53
:100550000F900FBE0F901F9018951F920F920FB61D
:100560000F920BB60F9211242F933F938F939F936B
:10057000EF93FF932091B6033091B7038091B803B6
:100580009091B9032817390731F48091D1008F7DFC
:100590008093D10014C0E091B803F091B903EA58F8
:1005A000FC4F20818091B8039091B90301968F731D
:1005B00090709093B9038093B8032093D600FF9175
:1005C000EF919F918F913F912F910F900BBE0F90C4
:1005D0000FBE0F901F9018951F920F920FB60F929B
:1005E0000BB60F9211242F933F938F939F93EF930A
:1005F000FF9320913E0430913F04809140049091FC
:1006000041042817390731F4809131018F7D80939F
:10061000310114C0E0914004F0914104E250FC4FDC
:100620002081809140049091410401968F739070D5
:10063000909341048093400420933601FF91EF9101
:100640009F918F913F912F910F900BBE0F900FBEF6
:100650000F901F901895DC011C96ED91FC911D9751
:10066000E05CFF4F2191319180819181281B390BF2
:100670002F733070C9010895DC011C96ED91FC9137
:100680001D97E05CFF4F20813181E054F040DF0195
:10069000AE5BBF4F8D919C9111972817390719F4C4
:1006A0002FEF3FEF07C08D919C91E80FF91F8081DC
:1006B000282F30E0C9010895DC011C96ED91FC91D2
:1006C0001D97E05CFF4F20813181E054F040DF0155
:1006D000AE5BBF4F8D919C9111972817390719F484
:1006E0002FEF3FEF10C08D919C911197E80FF91FEC
:1006F00020818D919C91119701968F739070119626
:100700009C938E9330E0C9010895DC0191968C9101
:100710009197882339F05496ED91FC9155978081FB
:1007200086FFF9CF91961C920895CF93DF93EC0149
:10073000EE85FF85E05CFF4F20813181E054F04081
:100740002F5F3F4F2F733070DF01AE5BBF4F8D9136
:100750009C91119728173907D1F3E05CFF4F8081F6
:100760009181E054F040E80FF91F6083EE85FF852A
:10077000E05CFF4F31832083EE89FF89208181E097
:1007800090E00F8C02C0880F991F0A94E2F7282B83
:10079000208381E089A3EC89FD8980818064808346
:1007A00081E090E0DF91CF9108951F93109245046E
:1007B0001092440428EE33E040E050E020934604D9
:1007C0003093470440934804509349046DE072E02D
:1007D000709343046093420482E292E090934F044A
:1007E00080934E0486E692E09093510480935004E7
:1007F00085EC90E0909353048093520484EC90E055
:10080000909355048093540480EC90E090935704A7
:100810008093560481EC90E090935904809358049F
:1008200082EC90E090935B0480935A0486EC90E015
:1008300090935D0480935C0414E010935E04B3E035
:10084000B0935F04A7E0A0936004F5E0F093610427
:10085000E1E0E09362041092670410926604209332
:1008600068043093690440936A0450936B04709356
:100870006504609364048AEA92E090937104809323
:1008800070048EEE92E090937304809372048DEC6A
:1008900090E090937504809374048CEC90E09093B6
:1008A00077048093760488EC90E0909379048093A9
:1008B000780489EC90E090937B0480937A048AEC2E
:1008C00090E090937D0480937C048EEC90E0909374
:1008D0007F0480937E0410938004B0938104A093DE
:1008E0008204F0938304E0938404109289041092AC
:1008F000880420938A0430938B0440938C04509393
:100900008D04709387046093860482E393E0909350
:1009100093048093920486E793E0909395048093E8
:10092000940485ED90E0909397048093960484ED71
:1009300090E0909399048093980480ED90E09093D8
:100940009B0480939A0481ED90E090939D048093A2
:100950009C0482ED90E090939F0480939E0486ED2A
:1009600090E09093A1048093A0041093A204B0930C
:10097000A304A093A404F093A504E093A60410920A
:10098000AB041092AA042093AC043093AD044093BE
:10099000AE045093AF047093A9046093A8048AEB4B
:1009A00093E09093B5048093B4048EEF93E090931A
:1009B000B7048093B60485E391E09093B9048093E3
:1009C000B80484E391E09093BB048093BA0480E37D
:1009D00091E09093BD048093BC0481E391E09093F7
:1009E000BF048093BE0482E391E09093C10480939E
:1009F000C00486E391E09093C3048093C2041093F3
:100A0000C404B093C504A093C604F093C704E09354
:100A1000C8041F9108958DE192E09093CB048093D8
:100A2000CA041092CC041092CD041092CE041092FD
:100A3000CF0408958F929F92AF92BF92CF92DF9290
:100A4000EF92FF920F931F93CF93DF934C016B01B3
:100A50007C01AA24BB24C0E0D0E0C601F70162817A
:100A60004AE050E00E941D068C01C6016EE20E9421
:100A70008605080F191FA00EB11E21960894E11CCF
:100A8000F11CC330D10549F7C601F40165814AE084
:100A900050E00E941D069501280F391FC901DF9102
:100AA000CF911F910F91FF90EF90DF90CF90BF906B
:100AB000AF909F908F900895CF92DF92EF92FF9228
:100AC0000F931F93CF93DF937C016B018A01C0E0EA
:100AD000D0E00FC0D6016D916D01D701ED91FC9171
:100AE0000190F081E02DC7011995C80FD91F015061
:100AF00010400115110571F7CE01DF91CF911F91C3
:100B00000F91FF90EF90DF90CF900895DC01ED9171
:100B1000FC910190F081E02D19950895CF93DF931A
:100B2000EC016115710519F420E030E00FC0DB0124
:100B30000D900020E9F71197A61BB70BE881F9810A
:100B40000280F381E02DAD0119959C01C901DF916F
:100B5000CF9108954F925F927F928F929F92AF9222
:100B6000BF92CF92DF92EF92FF920F931F93DF938A
:100B7000CF93CDB7DEB7A1970FB6F894DEBF0FBE07
:100B8000CDBF2C01742ECB01223008F42AE019A22B
:100B900031E2C32ED12CCC0EDD1E822E9924AA2444
:100BA000BB24672D752FA50194010E94E8097901E6
:100BB0008A01C801B701A50194010E94C909472D06
:100BC000461B0894C108D1084A3014F4405D01C0A6
:100BD000495CF6014083E114F1040105110521F09F
:100BE0007E2C5F2DC801DDCFC201B6010E948E05AB
:100BF000A1960FB6F894DEBF0FBECDBFCF91DF91A7
:100C00001F910F91FF90EF90DF90CF90BF90AF902A
:100C10009F908F907F905F904F900895DC012115F9
:100C2000310541F4ED91FC910190F081E02D642FAC
:100C3000199508950E94AA050895EF92FF920F93C7
:100C40001F939A01E62EFF2400E010E0B801A701EF
:100C50000E940E061F910F91FF90EF9008951F9232
:100C60000F920FB60F920BB60F9211242F933F9352
:100C70004F935F936F937F938F939F93AF93BF93A4
:100C8000EF93FF938091D4049091D504892B29F0A0
:100C9000E091D404F091D5041995FF91EF91BF91A3
:100CA000AF919F918F917F916F915F914F913F9104
:100CB0002F910F900BBE0F900FBE0F901F901895A5
:100CC0001F920F920FB60F920BB60F9211242F9313
:100CD0003F934F935F936F937F938F939F93AF93C4
:100CE000BF93EF93FF938091D6049091D704892B03
:100CF00029F0E091D604F091D7041995FF91EF9176
:100D0000BF91AF919F918F917F916F915F914F9123
:100D10003F912F910F900BBE0F900FBE0F901F9021
:100D200018951F920F920FB60F920BB60F921124C7
:100D30002F933F934F935F936F937F938F939F93E3
:100D4000AF93BF93EF93FF938091D8049091D90410
:100D5000892B29F0E091D804F091D9041995FF91DD
:100D6000EF91BF91AF919F918F917F916F915F9123
:100D70004F913F912F910F900BBE0F900FBE0F9090
:100D80001F9018951F920F920FB60F920BB60F92ED
:100D900011242F933F934F935F936F937F938F9380
:100DA0009F93AF93BF93EF93FF938091DA04909159
:100DB000DB04892B29F0E091DA04F091DB0419952A
:100DC000FF91EF91BF91AF919F918F917F916F9123
:100DD0005F914F913F912F910F900BBE0F900FBEDF
:100DE0000F901F9018951F920F920FB60F920BB68F
:100DF0000F9211242F933F934F935F936F937F93A1
:100E00008F939F93AF93BF93EF93FF938091D00401
:100E10009091D104892B29F0E091D004F091D10474
:100E20001995FF91EF91BF91AF919F918F917F9114
:100E30006F915F914F913F912F910F900BBE0F904B
:100E40000FBE0F901F9018951F920F920FB60F9222
:100E50000BB60F9211242F933F934F935F936F9391
:100E60007F938F939F93AF93BF93EF93FF93809163
:100E7000D2049091D304892B29F0E091D204F0910F
:100E8000D3041995FF91EF91BF91AF919F918F91ED
:100E90007F916F915F914F913F912F910F900BBE7A
:100EA0000F900FBE0F901F9018951F920F920FB6C4
:100EB0000F920BB60F9211242F933F934F935F9392
:100EC0006F937F938F939F93AF93BF93EF93FF9312
:100ED0008091DC049091DD04892B29F0E091DC0401
:100EE000F091DD041995FF91EF91BF91AF919F9122
:100EF0008F917F916F915F914F913F912F910F90C3
:100F00000BBE0F900FBE0F901F9018951F920F925F
:100F10000FB60F920BB60F9211242F933F934F935E
:100F20005F936F937F938F939F93AF93BF93EF9351
:100F3000FF938091DE049091DF04892B29F0E091EA
:100F4000DE04F091DF041995FF91EF91BF91AF910D
:100F50009F918F917F916F915F914F913F912F91D1
:100F60000F900BBE0F900FBE0F901F9018951F9201
:100F70000F920FB60F9211242F933F938F939F934D
:100F8000AF93BF938091E4049091E504A091E604AF
:100F9000B091E7043091E8040196A11DB11D232F03
:100FA0002D5F2D3720F02D570196A11DB11D2093E7
:100FB000E8048093E4049093E504A093E604B093DE
:100FC000E7048091E0049091E104A091E204B091E3
:100FD000E3040196A11DB11D8093E0049093E10408
:100FE000A093E204B093E304BF91AF919F918F91DE
:100FF0003F912F910F900FBE0F901F9018959FB7A4
:10100000F8942091E0043091E1044091E204509181
:10101000E30486B5A89B06C08F3F21F02F5F3F4FAA
:101020004F4F5F4F9FBF542F432F322F2227280F40
:10103000311D411D511D82E0220F331F441F551FDA
:101040008A95D1F7B901CA010895789484B5826070
:1010500084BD84B5816084BD85B5826085BD85B55C
:10106000816085BDEEE6F0E0808181608083E1E80B
:10107000F0E0108280818260808380818160808343
:10108000E0E8F0E0808181608083E1EBF0E0808146
:1010900084608083E0EBF0E0808181608083E1E91F
:1010A000F0E0808182608083808181608083E0E9DC
:1010B000F0E0808181608083E1EAF0E080818260FD
:1010C0008083808181608083E0EAF0E080818160BC
:1010D0008083E1E2F1E080818260808380818160B1
:1010E0008083E0E2F1E0808181608083EAE7F0E0E4
:1010F0008081846080838081826080838081816040
:1011000080838081806880831092C1000895CF938E
:10111000DF93482F50E0CA0188589E4FFC0134915C
:101120004E5C5E4FFA018491882369F190E0880F4C
:10113000991FFC01EC51FF4FA591B491FC01E250C5
:10114000FF4FC591D491662351F42FB7F8948C9139
:10115000932F909589238C93888189230BC06230CB
:1011600061F42FB7F8948C91932F909589238C93E9
:101170008881832B88832FBF06C09FB7F8948C91FA
:10118000832B8C939FBFDF91CF910895893009F411
:1011900049C08A30A0F4843051F1853040F4823067
:1011A00079F1833000F5813009F063C026C08730C3
:1011B00079F1883098F5863009F05BC025C08D3014
:1011C00009F442C08E3028F48B30B1F18C30C0F578
:1011D0002DC0803109F442C0813109F445C08F30FF
:1011E00009F047C037C0809180008F7703C080919D
:1011F00080008F7D80938000089584B58F7702C032
:1012000084B58F7D84BD08958091B0008F7703C031
:101210008091B0008F7D8093B00008958091900000
:101220008F7707C0809190008F7D03C080919000E0
:10123000877F8093900008958091A0008F7707C0EA
:101240008091A0008F7D03C08091A000877F809354
:10125000A0000895809120018F7703C08091200124
:101260008F7D80932001089580912001877F809356
:1012700020010895FF920F931F93F62E482F50E000
:10128000CA0182549E4FFC012491CA0188589E4F86
:10129000FC0114914E5C5E4FFA0104910023C9F0E9
:1012A000222319F0822F0E94C608E02FF0E0EE0FF3
:1012B000FF1FE250FF4FA591B4919FB7F894FF2014
:1012C00021F48C911095812302C08C91812B8C93F9
:1012D0009FBF1F910F91FF90089508950895109258
:1012E000EA041092E9048091000261E00E948708FC
:1012F0008091040261E00E948708089580910002B5
:10130000609108020E943A098091040260910802EB
:101310000E943A090895AF92BF92CF92DF92EF9266
:10132000FF920F931F93CF93DF930E9425080E9493
:101330006F09C0911F02D0912002AA24BB2465012D
:1013400015C00E94FF077B018C01DC01CB018A19CB
:101350009B09AC09BD098055934CA040B04030F0CA
:101360000E947E090E946D09570168018881998158
:10137000892B39F30E946E0980E090E0DF91CF91D4
:101380001F910F91FF90EF90DF90CF90BF90AF90A3
:101390000895629FD001739FF001829FE00DF11DBF
:1013A000649FE00DF11D929FF00D839FF00D749FDF
:1013B000F00D659FF00D9927729FB00DE11DF91F8B
:1013C000639FB00DE11DF91FBD01CF0111240895E8
:1013D000A1E21A2EAA1BBB1BFD010DC0AA1FBB1F39
:1013E000EE1FFF1FA217B307E407F50720F0A21BAB
:1013F000B30BE40BF50B661F771F881F991F1A9418
:1014000069F760957095809590959B01AC01BD0141
:10141000CF010895EE0FFF1F0590F491E02D199470
:04142000F894FFCF6E
:101424000B0000000C000000AE0000000095035CFF
:10143400052B035C033C038503000000001A05E947
:021444000400A2
:00000001FF
