:100000000C9404010C942F060C9460060C94910639
:100010000C94C2060C94F3060C9424070C94550718
:100020000C9486070C9431010C9431010C9431012D
:100030000C9431010C9431010C9431010C94310178
:100040000C9431010C9431010C9431010C94310168
:100050000C9431010C9431010C9431010C94B707CC
:100060000C9431010C9433010C942F020C94310147
:100070000C9431010C9431010C9431010C94310138
:100080000C9431010C9431010C9431010C94310128
:100090000C9472010C946E020C9431010C94310199
:1000A0000C9431010C9431010C9431010C94310108
:1000B0000C9431010C9431010C9431010C943101F8
:1000C0000C9431010C9431010C9431010C94B10168
:1000D0000C94AD020C9431010C94F0010C94EC02E0
:1000E0000C94310100002100240027002A002D007B
:1000F0003000330001010000040107010A01000083
:100100002200250028002B002E00310034000201BF
:100110000000050108010B0100002000230026005B
:1001200029002C002F00320000010000030106010D
:10013000090105050505070508080808020202026D
:100140000A0A080804040404010101010101010173
:100150000303030303030303040707070C0C0C0C3E
:100160000C0C0C0C02020202060606060606060627
:100170000B0B0B0B0B0B0B0B0102102020080810B4
:100180002040102040800201020108040201010207
:1001900004081020408080402010080402018004E0
:1001A000020180402010080402010804020101023B
:1001B0000408102040800102040810204080000044
:1001C000090A02080B0C0D070603040100000000D9
:1001D000000000000000000000000000000000001F
:1001E0000000000000000000000011100F000000DF
:1001F00000000000000000000000000000000000FF
:1002000000000000D5030B0511241FBECFEFD1E283
:10021000DEBFCDBF00E00CBF12E0A0E0B2E0E2E83C
:10022000F7E100E00BBF02C007900D92A832B107C2
:10023000D9F71BBE14E0A8E2B2E001C01D92A13FB5
:10024000B107E1F712E0C8E0D2E004C02297FE0156
:100250000E94BB0BC430D107C9F70E94B90A0C94A5
:10026000BF0B0C9400001F920F920FB60F920BB6AB
:100270000F9211242F933F934F938F939F93EF935C
:10028000FF938091C00082FD1DC04091C600209167
:100290006802309169022F5F3F4F2F733070809159
:1002A0006A0290916B022817390771F0E091680299
:1002B000F0916902E85DFD4F40833093690220931D
:1002C000680202C08091C600FF91EF919F918F91CB
:1002D0004F913F912F910F900BBE0F900FBE0F903B
:1002E0001F9018951F920F920FB60F920BB60F9298
:1002F00011242F933F934F938F939F93EF93FF93EB
:100300008091C80082FD1DC04091CE002091F00276
:100310003091F1022F5F3F4F2F7330708091F202C6
:100320009091F3022817390771F0E091F002F091F3
:10033000F102E055FD4F40833093F1022093F0022B
:1003400002C08091CE00FF91EF919F918F914F91CC
:100350003F912F910F900BBE0F900FBE0F901F90EB
:1003600018951F920F920FB60F920BB60F92112491
:100370002F933F934F938F939F93EF93FF9380918E
:10038000D00082FD1DC04091D600209178033091AD
:1003900079032F5F3F4F2F73307080917A039091D4
:1003A0007B032817390771F0E0917803F091790306
:1003B000E85CFC4F4083309379032093780302C0BC
:1003C0008091D600FF91EF919F918F914F913F9136
:1003D0002F910F900BBE0F900FBE0F901F9018958E
:1003E0001F920F920FB60F920BB60F9211242F93FC
:1003F0003F934F938F939F93EF93FF93809130019F
:1004000082FD1DC04091360120910004309101040D
:100410002F5F3F4F2F73307080910204909103043F
:100420002817390771F0E0910004F0910104E054BD
:10043000FC4F4083309301042093000402C080915C
:100440003601FF91EF919F918F914F913F912F91A5
:100450000F900BBE0F900FBE0F901F9018951F921C
:100460000F920FB60F920BB60F9211242F933F935A
:100470008F939F93EF93FF932091AC023091AD0245
:100480008091AE029091AF022817390731F4809124
:10049000C1008F7D8093C10014C0E091AE02F09145
:1004A000AF02E459FD4F20818091AE029091AF02DE
:1004B00001968F7390709093AF028093AE02209359
:1004C000C600FF91EF919F918F913F912F910F90D7
:1004D0000BBE0F900FBE0F901F9018951F920F929A
:1004E0000FB60F920BB60F9211242F933F938F9359
:1004F0009F93EF93FF9320913403309135038091C4
:100500003603909137032817390731F48091C900D9
:100510008F7D8093C90014C0E0913603F0913703BA
:10052000EC50FD4F20818091360390913703019666
:100530008F73907090933703809336032093CE008F
:10054000FF91EF919F918F913F912F910F900BBE53
:100550000F900FBE0F901F9018951F920F920FB61D
:100560000F920BB60F9211242F933F938F939F936B
:10057000EF93FF932091BC033091BD038091BE03A4
:100580009091BF032817390731F48091D1008F7DF6
:100590008093D10014C0E091BE03F091BF03E458F2
:1005A000FC4F20818091BE039091BF0301968F7311
:1005B00090709093BF038093BE032093D600FF9169
:1005C000EF919F918F913F912F910F900BBE0F90C4
:1005D0000FBE0F901F9018951F920F920FB60F929B
:1005E0000BB60F9211242F933F938F939F93EF930A
:1005F000FF932091440430914504809146049091EA
:1006000047042817390731F4809131018F7D809399
:10061000310114C0E0914604F0914704EC5FFB4FB8
:100620002081809146049091470401968F739070C9
:10063000909347048093460420933601FF91EF91F5
:100640009F918F913F912F910F900BBE0F900FBEF6
:100650000F901F901895DC011C96ED91FC911D9751
:10066000E05CFF4F2191319180819181281B390BF2
:100670002F733070C9010895DC011C96ED91FC9137
:100680001D97E05CFF4F20813181E054F040DF0195
:10069000AE5BBF4F8D919C9111972817390719F4C4
:1006A0002FEF3FEF07C08D919C91E80FF91F8081DC
:1006B000282F30E0C9010895DC011C96ED91FC91D2
:1006C0001D97E05CFF4F20813181E054F040DF0155
:1006D000AE5BBF4F8D919C9111972817390719F484
:1006E0002FEF3FEF10C08D919C911197E80FF91FEC
:1006F00020818D919C91119701968F739070119626
:100700009C938E9330E0C9010895DC0191968C9101
:100710009197882339F05496ED91FC9155978081FB
:1007200086FFF9CF91961C920895CF93DF93EC0149
:10073000EE85FF85E05CFF4F20813181E054F04081
:100740002F5F3F4F2F733070DF01AE5BBF4F8D9136
:100750009C91119728173907D1F3E05CFF4F8081F6
:100760009181E054F040E80FF91F6083EE85FF852A
:10077000E05CFF4F31832083EE89FF89208181E097
:1007800090E00F8C02C0880F991F0A94E2F7282B83
:10079000208381E089A3EC89FD8980818064808346
:1007A00081E090E0DF91CF9108951F9310924B0468
:1007B00010924A0428EE33E040E050E020934C04CD
:1007C00030934D0440934E0450934F0464E172E023
:1007D000709349046093480488E292E09093550432
:1007E000809354048CE692E09093570480935604CF
:1007F00085EC90E0909359048093580484EC90E049
:1008000090935B0480935A0480EC90E090935D0495
:1008100080935C0481EC90E090935F0480935E048D
:1008200082EC90E0909361048093600486EC90E009
:10083000909363048093620414E010936404B3E023
:10084000B0936504A7E0A0936604F5E0F093670415
:10085000E1E0E093680410926D0410926C04209320
:100860006E0430936F04409370045093710470933E
:100870006B0460936A0480EB92E09093770480931A
:10088000760484EF92E090937904809378048DEC61
:1008900090E090937B0480937A048CEC90E09093AA
:1008A0007D0480937C0488EC90E090937F04809397
:1008B0007E0489EC90E090938104809380048AEC1C
:1008C00090E090938304809382048EEC90E0909368
:1008D00085048093840410938604B0938704A093C6
:1008E0008804F0938904E0938A0410928F04109294
:1008F0008E0420939004309391044093920450937B
:10090000930470938D0460938C0488E393E0909338
:100910009904809398048CE793E090939B048093D0
:100920009A0485ED90E090939D0480939C0484ED5F
:1009300090E090939F0480939E0480ED90E09093CC
:10094000A1048093A00481ED90E09093A304809390
:10095000A20482ED90E09093A5048093A40486ED18
:1009600090E09093A7048093A6041093A804B093FA
:10097000A904A093AA04F093AB04E093AC041092F2
:10098000B1041092B0042093B2043093B3044093A6
:10099000B4045093B5047093AF046093AE0480EC3C
:1009A00093E09093BB048093BA0484E094E0909326
:1009B000BD048093BC0485E391E09093BF048093D1
:1009C000BE0484E391E09093C1048093C00480E36B
:1009D00091E09093C3048093C20481E391E09093EB
:1009E000C5048093C40482E391E09093C70480938C
:1009F000C60486E391E09093C9048093C8041093E1
:100A0000CA04B093CB04A093CC04F093CD04E0933C
:100A1000CE041F91089584E292E09093D1048093D4
:100A2000D0041092D2041092D3041092D4041092E5
:100A3000D50408958F929F92AF92BF92CF92DF928A
:100A4000EF92FF920F931F93CF93DF934C016B01B3
:100A50007C01AA24BB24C0E0D0E0C601F70162817A
:100A60004AE050E00E941D068C01C6016EE20E9421
:100A70008605080F191FA00EB11E21960894E11CCF
:100A8000F11CC330D10549F7C601F40165814AE084
:100A900050E00E941D069501280F391FC901DF9102
:100AA000CF911F910F91FF90EF90DF90CF90BF906B
:100AB000AF909F908F900895CF92DF92EF92FF9228
:100AC0000F931F93CF93DF937C016B018A01C0E0EA
:100AD000D0E00FC0D6016D916D01D701ED91FC9171
:100AE0000190F081E02DC7011995C80FD91F015061
:100AF00010400115110571F7CE01DF91CF911F91C3
:100B00000F91FF90EF90DF90CF900895DC01ED9171
:100B1000FC910190F081E02D19950895CF93DF931A
:100B2000EC016115710519F420E030E00FC0DB0124
:100B30000D900020E9F71197A61BB70BE881F9810A
:100B40000280F381E02DAD0119959C01C901DF916F
:100B5000CF9108954F925F927F928F929F92AF9222
:100B6000BF92CF92DF92EF92FF920F931F93DF938A
:100B7000CF93CDB7DEB7A1970FB6F894DEBF0FBE07
:100B8000CDBF2C01742ECB01223008F42AE019A22B
:100B900031E2C32ED12CCC0EDD1E822E9924AA2444
:100BA000BB24672D752FA50194010E94970B790135
:100BB0008A01C801B701A50194010E94780B472D55
:100BC000461B0894C108D1084A3014F4405D01C0A6
:100BD000495CF6014083E114F1040105110521F09F
:100BE0007E2C5F2DC801DDCFC201B6010E948E05AB
:100BF000A1960FB6F894DEBF0FBECDBFCF91DF91A7
:100C00001F910F91FF90EF90DF90CF90BF90AF902A
:100C10009F908F907F905F904F900895DC012115F9
:100C2000310541F4ED91FC910190F081E02D642FAC
:100C3000199508950E94AA050895EF92FF920F93C7
:100C40001F939A01E62EFF2400E010E0B801A701EF
:100C50000E940E061F910F91FF90EF9008951F9232
:100C60000F920FB60F920BB60F9211242F933F9352
:100C70004F935F936F937F938F939F93AF93BF93A4
:100C8000EF93FF938091DA049091DB04892B29F094
:100C9000E091DA04F091DB041995FF91EF91BF9197
:100CA000AF919F918F917F916F915F914F913F9104
:100CB0002F910F900BBE0F900FBE0F901F901895A5
:100CC0001F920F920FB60F920BB60F9211242F9313
:100CD0003F934F935F936F937F938F939F93AF93C4
:100CE000BF93EF93FF938091DC049091DD04892BF7
:100CF00029F0E091DC04F091DD041995FF91EF916A
:100D0000BF91AF919F918F917F916F915F914F9123
:100D10003F912F910F900BBE0F900FBE0F901F9021
:100D200018951F920F920FB60F920BB60F921124C7
:100D30002F933F934F935F936F937F938F939F93E3
:100D4000AF93BF93EF93FF938091DE049091DF0404
:100D5000892B29F0E091DE04F091DF041995FF91D1
:100D6000EF91BF91AF919F918F917F916F915F9123
:100D70004F913F912F910F900BBE0F900FBE0F9090
:100D80001F9018951F920F920FB60F920BB60F92ED
:100D900011242F933F934F935F936F937F938F9380
:100DA0009F93AF93BF93EF93FF938091E004909153
:100DB000E104892B29F0E091E004F091E104199518
:100DC000FF91EF91BF91AF919F918F917F916F9123
:100DD0005F914F913F912F910F900BBE0F900FBEDF
:100DE0000F901F9018951F920F920FB60F920BB68F
:100DF0000F9211242F933F934F935F936F937F93A1
:100E00008F939F93AF93BF93EF93FF938091D604FB
:100E10009091D704892B29F0E091D604F091D70462
:100E20001995FF91EF91BF91AF919F918F917F9114
:100E30006F915F914F913F912F910F900BBE0F904B
:100E40000FBE0F901F9018951F920F920FB60F9222
:100E50000BB60F9211242F933F934F935F936F9391
:100E60007F938F939F93AF93BF93EF93FF93809163
:100E7000D8049091D904892B29F0E091D804F091FD
:100E8000D9041995FF91EF91BF91AF919F918F91E7
:100E90007F916F915F914F913F912F910F900BBE7A
:100EA0000F900FBE0F901F9018951F920F920FB6C4
:100EB0000F920BB60F9211242F933F934F935F9392
:100EC0006F937F938F939F93AF93BF93EF93FF9312
:100ED0008091E2049091E304892B29F0E091E204EF
:100EE000F091E3041995FF91EF91BF91AF919F911C
:100EF0008F917F916F915F914F913F912F910F90C3
:100F00000BBE0F900FBE0F901F9018951F920F925F
:100F10000FB60F920BB60F9211242F933F934F935E
:100F20005F936F937F938F939F93AF93BF93EF9351
:100F3000FF938091E4049091E504892B29F0E091DE
:100F4000E404F091E5041995FF91EF91BF91AF9101
:100F50009F918F917F916F915F914F913F912F91D1
:100F60000F900BBE0F900FBE0F901F9018951F9201
:100F70000F920FB60F9211242F933F938F939F934D
:100F8000AF93BF938091EA049091EB04A091EC049D
:100F9000B091ED043091EE040196A11DB11D232FF7
:100FA0002D5F2D3720F02D570196A11DB11D2093E7
:100FB000EE048093EA049093EB04A093EC04B093C6
:100FC000ED048091E6049091E704A091E804B091CB
:100FD000E9040196A11DB11D8093E6049093E704F6
:100FE000A093E804B093E904BF91AF919F918F91D2
:100FF0003F912F910F900FBE0F901F9018959FB7A4
:10100000F8942091E6043091E7044091E80450916F
:10101000E90486B5A89B06C08F3F21F02F5F3F4FA4
:101020004F4F5F4F9FBF542F432F322F2227280F40
:10103000311D411D511D82E0220F331F441F551FDA
:101040008A95D1F7B901CA010895789484B5826070
:1010500084BD84B5816084BD85B5826085BD85B55C
:10106000816085BDEEE6F0E0808181608083E1E80B
:10107000F0E0108280818260808380818160808343
:10108000E0E8F0E0808181608083E1EBF0E0808146
:1010900084608083E0EBF0E0808181608083E1E91F
:1010A000F0E0808182608083808181608083E0E9DC
:1010B000F0E0808181608083E1EAF0E080818260FD
:1010C0008083808181608083E0EAF0E080818160BC
:1010D0008083E1E2F1E080818260808380818160B1
:1010E0008083E0E2F1E0808181608083EAE7F0E0E4
:1010F0008081846080838081826080838081816040
:1011000080838081806880831092C10008951F933E
:10111000CF93DF93182FEB0161E00E9467092097BE
:1011200009F4CAC0CF3FD10509F4C9C0E12FF0E0EE
:10113000E254FE4F8491893009F466C08A30B0F4DD
:101140008430F1F1853040F4823059F1833070F50C
:10115000813009F0AEC020C0873009F443C0883028
:1011600008F048C0863009F0A4C034C08D3009F4BE
:1011700078C08E3038F48B3009F45AC08C3008F0C7
:1011800066C04CC0803109F480C0813109F487C049
:101190008F3009F08EC06FC084B5806884BDC7BD34
:1011A00092C084B5806284BDC8BD8DC0809180002E
:1011B000806880938000D0938900C093880083C0AA
:1011C00080918000806280938000D0938B00C093D8
:1011D0008A0079C08091B00080688093B000C0938D
:1011E000B30071C08091B00080628093B000C09362
:1011F000B40069C080919000806880939000D09383
:101200009900C09398005FC08091900080628093A5
:101210009000D0939B00C0939A0055C0809190009D
:10122000886080939000D0939D00C0939C004BC039
:101230008091A00080688093A0008091A0008F7BA7
:101240008093A000D093A900C093A8003CC08091D7
:10125000A00080628093A000D093AB00C093AA004E
:1012600032C08091A00088608093A000D093AD0030
:10127000C093AC0028C08091200180688093200139
:10128000D0932901C09328011EC080912001806263
:1012900080932001D0932B01C0932A0114C0809128
:1012A0002001886080932001D0932D01C0932C01F0
:1012B0000AC0C038D1051CF4812F60E002C0812F24
:1012C00061E00E941A0ADF91CF911F910895CF9398
:1012D000DF93482F50E0CA0188589E4FFC0134919B
:1012E0004E5C5E4FFA018491882369F190E0880F8B
:1012F000991FFC01EC51FF4FA591B491FC01E25004
:10130000FF4FC591D491662351F42FB7F8948C9177
:10131000932F909589238C93888189230BC0623009
:1013200061F42FB7F8948C91932F909589238C9327
:101330008881832B88832FBF06C09FB7F8948C9138
:10134000832B8C939FBFDF91CF910895893009F44F
:1013500049C08A30A0F4843051F1853040F48230A5
:1013600079F1833000F5813009F063C026C0873001
:1013700079F1883098F5863009F05BC025C08D3052
:1013800009F442C08E3028F48B30B1F18C30C0F5B6
:101390002DC0803109F442C0813109F445C08F303D
:1013A00009F047C037C0809180008F7703C08091DB
:1013B00080008F7D80938000089584B58F7702C070
:1013C00084B58F7D84BD08958091B0008F7703C070
:1013D0008091B0008F7D8093B0000895809190003F
:1013E0008F7707C0809190008F7D03C0809190001F
:1013F000877F8093900008958091A0008F7707C029
:101400008091A0008F7D03C08091A000877F809392
:10141000A0000895809120018F7703C08091200162
:101420008F7D80932001089580912001877F809394
:1014300020010895FF920F931F93F62E482F50E03E
:10144000CA0182549E4FFC012491CA0188589E4FC4
:10145000FC0114914E5C5E4FFA0104910023C9F027
:10146000222319F0822F0E94A609E02FF0E0EE0F50
:10147000FF1FE250FF4FA591B4919FB7F894FF2052
:1014800021F48C911095812302C08C91812B8C9337
:101490009FBF1F910F91FF90089508950895109296
:1014A000F0041092EF048091000261E00E9467094D
:1014B0008091040261E00E9467090895EF92FF9213
:1014C0000F931F93E0900802F090090200910A0226
:1014D00010910B02C801B70120E030E040E853E46E
:1014E0000E94F70A87FD02C06FEF10C0C801B70164
:1014F00020E030E040E050E00E94740B87FF02C023
:1015000060E004C0C801B7010E94FB0A809100029C
:1015100070E00E948708E0900C02F0900D020091AC
:101520000E0210910F02C801B70120E030E040E840
:1015300053E40E94F70A87FD02C06FEF10C0C80194
:10154000B70120E030E040E050E00E94740B87FFDC
:1015500002C060E004C0C801B7010E94FB0A80918C
:10156000040270E00E9487081F910F91FF90EF9096
:101570000895AF92BF92CF92DF92EF92FF920F93B6
:101580001F93CF93DF930E9425080E944F0AC091BA
:101590002602D0912702AA24BB24650115C00E940F
:1015A000FF077B018C01DC01CB018A199B09AC0987
:1015B000BD0980549D40A340B04030F00E945E0AB7
:1015C0000E944D0A5701680188819981892B39F35E
:1015D0000E944E0A80E090E0DF91CF911F910F9121
:1015E000FF90EF90DF90CF90BF90AF9008952FD0F5
:1015F00008F481E0089557D088F09F5790F0B92FF4
:101600009927B751A0F0D1F0660F771F881F991F57
:101610001AF0BA95C9F712C0B13081F05ED0B1E0CE
:1016200008955BC0672F782F8827B85F39F0B93FDE
:10163000CCF3869577956795B395D9F73EF4909559
:101640008095709561957F4F8F4F9F4F0895990FAB
:101650000008550FAA0BE0E8FEEF16161706E8077C
:10166000F907C0F012161306E407F50798F0621B9D
:10167000730B840B950B39F40A2661F0232B242B72
:10168000252B21F408950A2609F4A140A6958FEF91
:10169000811D811D089557FD9058440F551F59F025
:1016A0005F3F71F04795880F97FB991F61F09F3F4F
:1016B00079F087950895121613061406551FF2CF78
:1016C0004695F1DF08C0161617061806991FF1CFC8
:1016D00086957105610508940895E894BB276627EF
:1016E0007727CB0197F90895B2DF08F48FEF0895BB
:1016F000629FD001739FF001829FE00DF11D649FF6
:10170000E00DF11D929FF00D839FF00D749FF00D81
:10171000659FF00D9927729FB00DE11DF91F639F22
:10172000B00DE11DF91FBD01CF0111240895A1E203
:101730001A2EAA1BBB1BFD010DC0AA1FBB1FEE1F4B
:10174000FF1FA217B307E407F50720F0A21BB30B96
:10175000E40BF50B661F771F881F991F1A9469F712
:1017600060957095809590959B01AC01BD01CF016E
:101770000895EE0FFF1F0590F491E02D1994F89451
:02178000FFCF99
:101782000500000007000000000080430000000088
:101792000000000095035C052B035C033C038503FA
:0817A200000000001A05EF042D
:00000001FF
