:100000000C9413010C943E060C946F060C94A006FD
:100010000C94D1060C9402070C9433070C946407DB
:100020000C9495070C9440010C9440010C944001F1
:100030000C9440010C9440010C9440010C9440013C
:100040000C9440010C9440010C9440010C9440012C
:100050000C9440010C9440010C9440010C94C60790
:100060000C9440010C9442010C943E020C9440010B
:100070000C9440010C9440010C9440010C944001FC
:100080000C9440010C9440010C9440010C944001EC
:100090000C9481010C947D020C9440010C9440015D
:1000A0000C9440010C9440010C9440010C944001CC
:1000B0000C9440010C9440010C9440010C944001BC
:1000C0000C9440010C9440010C9440010C94C0012C
:1000D0000C94BC020C9440010C94FF010C94FB02A4
:1000E0000C94400105A84CCDB2D44EB93836A902C3
:1000F0000C50B9918688083CA6AAAA2ABE00000026
:10010000803F00002100240027002A002D0030003D
:10011000330001010000040107010A010000220070
:10012000250028002B002E003100340002010000C1
:10013000050108010B010000200023002600290012
:100140002C002F003200000100000301060109010C
:1001500005050505070508080808020202020A0A43
:100160000808040404040101010101010101030361
:10017000030303030303040707070C0C0C0C0C0C0C
:100180000C0C0202020206060606060606060B0B09
:100190000B0B0B0B0B0B010210202008081020404A
:1001A000102040800201020108040201010204083B
:1001B00010204080804020100804020180040201C9
:1001C0008040201008040201080402010102040812
:1001D0001020408001020408102040800000090A1D
:1001E00002080B0C0D0706030401000000000000CC
:1001F00000000000000000000000000000000000FF
:10020000000000000000000011100F0000000000BE
:1002100000000000000000000000000000000000DE
:100220000000E4031A0511241FBECFEFD1E2DEBFA8
:10023000CDBF00E00CBF12E0A0E0B2E0E8E9F4E2DC
:1002400000E00BBF02C007900D92A038B107D9F7AC
:100250001BBE16E0A0E8B2E001C01D92A532B107B6
:10026000E1F712E0C6E2D2E004C02297FE010E944C
:100270004612C232D107C9F70E947C0F0C944A1271
:100280000C9400001F920F920FB60F920BB60F92B4
:1002900011242F933F934F938F939F93EF93FF934B
:1002A0008091C00082FD1DC04091C6002091C00217
:1002B0003091C1022F5F3F4F2F7330708091C20287
:1002C0009091C3022817390771F0E091C002F091B4
:1002D000C102E058FD4F40833093C1022093C00219
:1002E00002C08091C600FF91EF919F918F914F9135
:1002F0003F912F910F900BBE0F900FBE0F901F904C
:1003000018951F920F920FB60F920BB60F921124F1
:100310002F933F934F938F939F93EF93FF938091EE
:10032000C80082FD1DC04091CE002091480330914D
:1003300049032F5F3F4F2F73307080914A03909194
:100340004B032817390771F0E0914803F0914903F6
:10035000E85FFC4F4083309349032093480302C079
:100360008091CE00FF91EF919F918F914F913F919E
:100370002F910F900BBE0F900FBE0F901F901895EE
:100380001F920F920FB60F920BB60F9211242F935C
:100390003F934F938F939F93EF93FF938091D00060
:1003A00082FD1DC04091D6002091D0033091D10331
:1003B0002F5F3F4F2F7330708091D2039091D30302
:1003C0002817390771F0E091D003F091D103E0577D
:1003D000FC4F40833093D1032093D00302C080911F
:1003E000D600FF91EF919F918F914F913F912F9167
:1003F0000F900BBE0F900FBE0F901F9018951F927D
:100400000F920FB60F920BB60F9211242F933F93BA
:100410004F938F939F93EF93FF938091300182FDD1
:100420001DC04091360120915804309159042F5F2E
:100430003F4F2F73307080915A0490915B042817BE
:10044000390771F0E0915804F0915904E85EFB4FD0
:100450004083309359042093580402C080913601A0
:10046000FF91EF919F918F914F913F912F910F901D
:100470000BBE0F900FBE0F901F9018951F920F92FA
:100480000FB60F920BB60F9211242F933F938F93B9
:100490009F93EF93FF932091040330910503809184
:1004A0000603909107032817390731F48091C100A2
:1004B0008F7D8093C10014C0E0910603F091070383
:1004C000EC53FD4F20818091060390910703019624
:1004D0008F73907090930703809306032093C60058
:1004E000FF91EF919F918F913F912F910F900BBEB4
:1004F0000F900FBE0F901F9018951F920F920FB67E
:100500000F920BB60F9211242F933F938F939F93CB
:10051000EF93FF9320918C0330918D0380918E0394
:1005200090918F032817390731F48091C9008F7D8E
:100530008093C90014C0E0918E03F0918F03E45BB7
:10054000FC4F208180918E0390918F0301968F73D1
:10055000907090938F0380938E032093CE00FF9131
:10056000EF919F918F913F912F910F900BBE0F9024
:100570000FBE0F901F9018951F920F920FB60F92FB
:100580000BB60F9211242F933F938F939F93EF936A
:10059000FF932091140430911504809116049091DA
:1005A00017042817390731F48091D1008F7D80938B
:1005B000D10014C0E0911604F0911704EC52FC4FE6
:1005C0002081809116049091170401968F7390708A
:1005D00090931704809316042093D600FF91EF9117
:1005E0009F918F913F912F910F900BBE0F900FBE57
:1005F0000F901F9018951F920F920FB60F920BB687
:100600000F9211242F933F938F939F93EF93FF9318
:1006100020919C0430919D0480919E0490919F04B0
:100620002817390731F4809131018F7D8093310192
:1006300014C0E0919E04F0919F04E45AFB4F208186
:1006400080919E0490919F0401968F739070909377
:100650009F0480939E0420933601FF91EF919F9118
:100660008F913F912F910F900BBE0F900FBE0F9067
:100670001F901895DC011C96ED91FC911D97E05C94
:10068000FF4F2191319180819181281B390B2F736C
:100690003070C9010895DC011C96ED91FC911D9705
:1006A000E05CFF4F20813181E054F040DF01AE5B20
:1006B000BF4F8D919C9111972817390719F42FEF8F
:1006C0003FEF07C08D919C91E80FF91F8081282F83
:1006D00030E0C9010895DC011C96ED91FC911D9755
:1006E000E05CFF4F20813181E054F040DF01AE5BE0
:1006F000BF4F8D919C9111972817390719F42FEF4F
:100700003FEF10C08D919C911197E80FF91F208148
:100710008D919C91119701968F73907011969C9377
:100720008E9330E0C9010895DC0191968C919197E8
:10073000882339F05496ED91FC915597808186FF7E
:10074000F9CF91961C920895CF93DF93EC01EE853B
:10075000FF85E05CFF4F20813181E054F0402F5F46
:100760003F4F2F733070DF01AE5BBF4F8D919C9177
:10077000119728173907D1F3E05CFF4F80819181F1
:10078000E054F040E80FF91F6083EE85FF85E05CE0
:10079000FF4F31832083EE89FF89208181E090E043
:1007A0000F8C02C0880F991F0A94E2F7282B208330
:1007B00081E089A3EC89FD8980818064808381E068
:1007C00090E0DF91CF9108951F931092A3041092AF
:1007D000A20428EE33E040E050E02093A4043093DC
:1007E000A5044093A6045093A70467E472E07093B5
:1007F000A1046093A00480E892E09093AD048093FC
:10080000AC0484EC92E09093AF048093AE0485EC4A
:1008100090E09093B1048093B00484EC90E09093C6
:10082000B3048093B20480EC90E09093B50480937D
:10083000B40481EC90E09093B7048093B60482EC0A
:1008400090E09093B9048093B80486EC90E0909384
:10085000BB048093BA0414E01093BC04B3E0B093DB
:10086000BD04A7E0A093BE04F5E0F093BF04E1E06F
:10087000E093C0041092C5041092C4042093C604EF
:100880003093C7044093C8045093C9047093C304C1
:100890006093C20488E093E09093CF048093CE04E9
:1008A0008CE493E09093D1048093D0048DEC90E09D
:1008B0009093D3048093D2048CEC90E09093D50471
:1008C0008093D40488EC90E09093D7048093D6046E
:1008D00089EC90E09093D9048093D8048AEC90E05E
:1008E0009093DB048093DA048EEC90E09093DD0427
:1008F0008093DC041093DE04B093DF04A093E00443
:10090000F093E104E093E2041092E7041092E6040D
:100910002093E8043093E9044093EA045093EB04F5
:100920007093E5046093E40480E993E09093F1040C
:100930008093F00484ED93E09093F3048093F204A9
:1009400085ED90E09093F5048093F40484ED90E0BD
:100950009093F7048093F60480ED90E09093F9046F
:100960008093F80481ED90E09093FB048093FA0467
:1009700082ED90E09093FD048093FC0486ED90E07E
:100980009093FF048093FE0410930005B09301053B
:10099000A0930205F0930305E09304051092090566
:1009A0001092080520930A0530930B0540930C051F
:1009B00050930D05709307056093060588E194E058
:1009C00090931305809312058CE594E090931505A0
:1009D0008093140585E391E09093170580931605A5
:1009E00084E391E0909319058093180580E391E0EA
:1009F00090931B0580931A0581E391E090931D0568
:100A000080931C0582E391E090931F0580931E055F
:100A100086E391E0909321058093200510932205B1
:100A2000B0932305A0932405F0932505E0932605B4
:100A30001F91089587E592E09093290580932805FA
:100A400010922A0510922B0510922C0510922D055C
:100A500008958F929F92AF92BF92CF92DF92EF92C2
:100A6000FF920F931F93CF93DF934C016B017C0197
:100A7000AA24BB24C0E0D0E0C601F70162814AE0AD
:100A800050E00E942C068C01C6016EE20E94950582
:100A9000080F191FA00EB11E21960894E11CF11C2D
:100AA000C330D10549F7C601F40165814AE050E041
:100AB0000E942C069501280F391FC901DF91CF91A3
:100AC0001F910F91FF90EF90DF90CF90BF90AF906C
:100AD0009F908F900895CF92DF92EF92FF920F93A5
:100AE0001F93CF93DF937C016B018A01C0E0D0E0BC
:100AF0000FC0D6016D916D01D701ED91FC91019070
:100B0000F081E02DC7011995C80FD91F0150104081
:100B10000115110571F7CE01DF91CF911F910F9152
:100B2000FF90EF90DF90CF900895DC01ED91FC9164
:100B30000190F081E02D19950895CF93DF93EC019A
:100B40006115710519F420E030E00FC0DB010D9054
:100B50000020E9F71197A61BB70BE881F981028005
:100B6000F381E02DAD0119959C01C901DF91CF9171
:100B700008954F925F927F928F929F92AF92BF9211
:100B8000CF92DF92EF92FF920F931F93DF93CF9359
:100B9000CDB7DEB7A1970FB6F894DEBF0FBECDBFBD
:100BA0002C01742ECB01223008F42AE019A231E284
:100BB000C32ED12CCC0EDD1E822E9924AA24BB2458
:100BC000672D752FA50194010E94221279018A01D7
:100BD000C801B701A50194010E940312472D461BCD
:100BE0000894C108D1084A3014F4405D01C0495C42
:100BF000F6014083E114F1040105110521F07E2C7A
:100C00005F2DC801DDCFC201B6010E949D05A196EE
:100C10000FB6F894DEBF0FBECDBFCF91DF911F910D
:100C20000F91FF90EF90DF90CF90BF90AF909F908B
:100C30008F907F905F904F900895DC0121153105D2
:100C400041F4ED91FC910190F081E02D642F199514
:100C500008950E94B9050895EF92FF920F931F9394
:100C60009A01E62EFF2400E010E0B801A7010E94DF
:100C70001D061F910F91FF90EF9008951F920F9204
:100C80000FB60F920BB60F9211242F933F934F93F1
:100C90005F936F937F938F939F93AF93BF93EF93E4
:100CA000FF938091320590913305892B29F0E091D3
:100CB0003205F09133051995FF91EF91BF91AF91F6
:100CC0009F918F917F916F915F914F913F912F9164
:100CD0000F900BBE0F900FBE0F901F9018951F9294
:100CE0000F920FB60F920BB60F9211242F933F93D2
:100CF0004F935F936F937F938F939F93AF93BF9324
:100D0000EF93FF938091340590913505892B29F05D
:100D1000E0913405F09135051995FF91EF91BF9160
:100D2000AF919F918F917F916F915F914F913F9183
:100D30002F910F900BBE0F900FBE0F901F90189524
:100D40001F920F920FB60F920BB60F9211242F9392
:100D50003F934F935F936F937F938F939F93AF9343
:100D6000BF93EF93FF938091360590913705892BC0
:100D700029F0E0913605F09137051995FF91EF9133
:100D8000BF91AF919F918F917F916F915F914F91A3
:100D90003F912F910F900BBE0F900FBE0F901F90A1
:100DA00018951F920F920FB60F920BB60F92112447
:100DB0002F933F934F935F936F937F938F939F9363
:100DC000AF93BF93EF93FF938091380590913905CE
:100DD000892B29F0E0913805F09139051995FF919B
:100DE000EF91BF91AF919F918F917F916F915F91A3
:100DF0004F913F912F910F900BBE0F900FBE0F9010
:100E00001F9018951F920F920FB60F920BB60F926C
:100E100011242F933F934F935F936F937F938F93FF
:100E20009F93AF93BF93EF93FF9380912E05909183
:100E30002F05892B29F0E0912E05F0912F051995AA
:100E4000FF91EF91BF91AF919F918F917F916F91A2
:100E50005F914F913F912F910F900BBE0F900FBE5E
:100E60000F901F9018951F920F920FB60F920BB60E
:100E70000F9211242F933F934F935F936F937F9320
:100E80008F939F93AF93BF93EF93FF938091300520
:100E900090913105892B29F0E0913005F0913105D1
:100EA0001995FF91EF91BF91AF919F918F917F9194
:100EB0006F915F914F913F912F910F900BBE0F90CB
:100EC0000FBE0F901F9018951F920F920FB60F92A2
:100ED0000BB60F9211242F933F934F935F936F9311
:100EE0007F938F939F93AF93BF93EF93FF938091E3
:100EF0003A0590913B05892B29F0E0913A05F09154
:100F00003B051995FF91EF91BF91AF919F918F9103
:100F10007F916F915F914F913F912F910F900BBEF9
:100F20000F900FBE0F901F9018951F920F920FB643
:100F30000F920BB60F9211242F933F934F935F9311
:100F40006F937F938F939F93AF93BF93EF93FF9391
:100F500080913C0590913D05892B29F0E0913C055D
:100F6000F0913D051995FF91EF91BF91AF919F9140
:100F70008F917F916F915F914F913F912F910F9042
:100F80000BBE0F900FBE0F901F9018951F920F92DF
:100F90000FB60F9211242F933F938F939F93AF938C
:100FA000BF938091420590914305A0914405B09173
:100FB0004505309146050196A11DB11D232F2D5FDA
:100FC0002D3720F02D570196A11DB11D2093460508
:100FD0008093420590934305A0934405B093450543
:100FE00080913E0590913F05A0914005B09141054B
:100FF0000196A11DB11D80933E0590933F05A093DE
:101000004005B0934105BF91AF919F918F913F9162
:101010002F910F900FBE0F901F9018959FB7F894C7
:1010200020913E0530913F0540914005509141058A
:1010300086B5A89B06C08F3F21F02F5F3F4F4F4FD3
:101040005F4F9FBF542F432F322F2227280F311D70
:10105000411D511D82E0220F331F441F551F8A95E9
:10106000D1F7B901CA010895789484B5826084BD2E
:1010700084B5816084BD85B5826085BD85B581609C
:1010800085BDEEE6F0E0808181608083E1E8F0E0FC
:101090001082808182608083808181608083E0E82B
:1010A000F0E0808181608083E1EBF0E0808184600A
:1010B0008083E0EBF0E0808181608083E1E9F0E013
:1010C000808182608083808181608083E0E9F0E0BC
:1010D000808181608083E1EAF0E0808182608083AA
:1010E000808181608083E0EAF0E08081816080839C
:1010F000E1E2F1E080818260808380818160808391
:10110000E0E2F1E0808181608083EAE7F0E08081C5
:10111000846080838081826080838081816080831D
:101120008081806880831092C1000895382F8633B3
:1011300008F0365320917B00832F869586958695FF
:1011400090E08170907043E0880F991F4A95E1F715
:10115000277F282B20937B00377080910502829592
:10116000880F880F807C832B80937C0080917A008D
:10117000806480937A0080917A0086FDFCCF209174
:10118000780040917900942F80E030E0282B392BB3
:10119000C90108951F93CF93DF93182FEB0161E0EE
:1011A0000E94AA09209709F4CAC0CF3FD10509F4CB
:1011B000C9C0E12FF0E0E452FE4F8491893009F478
:1011C00066C08A30B0F48430F1F1853040F482306A
:1011D00059F1833070F5813009F0AEC020C08730FE
:1011E00009F443C0883008F048C0863009F0A4C034
:1011F00034C08D3009F478C08E3038F48B3009F467
:101200005AC08C3008F066C04CC0803109F480C0F0
:10121000813109F487C08F3009F08EC06FC084B56A
:10122000806884BDC7BD92C084B5806284BDC8BDDE
:101230008DC080918000806880938000D093890069
:10124000C093880083C0809180008062809380007A
:10125000D0938B00C0938A0079C08091B0008068E1
:101260008093B000C093B30071C08091B0008062E1
:101270008093B000C093B40069C0809190008068F2
:1012800080939000D0939900C09398005FC08091A4
:101290009000806280939000D0939B00C0939A004E
:1012A00055C080919000886080939000D0939D00FD
:1012B000C0939C004BC08091A00080688093A000E8
:1012C0008091A0008F7B8093A000D093A900C09351
:1012D000A8003CC08091A00080628093A000D093C1
:1012E000AB00C093AA0032C08091A00088608093B8
:1012F000A000D093AD00C093AC0028C08091200125
:10130000806880932001D0932901C09328011EC0DA
:1013100080912001806280932001D0932B01C093A3
:101320002A0114C080912001886080932001D0930D
:101330002D01C0932C010AC0C038D1051CF4812FA7
:1013400060E002C0812F61E00E945D0ADF91CF91D1
:101350001F910895CF93DF93482F50E0CA018A561A
:101360009E4FFC013491405B5E4FFA0184918823CB
:1013700069F190E0880F991FFC01EE5FFE4FA59187
:10138000B491FC01E45EFE4FC591D491662351F403
:101390002FB7F8948C91932F909589238C93888103
:1013A00089230BC0623061F42FB7F8948C91932F8E
:1013B000909589238C938881832B88832FBF06C0C7
:1013C0009FB7F8948C91832B8C939FBFDF91CF9123
:1013D0000895893009F449C08A30A0F4843051F16D
:1013E000853040F4823079F1833000F5813009F0A6
:1013F00063C026C0873079F1883098F5863009F0CF
:101400005BC025C08D3009F442C08E3028F48B308B
:10141000B1F18C30C0F52DC0803109F442C081316A
:1014200009F445C08F3009F047C037C08091800073
:101430008F7703C0809180008F7D80938000089516
:1014400084B58F7702C084B58F7D84BD0895809167
:10145000B0008F7703C08091B0008F7D8093B00083
:101460000895809190008F7707C0809190008F7DC4
:1014700003C080919000877F8093900008958091B1
:10148000A0008F7707C08091A0008F7D03C080915E
:10149000A000877F8093A0000895809120018F771E
:1014A00003C0809120018F7D809320010895809159
:1014B0002001877F809320010895FF920F931F934F
:1014C000F62E482F50E0CA0184529E4FFC01249111
:1014D000CA018A569E4FFC011491405B5E4FFA018F
:1014E00004910023C9F0222319F0822F0E94E909F8
:1014F000E02FF0E0EE0FFF1FE45EFE4FA591B491E8
:101500009FB7F894FF2021F48C911095812302C09D
:101510008C91812B8C939FBF1F910F91FF90089509
:10152000862F60E00E94AA0908950895E0E6F5E09C
:1015300085ECDF011D928A95E9F788E196E09093AA
:101540006505809364058BE196E097AF86AF80E1F7
:1015500096E0909373058093720589ED95E09093E2
:101560009D0580939C0587ED95E09093A30580935E
:10157000A20588E096E09093A1058093A005F093E2
:10158000C305E093C205F0936305E093620581E033
:1015900090E0909319068093180680EE95E0909362
:1015A00001068093000688EE95E0909303068093F1
:1015B000020680EF95E0909305068093040688EF7D
:1015C00095E0909307068093060628E535E0309372
:1015D000D8052093D70580E096E090936705809327
:1015E000660580E092E090936905809368058DE13F
:1015F00096E090931C0680931B068FE692E1A3E889
:10160000BAE38093100690931106A0931206B0934C
:10161000130681E1E7E4F5E0DF011D928A95E9F721
:1016200088E0F90111928A95E9F760913E02709184
:101630003F0280914002909141020E94900A809165
:10164000160261E00E94AA09809136029091370249
:10165000A0913802B09139028093580590935905B2
:10166000A0935A05B0935B0580913A0290913B029A
:10167000A0913C02B0913D0280935C0590935D0582
:10168000A0935E05B0935F050895AF92BF92CF928D
:10169000DF92EF92FF920F931F9380911806909123
:1016A00019068130910509F560910C0670910D06BF
:1016B00080910E0690910F066F5F7F4F8F4F9F4F67
:1016C0000E945C1020911006309111064091120684
:1016D000509113060E94121160936E0570936F056E
:1016E000809370059093710516C0892BA1F4209109
:1016F0001B0630911C06E0919E05F0919F0501901C
:10170000F081E02D80819181A281B381F9018083F4
:101710009183A283B3838091180690911906019753
:1017200009F08BC080914202813079F560912202EC
:1017300070912302809124029091250220E030E0F4
:1017400040E050E00E9412112091260230912702C1
:1017500040912802509129020E94C80F0E947511E1
:1017600020911A0230911B0240911C0250911D02DF
:101770000E94121120911E0230911F0240912002FE
:10178000509121020E94C80F08C060912A027091F6
:101790002B0280912C0290912D0220912E023091EB
:1017A0002F0240913002509131020E9412117B01B0
:1017B0008C0180913E020E949608A0E0B0E0BC013E
:1017C000CD010E945C109B01AC01C801B7010E94D1
:1017D000C70F209132023091330240913402509170
:1017E00035020E9412115B016C016091120270912E
:1017F00013028091140290911502A60195010E9496
:1018000012116093470570934805809349059093A2
:101810004A0560910602709107028091080290913A
:101820000902A60195010E94121160934B05709365
:101830004C0580934D0590934E0560914B0570913A
:101840004C0580914D0590914E0520915C0530919D
:101850005D0540915E0550915F050E94C70F209184
:101860000E0230910F0240911002509111020E941D
:1018700012117B018C0160934F057093500580938A
:1018800051059093520560914705709148058091EC
:10189000490590914A05209158053091590540918C
:1018A0005A0550915B050E94C80FA80197010E943C
:1018B000C80F7B018C0120E030E040E853E40E9437
:1018C0002C108823A4F4C801B70120E030E040E0E8
:1018D00050E00E940E1188233CF0C801B7010E941D
:1018E00030106093570506C01092570503C08FEF64
:1018F0008093570580911806909119060197D9F4A5
:10190000609157058091160270E00E94CA086091AC
:101910000A0270910B0280910C0290910D02A601B7
:1019200095010E94121160935305709354058093A2
:101930005505909356051F910F91FF90EF90DF9002
:10194000CF90BF90AF9008952F923F924F925F92A9
:101950006F927F928F929F92AF92BF92CF92DF92BF
:10196000EF92FF920F931F93DF93CF93CDB7DEB724
:1019700062970FB6F894DEBF0FBECDBF80911806F8
:1019800090911906019709F068C2E0919E05F091C7
:101990009F0520813181D9018D919D910D90BC9140
:1019A000A02D89839A83AB83BC8380916E0590912F
:1019B0006F05A0917005B09171058D839E83AF83F3
:1019C000B887E0917205F0917305208031804280E4
:1019D0005380E091A205F091A305A081B181BA875F
:1019E000A987E0916605F0916705808191819C87C8
:1019F0008B87A281B381BA8BA98B848195819E87C5
:101A00008D87A681B781B88BAF87E0916405F0918F
:101A1000650511821082AB85BC8529853A8588E0F1
:101A2000F90101909F010D928150D1F7A0909C0582
:101A3000B0909D05E989FA89D501ED93FC93E09179
:101A4000D905F091DA058091530590915405A09144
:101A50005505B091560580839183A283B38380910D
:101A60004F0590915005A0915105B0915205848386
:101A70009583A683B783C201B10120E030E040E046
:101A80005FE30E9412117B018C01A989BA892D9113
:101A90003D914D915C910E9412119B01AC01EB852F
:101AA000FC8560817181828193810E94C80FA98524
:101AB000BA856D937D938D939C931397C801B7015D
:101AC000E989FA8924813581468157810E94121162
:101AD0009B01AC01AB85BC8514966D917D918D9178
:101AE0009C9117970E94C80FE985FA8564837583D6
:101AF00086839783E0919E05F0919F05C080D180F9
:101B000069817A818B819C81A80197010E94C80F0D
:101B1000D6016D937D938D939C9313978D859E85B0
:101B2000F501918380830E94450BE091D905F091E6
:101B3000DA058091530590915405A0915505B09117
:101B4000560580839183A283B38380914F05909142
:101B50005005A0915105B091520584839583A683C9
:101B6000B783C201B10120916702309168024091B0
:101B7000690250916A020E9412115B016C01C2015C
:101B8000B10120916B0230916C0240916D02509135
:101B90006E020E9412113B014C01C601B501A989D8
:101BA000BA892D913D914D915C910E9412117B015A
:101BB0008C01C401B301ED85FE8520813181428114
:101BC00053810E9412119B01AC01C801B7010E9410
:101BD000C80F9B01AC01AB85BC856D917D918D914A
:101BE0009C910E94C80FE985FA8560837183828386
:101BF0009383C601B501A989BA8914962D913D91A7
:101C00004D915C9117970E9412117B018C01C401C8
:101C1000B301ED85FE8524813581468157810E947F
:101C200012119B01AC01C801B7010E94C80F9B01B2
:101C3000AC01AB85BC8514966D917D918D919C9185
:101C400017970E94C80FE985FA8564837583868398
:101C50009783E0919E05F0919F0500811181C2015B
:101C6000B10120E030E040E45FE30E9412119B01EB
:101C7000AC0169817A818B819C810E94C80FD80157
:101C80006D937D938D939C931397E0919C05F091B8
:101C90009D058F859889918380830E94450BE091F3
:101CA000D905F091DA058091530590915405A091E2
:101CB0005505B091560580839183A283B3838091AB
:101CC0004F0590915005A0915105B0915205848324
:101CD0009583A683B783C201B1012091730230912D
:101CE000740240917502509176020E9412115B01BC
:101CF0006C01C201B10120917702309178024091CC
:101D0000790250917A020E9412113B014C01C201EA
:101D1000B10120917B0230917C0240917D02509173
:101D20007E020E9412111B012C01C601B501A98976
:101D3000BA892D913D914D915C910E9412117B01C8
:101D40008C01C401B301ED85FE8520813181428182
:101D500053810E9412119B01AC01C801B7010E947E
:101D6000C80F7B018C01C201B101AF85B8892D91EB
:101D70003D914D915C910E9412119B01AC01C801F3
:101D8000B7010E94C80F9B01AC01EB85FC85608107
:101D90007181828193810E94C80FA985BA856D9354
:101DA0007D938D939C931397C601B501E989FA89B8
:101DB00024813581468157810E9412117B018C015B
:101DC000C401B301AD85BE8514962D913D914D9111
:101DD0005C9117970E9412119B01AC01C801B701D9
:101DE0000E94C80F7B018C01C201B101EF85F88907
:101DF00024813581468157810E9412119B01AC01DB
:101E0000C801B7010E94C80F9B01AC01AB85BC851E
:101E100014966D917D918D919C9117970E94C80F9A
:101E2000E985FA856483758386839783E0919E05AF
:101E3000F0919F050190F081E02D8D819E81AF8111
:101E4000B88580839183A283B383E0916405F09188
:101E5000650581E090E09183808380910C069091EC
:101E60000D06A0910E06B0910F060196A11DB11DA1
:101E700080930C0690930D06A0930E06B0930F0668
:101E8000E0911B06F0911C0680916E0590916F0504
:101E9000A0917005B091710580839183A283B38373
:101EA0008091140690911506A0911606B091170620
:101EB0000196A11DB11D8093140690931506A09361
:101EC0001606B093170662960FB6F894DEBF0FBEE3
:101ED000CDBFCF91DF911F910F91FF90EF90DF90D9
:101EE000CF90BF90AF909F908F907F906F905F90BA
:101EF0004F903F902F9008958F929F92AF92BF92F4
:101F0000CF92DF92EF92FF920F931F93CF93DF93C5
:101F10000E9434080E94960AC0915902D0915A0238
:101F2000AA24BB2465018AEB882E912C8C0E9D1E61
:101F300015C00E940E087B018C01DC01CB018A19BF
:101F40009B09AC09BD09885E9340A040B04030F0C9
:101F50000E94450B0E94A40C570168018881998159
:101F6000892B21F4F4018081882319F30E94950ABA
:101F700080E090E0DF91CF911F910F91FF90EF9063
:101F8000DF90CF90BF90AF909F908F900895505862
:101F9000BB27AA270ED008C1F9D030F0FED020F020
:101FA00031F49F3F11F41EF4EEC00EF4E095E7FB10
:101FB000E4C0E92F0AD180F3BA17620773078407D8
:101FC000950718F071F49EF522C10EF4E0950B2EE2
:101FD000BA2FA02D0B01B90190010C01CA01A0017B
:101FE0001124FF27591B99F0593F50F4503E68F1D6
:101FF0001A16F040A22F232F342F4427585FF3CF17
:10200000469537952795A795F0405395C9F77EF4E7
:102010001F16BA0B620B730B840BBAF09150A1F030
:10202000FF0FBB1F661F771F881FC2F70EC0BA0FB6
:10203000621F731F841F48F4879577956795B7953E
:10204000F7959E3F08F0B3CF9395880F08F0992736
:10205000EE0F9795879508956CD008F481E0089568
:10206000BCD088F09F5790F0B92F9927B751A0F0B6
:10207000D1F0660F771F881F991F1AF0BA95C9F71C
:1020800012C0B13081F0C3D0B1E00895C0C0672F55
:10209000782F8827B85F39F0B93FCCF386957795CC
:1020A0006795B395D9F73EF49095809570956195B5
:1020B0007F4F8F4F9F4F0895E89409C097FB3EF4E0
:1020C00090958095709561957F4F8F4F9F4F992385
:1020D000A9F0F92F96E9BB279395F6958795779503
:1020E0006795B795F111F8CFFAF4BB0F11F460FFC3
:1020F0001BC06F5F7F4F8F4F9F4F16C0882311F01B
:1021000096E911C0772321F09EE8872F762F05C02E
:10211000662371F096E8862F70E060E02AF09A95C9
:10212000660F771F881FDAF7880F9695879597F9BE
:102130000895990F0008550FAA0BE0E8FEEF161658
:102140001706E807F907C0F012161306E407F507AB
:1021500098F0621B730B840B950B39F40A2661F01F
:10216000232B242B252B21F408950A2609F4A140C2
:10217000A6958FEF811D811D089597F99F6780E8CF
:1021800070E060E008959FEF80EC089500240A94C9
:102190001616170618060906089500240A94121642
:1021A0001306140605060895092E0394000C11F475
:1021B000882352F0BB0F40F4BF2B11F460FF04C022
:1021C0006F5F7F4F8F4F9F4F089557FD9058440F7B
:1021D000551F59F05F3F71F04795880F97FB991F86
:1021E00061F09F3F79F08795089512161306140643
:1021F000551FF2CF4695F1DF08C0161617061806D0
:10220000991FF1CF86957105610508940895E894AA
:10221000BB2766277727CB0197F908958ADF08F453
:102220008FEF08950BD0C0CFB1DF28F0B6DF18F0E4
:10223000952309F0A2CFA7CF1124EACFC6DFA0F3E0
:10224000959FD1F3950F50E0551F629FF001729F4B
:10225000BB27F00DB11D639FAA27F00DB11DAA1F6A
:10226000649F6627B00DA11D661F829F2227B00DB7
:10227000A11D621F739FB00DA11D621F839FA00D42
:10228000611D221F749F3327A00D611D231F849F92
:10229000600D211D822F762F6A2F11249F575040E9
:1022A0008AF0E1F088234AF0EE0FFF1FBB1F661F84
:1022B000771F881F91505040A9F79E3F510570F03D
:1022C0005CCFA6CF5F3FECF3983EDCF38695779525
:1022D0006795B795F795E7959F5FC1F7FE2B880F38
:1022E000911D9695879597F908959F9305D00F9026
:1022F00007FCEE5F31C047CF70DFE8F3E894EFEF03
:10230000BB273FE048EC5FE76B3D73078407950709
:1023100008F1FF279F57B25A6A4D7F40894CF04021
:1023200032F4BE556542704F8643FF4F0894EE1F4E
:10233000915030F0BB0F661F771F881FFF1FEBCF38
:102340009EE7882332F0BB0F661F771F881F9A9580
:10235000C1F79395E09511C0EF93E0FF06C0A2EAA4
:102360002AED3FE049EC5FEB24DE1EDF0F90039483
:1023700001FC9058E4EEF0E010C09F3F49F091500E
:1023800028F4869577956795B7959F5F80389F4F1E
:10239000880F9695879597F908959F938F937F93CC
:1023A0006F93FF93EF939B01AC013CDFEF91FF91A3
:1023B00005D02F913F914F915F9134CFDF93CF9311
:1023C0001F930F93FF92EF92DF927B018C01689431
:1023D00005C0DA2EEF0132DFFE01E894A5912591C8
:1023E000359145915591AEF3EF01E3DDFE01970183
:1023F000A801DA9479F7DF90EF90FF900F911F9189
:10240000CF91DF910895629FD001739FF001829F69
:10241000E00DF11D649FE00DF11D929FF00D839F73
:10242000F00D749FF00D659FF00D9927729FB00D10
:10243000E11DF91F639FB00DE11DF91FBD01CF0123
:1024400011240895A1E21A2EAA1BBB1BFD010DC089
:10245000AA1FBB1FEE1FFF1FA217B307E407F50754
:1024600020F0A21BB30BE40BF50B661F771F881F30
:10247000991F1A9469F760957095809590959B01C6
:10248000AC01BD01CF010895EE0FFF1F0590F4913F
:08249000E02D1994F894FFCF30
:102498006F64653300010000000000004040000048
:1024A800C84200000C42050000009A99993E0000BD
:1024B800003F0000803F000000009A99193F00C0CB
:1024C8007F440000803E000000000000000004007F
:1024D80000000000000000A4036B053A036B034BE7
:1024E80003940300000000290560050000003F0078
:1024F80000000000000000000000000000403F0055
:10250800000000398E633EABAAAA3E398EE33E0036
:00000001FF
