:100000000C9404010C942F060C9460060C94910639
:100010000C94C2060C94F3060C9424070C94550718
:100020000C9486070C9431010C9431010C9431012D
:100030000C9431010C9431010C9431010C94310178
:100040000C9431010C9431010C9431010C94310168
:100050000C9431010C9431010C9431010C94B707CC
:100060000C9431010C9433010C942F020C94310147
:100070000C9431010C9431010C9431010C94310138
:100080000C9431010C9431010C9431010C94310128
:100090000C9472010C946E020C9431010C94310199
:1000A0000C9431010C9431010C9431010C94310108
:1000B0000C9431010C9431010C9431010C943101F8
:1000C0000C9431010C9431010C9431010C94B10168
:1000D0000C94AD020C9431010C94F0010C94EC02E0
:1000E0000C94310100002100240027002A002D007B
:1000F0003000330001010000040107010A01000083
:100100002200250028002B002E00310034000201BF
:100110000000050108010B0100002000230026005B
:1001200029002C002F00320000010000030106010D
:10013000090105050505070508080808020202026D
:100140000A0A080804040404010101010101010173
:100150000303030303030303040707070C0C0C0C3E
:100160000C0C0C0C02020202060606060606060627
:100170000B0B0B0B0B0B0B0B0102102020080810B4
:100180002040102040800201020108040201010207
:1001900004081020408080402010080402018004E0
:1001A000020180402010080402010804020101023B
:1001B0000408102040800102040810204080000044
:1001C000090A02080B0C0D070603040100000000D9
:1001D000000000000000000000000000000000001F
:1001E0000000000000000000000011100F000000DF
:1001F00000000000000000000000000000000000FF
:1002000000000000D5030B0511241FBECFEFD1E283
:10021000DEBFCDBF00E00CBF12E0A0E0B2E0E0E046
:10022000FFE100E00BBF02C007900D92A236B107BC
:10023000D9F71BBE15E0A2E6B2E001C01D92AD34B5
:10024000B107E1F712E0C8E0D2E004C02297FE0156
:100250000E947A0FC430D107C9F70E94460D0C9452
:100260007E0F0C9400001F920F920FB60F920BB6E8
:100270000F9211242F933F934F938F939F93EF935C
:10028000FF938091C00082FD1DC04091C600209167
:10029000A2023091A3022F5F3F4F2F7330708091E5
:1002A000A4029091A5022817390771F0E091A202EB
:1002B000F091A302EE59FD4F40833093A3022093A7
:1002C000A20202C08091C600FF91EF919F918F9191
:1002D0004F913F912F910F900BBE0F900FBE0F903B
:1002E0001F9018951F920F920FB60F920BB60F9298
:1002F00011242F933F934F938F939F93EF93FF93EB
:100300008091C80082FD1DC04091CE0020912A033B
:1003100030912B032F5F3F4F2F73307080912C0350
:1003200090912D032817390771F0E0912A03F0917D
:100330002B03E651FD4F408330932B0320932A0378
:1003400002C08091CE00FF91EF919F918F914F91CC
:100350003F912F910F900BBE0F900FBE0F901F90EB
:1003600018951F920F920FB60F920BB60F92112491
:100370002F933F934F938F939F93EF93FF9380918E
:10038000D00082FD1DC04091D6002091B203309173
:10039000B3032F5F3F4F2F7330708091B403909160
:1003A000B5032817390771F0E091B203F091B30358
:1003B000EE58FC4F40833093B3032093B20302C046
:1003C0008091D600FF91EF919F918F914F913F9136
:1003D0002F910F900BBE0F900FBE0F901F9018958E
:1003E0001F920F920FB60F920BB60F9211242F93FC
:1003F0003F934F938F939F93EF93FF93809130019F
:1004000082FD1DC04091360120913A0430913B0499
:100410002F5F3F4F2F73307080913C0490913D04CB
:100420002817390771F0E0913A04F0913B04E65047
:10043000FC4F408330933B0420933A0402C08091E8
:100440003601FF91EF919F918F914F913F912F91A5
:100450000F900BBE0F900FBE0F901F9018951F921C
:100460000F920FB60F920BB60F9211242F933F935A
:100470008F939F93EF93FF932091E6023091E702D1
:100480008091E8029091E9022817390731F48091B0
:10049000C1008F7D8093C10014C0E091E802F0910B
:1004A000E902EA55FD4F20818091E8029091E9022E
:1004B00001968F7390709093E9028093E8022093E5
:1004C000C600FF91EF919F918F913F912F910F90D7
:1004D0000BBE0F900FBE0F901F9018951F920F929A
:1004E0000FB60F920BB60F9211242F933F938F9359
:1004F0009F93EF93FF9320916E0330916F03809150
:100500007003909171032817390731F48091C90065
:100510008F7D8093C90014C0E0917003F091710346
:10052000E25DFC4F208180917003909171030196F0
:100530008F73907090937103809370032093CE001B
:10054000FF91EF919F918F913F912F910F900BBE53
:100550000F900FBE0F901F9018951F920F920FB61D
:100560000F920BB60F9211242F933F938F939F936B
:10057000EF93FF932091F6033091F7038091F803F6
:100580009091F9032817390731F48091D1008F7DBC
:100590008093D10014C0E091F803F091F903EA547C
:1005A000FC4F20818091F8039091F90301968F739D
:1005B00090709093F9038093F8032093D600FF91F5
:1005C000EF919F918F913F912F910F900BBE0F90C4
:1005D0000FBE0F901F9018951F920F920FB60F929B
:1005E0000BB60F9211242F933F938F939F93EF930A
:1005F000FF9320917E0430917F048091800490913C
:1006000081042817390731F4809131018F7D80935F
:10061000310114C0E0918004F0918104E25CFB4F51
:100620002081809180049091810401968F73907055
:10063000909381048093800420933601FF91EF9181
:100640009F918F913F912F910F900BBE0F900FBEF6
:100650000F901F901895DC011C96ED91FC911D9751
:10066000E05CFF4F2191319180819181281B390BF2
:100670002F733070C9010895DC011C96ED91FC9137
:100680001D97E05CFF4F20813181E054F040DF0195
:10069000AE5BBF4F8D919C9111972817390719F4C4
:1006A0002FEF3FEF07C08D919C91E80FF91F8081DC
:1006B000282F30E0C9010895DC011C96ED91FC91D2
:1006C0001D97E05CFF4F20813181E054F040DF0155
:1006D000AE5BBF4F8D919C9111972817390719F484
:1006E0002FEF3FEF10C08D919C911197E80FF91FEC
:1006F00020818D919C91119701968F739070119626
:100700009C938E9330E0C9010895DC0191968C9101
:100710009197882339F05496ED91FC9155978081FB
:1007200086FFF9CF91961C920895CF93DF93EC0149
:10073000EE85FF85E05CFF4F20813181E054F04081
:100740002F5F3F4F2F733070DF01AE5BBF4F8D9136
:100750009C91119728173907D1F3E05CFF4F8081F6
:100760009181E054F040E80FF91F6083EE85FF852A
:10077000E05CFF4F31832083EE89FF89208181E097
:1007800090E00F8C02C0880F991F0A94E2F7282B83
:10079000208381E089A3EC89FD8980818064808346
:1007A00081E090E0DF91CF9108951F93109285042E
:1007B0001092840428EE33E040E050E02093860459
:1007C00030938704409388045093890467E472E06F
:1007D000709383046093820482E692E090938F0486
:1007E00080938E0486EA92E0909391048093900423
:1007F00085EC90E0909393048093920484EC90E0D5
:10080000909395048093940480EC90E090939704E7
:100810008093960481EC90E09093990480939804DF
:1008200082EC90E090939B0480939A0486EC90E095
:1008300090939D0480939C0414E010939E04B3E075
:10084000B0939F04A7E0A093A004F5E0F093A10467
:10085000E1E0E093A2041092A7041092A604209372
:10086000A8043093A9044093AA045093AB04709356
:10087000A5046093A4048AEE92E09093B10480935F
:10088000B0048EE293E09093B3048093B2048DECB5
:1008900090E09093B5048093B4048CEC90E0909336
:1008A000B7048093B60488EC90E09093B9048093E9
:1008B000B80489EC90E09093BB048093BA048AEC6E
:1008C00090E09093BD048093BC048EEC90E09093F4
:1008D000BF048093BE041093C004B093C104A093DE
:1008E000C204F093C304E093C4041092C9041092AC
:1008F000C8042093CA043093CB044093CC04509393
:10090000CD047093C7046093C60482E793E090938C
:10091000D3048093D20486EB93E09093D504809324
:10092000D40485ED90E09093D7048093D60484EDB1
:1009300090E09093D9048093D80480ED90E0909358
:10094000DB048093DA0481ED90E09093DD048093E2
:10095000DC0482ED90E09093DF048093DE0486ED6A
:1009600090E09093E1048093E0041093E204B0934C
:10097000E304A093E404F093E504E093E60410920A
:10098000EB041092EA042093EC043093ED044093BE
:10099000EE045093EF047093E9046093E8048AEF47
:1009A00093E09093F5048093F4048EE394E09093A5
:1009B000F7048093F60485E391E09093F904809323
:1009C000F80484E391E09093FB048093FA0480E3BD
:1009D00091E09093FD048093FC0481E391E0909377
:1009E000FF048093FE0482E391E0909301058093DD
:1009F000000586E391E09093030580930205109330
:100A00000405B0930505A0930605F0930705E09350
:100A100008051F91089587E592E090930B05809358
:100A20000A0510920C0510920D0510920E051092F9
:100A30000F0508958F929F92AF92BF92CF92DF924F
:100A4000EF92FF920F931F93CF93DF934C016B01B3
:100A50007C01AA24BB24C0E0D0E0C601F70162817A
:100A60004AE050E00E941D068C01C6016EE20E9421
:100A70008605080F191FA00EB11E21960894E11CCF
:100A8000F11CC330D10549F7C601F40165814AE084
:100A900050E00E941D069501280F391FC901DF9102
:100AA000CF911F910F91FF90EF90DF90CF90BF906B
:100AB000AF909F908F900895CF92DF92EF92FF9228
:100AC0000F931F93CF93DF937C016B018A01C0E0EA
:100AD000D0E00FC0D6016D916D01D701ED91FC9171
:100AE0000190F081E02DC7011995C80FD91F015061
:100AF00010400115110571F7CE01DF91CF911F91C3
:100B00000F91FF90EF90DF90CF900895DC01ED9171
:100B1000FC910190F081E02D19950895CF93DF931A
:100B2000EC016115710519F420E030E00FC0DB0124
:100B30000D900020E9F71197A61BB70BE881F9810A
:100B40000280F381E02DAD0119959C01C901DF916F
:100B5000CF9108954F925F927F928F929F92AF9222
:100B6000BF92CF92DF92EF92FF920F931F93DF938A
:100B7000CF93CDB7DEB7A1970FB6F894DEBF0FBE07
:100B8000CDBF2C01742ECB01223008F42AE019A22B
:100B900031E2C32ED12CCC0EDD1E822E9924AA2444
:100BA000BB24672D752FA50194010E94560F790172
:100BB0008A01C801B701A50194010E94370F472D92
:100BC000461B0894C108D1084A3014F4405D01C0A6
:100BD000495CF6014083E114F1040105110521F09F
:100BE0007E2C5F2DC801DDCFC201B6010E948E05AB
:100BF000A1960FB6F894DEBF0FBECDBFCF91DF91A7
:100C00001F910F91FF90EF90DF90CF90BF90AF902A
:100C10009F908F907F905F904F900895DC012115F9
:100C2000310541F4ED91FC910190F081E02D642FAC
:100C3000199508950E94AA050895EF92FF920F93C7
:100C40001F939A01E62EFF2400E010E0B801A701EF
:100C50000E940E061F910F91FF90EF9008951F9232
:100C60000F920FB60F920BB60F9211242F933F9352
:100C70004F935F936F937F938F939F93AF93BF93A4
:100C8000EF93FF938091140590911505892B29F01E
:100C9000E0911405F09115051995FF91EF91BF9121
:100CA000AF919F918F917F916F915F914F913F9104
:100CB0002F910F900BBE0F900FBE0F901F901895A5
:100CC0001F920F920FB60F920BB60F9211242F9313
:100CD0003F934F935F936F937F938F939F93AF93C4
:100CE000BF93EF93FF938091160590911705892B81
:100CF00029F0E0911605F09117051995FF91EF91F4
:100D0000BF91AF919F918F917F916F915F914F9123
:100D10003F912F910F900BBE0F900FBE0F901F9021
:100D200018951F920F920FB60F920BB60F921124C7
:100D30002F933F934F935F936F937F938F939F93E3
:100D4000AF93BF93EF93FF9380911805909119058E
:100D5000892B29F0E0911805F09119051995FF915B
:100D6000EF91BF91AF919F918F917F916F915F9123
:100D70004F913F912F910F900BBE0F900FBE0F9090
:100D80001F9018951F920F920FB60F920BB60F92ED
:100D900011242F933F934F935F936F937F938F9380
:100DA0009F93AF93BF93EF93FF9380911A05909118
:100DB0001B05892B29F0E0911A05F0911B05199567
:100DC000FF91EF91BF91AF919F918F917F916F9123
:100DD0005F914F913F912F910F900BBE0F900FBEDF
:100DE0000F901F9018951F920F920FB60F920BB68F
:100DF0000F9211242F933F934F935F936F937F93A1
:100E00008F939F93AF93BF93EF93FF9380911005C0
:100E100090911105892B29F0E0911005F0911105B1
:100E20001995FF91EF91BF91AF919F918F917F9114
:100E30006F915F914F913F912F910F900BBE0F904B
:100E40000FBE0F901F9018951F920F920FB60F9222
:100E50000BB60F9211242F933F934F935F936F9391
:100E60007F938F939F93AF93BF93EF93FF93809163
:100E7000120590911305892B29F0E0911205F0914C
:100E800013051995FF91EF91BF91AF919F918F91AC
:100E90007F916F915F914F913F912F910F900BBE7A
:100EA0000F900FBE0F901F9018951F920F920FB6C4
:100EB0000F920BB60F9211242F933F934F935F9392
:100EC0006F937F938F939F93AF93BF93EF93FF9312
:100ED00080911C0590911D05892B29F0E0911C053E
:100EE000F0911D051995FF91EF91BF91AF919F91E1
:100EF0008F917F916F915F914F913F912F910F90C3
:100F00000BBE0F900FBE0F901F9018951F920F925F
:100F10000FB60F920BB60F9211242F933F934F935E
:100F20005F936F937F938F939F93AF93BF93EF9351
:100F3000FF9380911E0590911F05892B29F0E09168
:100F40001E05F0911F051995FF91EF91BF91AF918B
:100F50009F918F917F916F915F914F913F912F91D1
:100F60000F900BBE0F900FBE0F901F9018951F9201
:100F70000F920FB60F9211242F933F938F939F934D
:100F8000AF93BF938091240590912505A0912605EC
:100F9000B0912705309128050196A11DB11D232F81
:100FA0002D5F2D3720F02D570196A11DB11D2093E7
:100FB00028058093240590932505A0932605B093DA
:100FC00027058091200590912105A0912205B091DF
:100FD00023050196A11DB11D809320059093210545
:100FE000A0932205B0932305BF91AF919F918F915C
:100FF0003F912F910F900FBE0F901F9018959FB7A4
:10100000F8942091200530912105409122055091BE
:10101000230586B5A89B06C08F3F21F02F5F3F4F69
:101020004F4F5F4F9FBF542F432F322F2227280F40
:10103000311D411D511D82E0220F331F441F551FDA
:101040008A95D1F7B901CA010895789484B5826070
:1010500084BD84B5816084BD85B5826085BD85B55C
:10106000816085BDEEE6F0E0808181608083E1E80B
:10107000F0E0108280818260808380818160808343
:10108000E0E8F0E0808181608083E1EBF0E0808146
:1010900084608083E0EBF0E0808181608083E1E91F
:1010A000F0E0808182608083808181608083E0E9DC
:1010B000F0E0808181608083E1EAF0E080818260FD
:1010C0008083808181608083E0EAF0E080818160BC
:1010D0008083E1E2F1E080818260808380818160B1
:1010E0008083E0E2F1E0808181608083EAE7F0E0E4
:1010F0008081846080838081826080838081816040
:1011000080838081806880831092C1000895382F89
:10111000863308F0365320917B00832F8695869581
:10112000869590E08170907043E0880F991F4A95F2
:10113000E1F7277F282B20937B00377080910002F6
:101140008295880F880F807C832B80937C00809110
:101150007A00806480937A0080917A0086FDFCCFCB
:101160002091780040917900942F80E030E0282B86
:10117000392BC90108951F93CF93DF93182FEB01EB
:1011800061E00E949B09209709F4CAC0CF3FD105B6
:1011900009F4C9C0E12FF0E0E254FE4F8491893098
:1011A00009F466C08A30B0F48430F1F1853040F43F
:1011B000823059F1833070F5813009F0AEC020C023
:1011C000873009F443C0883008F048C0863009F001
:1011D000A4C034C08D3009F478C08E3038F48B3020
:1011E00009F45AC08C3008F066C04CC0803109F454
:1011F00080C0813109F487C08F3009F08EC06FC084
:1012000084B5806884BDC7BD92C084B5806284BD4A
:10121000C8BD8DC080918000806880938000D0938D
:101220008900C093880083C0809180008062809391
:101230008000D0938B00C0938A0079C08091B00069
:1012400080688093B000C093B30071C08091B000FB
:1012500080628093B000C093B40069C08091900018
:10126000806880939000D0939900C09398005FC0ED
:1012700080919000806280939000D0939B00C093F7
:101280009A0055C080919000886080939000D09320
:101290009D00C0939C004BC08091A000806880930B
:1012A000A0008091A0008F7B8093A000D093A90024
:1012B000C093A8003CC08091A00080628093A000F1
:1012C000D093AB00C093AA0032C08091A000886088
:1012D0008093A000D093AD00C093AC0028C0809153
:1012E0002001806880932001D0932901C0932801B8
:1012F0001EC080912001806280932001D0932B0139
:10130000C0932A0114C0809120018860809320013D
:10131000D0932D01C0932C010AC0C038D1051CF414
:10132000812F60E002C0812F61E00E944E0ADF91B0
:10133000CF911F910895CF93DF93482F50E0CA01BA
:1013400088589E4FFC0134914E5C5E4FFA018491A7
:10135000882369F190E0880F991FFC01EC51FF4F41
:10136000A591B491FC01E250FF4FC591D491662341
:1013700051F42FB7F8948C91932F909589238C93E7
:10138000888189230BC0623061F42FB7F8948C9167
:10139000932F909589238C938881832B88832FBFEB
:1013A00006C09FB7F8948C91832B8C939FBFDF91DD
:1013B000CF910895893009F449C08A30A0F484306F
:1013C00051F1853040F4823079F1833000F581307D
:1013D00009F063C026C0873079F1883098F58630EF
:1013E00009F05BC025C08D3009F442C08E3028F46E
:1013F0008B30B1F18C30C0F52DC0803109F442C082
:10140000813109F445C08F3009F047C037C0809161
:1014100080008F7703C0809180008F7D8093800053
:10142000089584B58F7702C084B58F7D84BD0895FB
:101430008091B0008F7703C08091B0008F7D809342
:10144000B0000895809190008F7707C08091900040
:101450008F7D03C080919000877F809390000895D6
:101460008091A0008F7707C08091A0008F7D03C07E
:101470008091A000877F8093A00008958091200133
:101480008F7703C0809120018F7D80932001089584
:1014900080912001877F809320010895FF920F9310
:1014A0001F93F62E482F50E0CA0182549E4FFC0134
:1014B0002491CA0188589E4FFC0114914E5C5E4FE6
:1014C000FA0104910023C9F0222319F0822F0E940F
:1014D000DA09E02FF0E0EE0FFF1FE250FF4FA59179
:1014E000B4919FB7F894FF2021F48C91109581233B
:1014F00002C08C91812B8C939FBF1F910F91FF9005
:101500000895862F60E00E949B09089580912D0523
:1015100090912E05A0912F05B091300580933F0545
:1015200090934005A0934105B09342058091290511
:1015300090912A05A0912B05B0912C05809343052D
:1015400090934405A0934505B093460580913505D9
:1015500090913605A0913705B091380580934705E5
:1015600090934805A0934905B0934A0580913B05A7
:1015700090913C05A0913D05B0913E050196A11DBD
:10158000B11D80933B0590933C05A0933D05B0931E
:101590003E050895089586E0E9E3F5E0DF011D9238
:1015A0008A95E9F780E1E9E2F5E0DF011D928A958D
:1015B000E9F78EE0EFE3F5E0DF011D928A95E9F7A8
:1015C00060913D0270913E0280913F0290914002F5
:1015D0000E94810A8091010261E00E949B09809132
:1015E000050261E00E949B09809111029091120214
:1015F000A0911302B091140280933F05909340058F
:10160000A0934105B093420580912102909122025E
:10161000A0912302B0912402809343059093440546
:10162000A0934505B093460580912502909126022E
:10163000A0912702B0912802809347059093480516
:10164000A0934905B0934A0510924B0510924C05A2
:1016500008956F927F928F929F92AF92BF92CF9296
:10166000DF92EF92FF920F931F9380913D020E94B1
:1016700087086C0160913B0570913C0580913D05A8
:1016800090913E050E941E0E2AE037ED43E25CE396
:101690000E94D40E2091150230911602409117023B
:1016A000509118020E94E90D88234CF4E090190231
:1016B000F0901A0200911B0210911C0208C0E090E9
:1016C0001D02F0901E0200911F02109120026091F5
:1016D0004305709144058091450590914605209100
:1016E0004705309148054091490550914A050E94AF
:1016F000840D9F772091290230912A0240912B027C
:1017000050912C020E94E90D87FD05C020E030E0D9
:1017100040E050E004C020E030E040E85FE380912A
:101720004B05882321F481E080934B054CC0C80110
:10173000B7010E94D40E7B018C0180914C05813051
:1017400019F08230B1F50BC0C801B70120E030E0DC
:1017500040E85FE30E94E90D882371F034C0C801BE
:10176000B70120E030E040E85FE30E94E90D882304
:1017700091F481E080934C0560913F0570914005A4
:10178000809141059091420520E030E040E85FE320
:101790000E94850D3AC0C801B70120E030E040E862
:1017A0005FEB0E94E90D8823C1F583E080934C052F
:1017B0001EC0C801B70120E030E040E85FEB0E94A6
:1017C000E90D8823A1F082E080934C0580913F05CC
:1017D00090914005A0914105B0914205809331055B
:1017E00090933205A0933305B093340516C06091F1
:1017F0003F0570914005809141059091420520E0A0
:1018000030E040E85FE30E94840D609331057093FF
:1018100032058093330590933405E0903105F090C4
:1018200032050091330510913405E0922D05F092B8
:101830002E0500932F0510933005C801B70120E055
:1018400030E040EC50E40E94D00E181664F480E0C2
:1018500090E0A0E8BFE380932D0590932E05A09320
:101860002F05B0933005C801B70120E030E040E813
:101870005FE30E94E90D882364F480E090E0A0EC2F
:10188000B0E480932D0590932E05A0932F05B0937F
:101890003005E0902D05F0902E0500912F05109158
:1018A0003005C801B70120E030E040E85FE30E9466
:1018B000E90D88235CF40F2EF0E0EF2EF0E0FF2E10
:1018C000F0E80F2FFFE31F2FF02D14C0C801B70160
:1018D00020E030E040EC50E40E94D00E181654F4A2
:1018E0000F2EF0E0EF2EF0E0FF2EF0EC0F2FF0E4E3
:1018F0001F2FF02DC801B7010E94ED0DDC01CB01B7
:10190000865A9D4FFC016081772767FD7095872F70
:10191000972F0E94200E60933505709336058093B3
:1019200037059093380520912D0230912E02409179
:101930002F02509130020E94D40E7B018C01B6011F
:1019400080E090E0209141023091420240E050E07E
:101950000E94370F0E941E0E20E030E040E053EB63
:101960000E94D40E9B01AC01C801B7010E94850DF5
:101970002091310230913202409133025091340271
:101980000E94D40E5B016C01209135023091360229
:1019900040913702509138020E94D00E88234CF0BB
:1019A000E0900D02F0900E0200910F0210911002D3
:1019B00008C0E0900902F0900A0200910B02109119
:1019C0000C02C601B501A80197010E94D40E3B018B
:1019D0004C01E89497F8C401B30120E030E040E8FE
:1019E00053E40E94E90D87FD02C06FEF04C0C401FB
:1019F000B3010E94F20D8091010270E00E94BB08C9
:101A0000C801B7012091390230913A0240913B025E
:101A100050913C020E94840D9B01AC01C601B501AE
:101A20000E94D40E7B018C01E89417F9C801B7011C
:101A300020E030E040E853E40E94E90D87FD02C059
:101A40006FEF04C0C801B7010E94F20D809105023A
:101A500070E00E94BB08C401B301A80197010E9475
:101A6000850D6093290570932A0580932B0590932B
:101A70002C051F910F91FF90EF90DF90CF90BF90BA
:101A8000AF909F908F907F906F900895AF92BF928C
:101A9000CF92DF92EF92FF920F931F93CF93DF933A
:101AA0000E9425080E94CB0AC0915902D0915A0287
:101AB000AA24BB24650115C00E94FF077B018C018D
:101AC000DC01CB018A199B09AC09BD098051974201
:101AD000A040B04030F00E94290B0E94860A5701B6
:101AE000680188819981892B39F30E94CA0A80E0B4
:101AF00090E0DF91CF911F910F91FF90EF90DF90D9
:101B0000CF90BF90AF9008955058BB27AA270ED012
:101B10000DC1FED030F003D120F031F49F3F11F41D
:101B20001EF4F3C00EF4E095E7FBE9C0E92F0FD1F6
:101B300080F3BA17620773078407950718F071F4EA
:101B40009EF527C10EF4E0950B2EBA2FA02D0B01A8
:101B5000B90190010C01CA01A0011124FF27591BF2
:101B600099F0593F50F4503E68F11A16F040A22FF8
:101B7000232F342F4427585FF3CF46953795279569
:101B8000A795F0405395C9F77EF41F16BA0B620B68
:101B9000730B840BBAF09150A1F0FF0FBB1F661FAF
:101BA000771F881FC2F70EC0BA0F621F731F841FF2
:101BB00048F4879577956795B795F7959E3F08F018
:101BC000B3CF9395880F08F09927EE0F97958795D7
:101BD000089571D008F481E0089504D06894B1119B
:101BE000D9C00895BCD088F09F5790F0B92F99279D
:101BF000B751A0F0D1F0660F771F881F991F1AF018
:101C0000BA95C9F712C0B13081F0C3D0B1E00895E0
:101C1000C0C0672F782F8827B85F39F0B93FCCF361
:101C2000869577956795B395D9F73EF4909580950D
:101C3000709561957F4F8F4F9F4F0895E89409C02D
:101C400097FB3EF490958095709561957F4F8F4FEF
:101C50009F4F9923A9F0F92F96E9BB279395F69505
:101C6000879577956795B795F111F8CFFAF4BB0F83
:101C700011F460FF1BC06F5F7F4F8F4F9F4F16C0E7
:101C8000882311F096E911C0772321F09EE8872F71
:101C9000762F05C0662371F096E8862F70E060E02D
:101CA0002AF09A95660F771F881FDAF7880F9695A6
:101CB000879597F90895990F0008550FAA0BE0E84A
:101CC000FEEF16161706E807F907C0F012161306FE
:101CD000E407F50798F0621B730B840B950B39F43E
:101CE0000A2661F0232B242B252B21F408950A26A4
:101CF00009F4A140A6958FEF811D811D089597F9E4
:101D00009F6780E870E060E008959FEF80EC0895A1
:101D100000240A94161617061806090608950024CA
:101D20000A9412161306140605060895092E039444
:101D3000000C11F4882352F0BB0F40F4BF2B11F4B8
:101D400060FF04C06F5F7F4F8F4F9F4F089557FD17
:101D50009058440F551F59F05F3F71F04795880F19
:101D600097FB991F61F09F3F79F0879508951216B0
:101D700013061406551FF2CF4695F1DF08C016165C
:101D800017061806991FF1CF86957105610508940D
:101D90000895E894BB2766277727CB0197F9089524
:101DA0008ADF08F48FEF08950BD0C0CFB1DF28F0A1
:101DB000B6DF18F0952309F0A2CFA7CF1124EACF00
:101DC000C6DFA0F3959FD1F3950F50E0551F629F9A
:101DD000F001729FBB27F00DB11D639FAA27F00D84
:101DE000B11DAA1F649F6627B00DA11D661F829FAB
:101DF0002227B00DA11D621F739FB00DA11D621F90
:101E0000839FA00D611D221F749F3327A00D611DAC
:101E1000231F849F600D211D822F762F6A2F11248E
:101E20009F5750408AF0E1F088234AF0EE0FFF1FE1
:101E3000BB1F661F771F881F91505040A9F79E3F18
:101E4000510570F05CCFA6CF5F3FECF3983EDCF31A
:101E5000869577956795B795F795E7959F5FC1F755
:101E6000FE2B880F911D9695879597F90895629F8F
:101E7000D001739FF001829FE00DF11D649FE00D82
:101E8000F11D929FF00D839FF00D749FF00D659FE3
:101E9000F00D9927729FB00DE11DF91F639FB00DE2
:101EA000E11DF91FBD01CF0111240895A1E21A2EF1
:101EB000AA1BBB1BFD010DC0AA1FBB1FEE1FFF1FEE
:101EC000A217B307E407F50720F0A21BB30BE40B3E
:101ED000F50B661F771F881F991F1A9469F7609585
:101EE0007095809590959B01AC01BD01CF0108953F
:101EF000EE0FFF1F0590F491E02D1994F894FFCF99
:101F00000105000000070000000000000000008044
:101F10003F00000000000000000000000000008002
:101F20003F000000000000000000002041CDCC4C2C
:101F30003E00803B45000000000000803F020000A2
:101F40000020800000000095035C052B035C033C2F
:101F5000038503000000001A05390501020304038C
:021F600002007D
:00000001FF
