:100000000C9404010C94B6060C94E7060C941807A3
:100010000C9449070C947A070C94AB070C94DC07FA
:100020000C940D080C9431010C9431010C943101A5
:100030000C9431010C9431010C9431010C94310178
:100040000C9431010C9431010C9431010C94310168
:100050000C9431010C9431010C9431010C943E0844
:100060000C9431010C9433010C942F020C94310147
:100070000C9431010C9431010C9431010C94310138
:100080000C9431010C9431010C9431010C94310128
:100090000C9472010C946E020C9431010C94310199
:1000A0000C9431010C9431010C9431010C94310108
:1000B0000C9431010C9431010C9431010C943101F8
:1000C0000C9431010C9431010C9431010C94B10168
:1000D0000C94AD020C9431010C94F0010C94EC02E0
:1000E0000C94310100002100240027002A002D007B
:1000F0003000330001010000040107010A01000083
:100100002200250028002B002E00310034000201BF
:100110000000050108010B0100002000230026005B
:1001200029002C002F00320000010000030106010D
:10013000090105050505070508080808020202026D
:100140000A0A080804040404010101010101010173
:100150000303030303030303040707070C0C0C0C3E
:100160000C0C0C0C02020202060606060606060627
:100170000B0B0B0B0B0B0B0B0102102020080810B4
:100180002040102040800201020108040201010207
:1001900004081020408080402010080402018004E0
:1001A000020180402010080402010804020101023B
:1001B0000408102040800102040810204080000044
:1001C000090A02080B0C0D070603040100000000D9
:1001D000000000000000000000000000000000001F
:1001E0000000000000000000000011100F000000DF
:1001F00000000000000000000000000000000000FF
:10020000000000005C04920511241FBECFEFD1E274
:10021000DEBFCDBF00E00CBF12E0A0E0B2E0EAEB31
:10022000F0E200E00BBF02C007900D92A435B107C9
:10023000D9F71BBE15E0A4E5B2E001C01D92A332C0
:10024000B107E1F712E0C8E0D2E004C02297FE0156
:100250000E945710C430D107C9F70E94C60D0C94F4
:100260005B100C9400001F920F920FB60F920BB60A
:100270000F9211242F933F934F938F939F93EF935C
:10028000FF938091C00082FD1DC04091C600209167
:100290009402309195022F5F3F4F2F733070809101
:1002A0009602909197022817390771F0E091940215
:1002B000F0919502EC5AFD4F4083309395022093C4
:1002C000940202C08091C600FF91EF919F918F919F
:1002D0004F913F912F910F900BBE0F900FBE0F903B
:1002E0001F9018951F920F920FB60F920BB60F9298
:1002F00011242F933F934F938F939F93EF93FF93EB
:100300008091C80082FD1DC04091CE0020911C0349
:1003100030911D032F5F3F4F2F73307080911E036C
:1003200090911F032817390771F0E0911C03F09199
:100330001D03E452FD4F408330931D0320931C03A3
:1003400002C08091CE00FF91EF919F918F914F91CC
:100350003F912F910F900BBE0F900FBE0F901F90EB
:1003600018951F920F920FB60F920BB60F92112491
:100370002F933F934F938F939F93EF93FF9380918E
:10038000D00082FD1DC04091D6002091A403309181
:10039000A5032F5F3F4F2F7330708091A60390917C
:1003A000A7032817390771F0E091A403F091A50382
:1003B000EC59FC4F40833093A5032093A40302C063
:1003C0008091D600FF91EF919F918F914F913F9136
:1003D0002F910F900BBE0F900FBE0F901F9018958E
:1003E0001F920F920FB60F920BB60F9211242F93FC
:1003F0003F934F938F939F93EF93FF93809130019F
:1004000082FD1DC04091360120912C0430912D04B5
:100410002F5F3F4F2F73307080912E0490912F04E7
:100420002817390771F0E0912C04F0912D04E45164
:10043000FC4F408330932D0420932C0402C0809104
:100440003601FF91EF919F918F914F913F912F91A5
:100450000F900BBE0F900FBE0F901F9018951F921C
:100460000F920FB60F920BB60F9211242F933F935A
:100470008F939F93EF93FF932091D8023091D902ED
:100480008091DA029091DB022817390731F48091CC
:10049000C1008F7D8093C10014C0E091DA02F09119
:1004A000DB02E856FD4F20818091DA029091DB0259
:1004B00001968F7390709093DB028093DA02209301
:1004C000C600FF91EF919F918F913F912F910F90D7
:1004D0000BBE0F900FBE0F901F9018951F920F929A
:1004E0000FB60F920BB60F9211242F933F938F9359
:1004F0009F93EF93FF93209160033091610380916C
:100500006203909163032817390731F48091C90081
:100510008F7D8093C90014C0E0916203F091630362
:10052000E05EFC4F2081809162039091630301960D
:100530008F73907090936303809362032093CE0037
:10054000FF91EF919F918F913F912F910F900BBE53
:100550000F900FBE0F901F9018951F920F920FB61D
:100560000F920BB60F9211242F933F938F939F936B
:10057000EF93FF932091E8033091E9038091EA0320
:100580009091EB032817390731F48091D1008F7DCA
:100590008093D10014C0E091EA03F091EB03E85599
:1005A000FC4F20818091EA039091EB0301968F73B9
:1005B00090709093EB038093EA032093D600FF9111
:1005C000EF919F918F913F912F910F900BBE0F90C4
:1005D0000FBE0F901F9018951F920F920FB60F929B
:1005E0000BB60F9211242F933F938F939F93EF930A
:1005F000FF93209170043091710480917204909166
:1006000073042817390731F4809131018F7D80936D
:10061000310114C0E0917204F0917304E05DFB4F6E
:100620002081809172049091730401968F73907071
:10063000909373048093720420933601FF91EF919D
:100640009F918F913F912F910F900BBE0F900FBEF6
:100650000F901F901895AF92BF92DF92EF92FF928A
:100660000F931F93CF93DF93EC017A018B01DD246D
:10067000403081EE580780E0680780E0780711F08D
:10068000DD24D39491E0A92EB12CEC89FD89DD20E5
:1006900069F0C50108A002C0880F991F0A94E2F70B
:1006A000808360E079E08DE390E005C0108260E82F
:1006B00074E88EE190E0A80197010E943310215068
:1006C000304040405040569547953795279580E1FA
:1006D0002030380720F0DD2011F0DD24D6CFE88966
:1006E000F9893083EA89FB89208319A2EE89FF8981
:1006F000408121E030E0C9010C8C02C0880F991FB5
:100700000A94E2F7482B4083EE89FF894081C901B2
:100710000D8C02C0880F991F0A94E2F7482B408382
:10072000EE89FF894081C9010E8C02C0880F991F94
:100730000A94E2F7482B4083EE89FF8980810F8C71
:1007400002C0220F331F0A94E2F72095282320834A
:10075000DF91CF911F910F91FF90EF90DF90BF90AD
:10076000AF900895DC011C96ED91FC911D97E05C23
:10077000FF4F2191319180819181281B390B2F737B
:100780003070C9010895DC011C96ED91FC911D9714
:10079000E05CFF4F20813181E054F040DF01AE5B2F
:1007A000BF4F8D919C9111972817390719F42FEF9E
:1007B0003FEF07C08D919C91E80FF91F8081282F92
:1007C00030E0C9010895DC011C96ED91FC911D9764
:1007D000E05CFF4F20813181E054F040DF01AE5BEF
:1007E000BF4F8D919C9111972817390719F42FEF5E
:1007F0003FEF10C08D919C911197E80FF91F208158
:100800008D919C91119701968F73907011969C9386
:100810008E9330E0C9010895DC0191968C919197F7
:10082000882339F05496ED91FC915597808186FF8D
:10083000F9CF91961C920895CF93DF93EC01EE854A
:10084000FF85E05CFF4F20813181E054F0402F5F55
:100850003F4F2F733070DF01AE5BBF4F8D919C9186
:10086000119728173907D1F3E05CFF4F8081918100
:10087000E054F040E80FF91F6083EE85FF85E05CEF
:10088000FF4F31832083EE89FF89208181E090E052
:100890000F8C02C0880F991F0A94E2F7282B20833F
:1008A00081E089A3EC89FD8980818064808381E077
:1008B00090E0DF91CF9108951F93109277041092EA
:1008C000760428EE33E040E050E020937804309343
:1008D000790440937A0450937B0460E472E070934F
:1008E00075046093740484E592E09093810480938E
:1008F000800488E992E0909383048093820485ECDD
:1009000090E0909385048093840484EC90E090932D
:1009100087048093860480EC90E090938904809310
:10092000880481EC90E090938B0480938A0482EC9D
:1009300090E090938D0480938C0486EC90E09093EB
:100940008F0480938E0414E010939004B3E0B0936E
:100950009104A7E0A0939204F5E0F0939304E1E002
:10096000E0939404109299041092980420939A04AE
:1009700030939B0440939C0450939D047093970480
:10098000609396048CED92E09093A3048093A2046C
:1009900080E293E09093A5048093A4048DEC90E012
:1009A0009093A7048093A6048CEC90E09093A90404
:1009B0008093A80488EC90E09093AB048093AA0401
:1009C00089EC90E09093AD048093AC048AEC90E0C5
:1009D0009093AF048093AE048EEC90E09093B104BA
:1009E0008093B0041093B204B093B304A093B40402
:1009F000F093B504E093B6041092BB041092BA04CD
:100A00002093BC043093BD044093BE045093BF04B4
:100A10007093B9046093B80484E693E09093C5049E
:100A20008093C40488EA93E09093C7048093C6043B
:100A300085ED90E09093C9048093C80484ED90E024
:100A40009093CB048093CA0480ED90E09093CD0402
:100A50008093CC0481ED90E09093CF048093CE04FA
:100A600082ED90E09093D1048093D00486ED90E0E5
:100A70009093D3048093D2041093D404B093D504FC
:100A8000A093D604F093D704E093D8041092DD0429
:100A90001092DC042093DE043093DF044093E004E2
:100AA0005093E1047093DB046093DA048CEE93E0DE
:100AB0009093E7048093E60480E394E09093E90444
:100AC0008093E80485E391E09093EB048093EA043B
:100AD00084E391E09093ED048093EC0480E391E053
:100AE0009093EF048093EE0481E391E09093F104FE
:100AF0008093F00482E391E09093F3048093F204F6
:100B000086E391E09093F5048093F4041093F60447
:100B1000B093F704A093F804F093F904E093FA0477
:100B20001F91089580E592E09093FD048093FC046A
:100B30001092FE041092FF0410920005109201051D
:100B400008958F929F92AF92BF92CF92DF92EF92D1
:100B5000FF920F931F93CF93DF934C016B017C01A6
:100B6000AA24BB24C0E0D0E0C601F70162814AE0BC
:100B700050E00E94A4068C01C6016EE20E940D06A0
:100B8000080F191FA00EB11E21960894E11CF11C3C
:100B9000C330D10549F7C601F40165814AE050E050
:100BA0000E94A4069501280F391FC901DF91CF913A
:100BB0001F910F91FF90EF90DF90CF90BF90AF907B
:100BC0009F908F900895CF92DF92EF92FF920F93B4
:100BD0001F93CF93DF937C016B018A01C0E0D0E0CB
:100BE0000FC0D6016D916D01D701ED91FC9101907F
:100BF000F081E02DC7011995C80FD91F0150104091
:100C00000115110571F7CE01DF91CF911F910F9161
:100C1000FF90EF90DF90CF900895DC01ED91FC9173
:100C20000190F081E02D19950895CF93DF93EC01A9
:100C30006115710519F420E030E00FC0DB010D9063
:100C40000020E9F71197A61BB70BE881F981028014
:100C5000F381E02DAD0119959C01C901DF91CF9180
:100C600008954F925F927F928F929F92AF92BF9220
:100C7000CF92DF92EF92FF920F931F93DF93CF9368
:100C8000CDB7DEB7A1970FB6F894DEBF0FBECDBFCC
:100C90002C01742ECB01223008F42AE019A231E293
:100CA000C32ED12CCC0EDD1E822E9924AA24BB2467
:100CB000672D752FA50194010E94331079018A01D7
:100CC000C801B701A50194010E941410472D461BCD
:100CD0000894C108D1084A3014F4405D01C0495C51
:100CE000F6014083E114F1040105110521F07E2C89
:100CF0005F2DC801DDCFC201B6010E941506A19685
:100D00000FB6F894DEBF0FBECDBFCF91DF911F911C
:100D10000F91FF90EF90DF90CF90BF90AF909F909A
:100D20008F907F905F904F900895DC0121153105E1
:100D300041F4ED91FC910190F081E02D642F199523
:100D400008950E9431060895EF92FF920F931F932A
:100D50009A01E62EFF2400E010E0B801A7010E94EE
:100D600095061F910F91FF90EF9008951F920F929B
:100D70000FB60F920BB60F9211242F933F934F9300
:100D80005F936F937F938F939F93AF93BF93EF93F3
:100D9000FF938091060590910705892B29F0E0913A
:100DA0000605F09107051995FF91EF91BF91AF915D
:100DB0009F918F917F916F915F914F913F912F9173
:100DC0000F900BBE0F900FBE0F901F9018951F92A3
:100DD0000F920FB60F920BB60F9211242F933F93E1
:100DE0004F935F936F937F938F939F93AF93BF9333
:100DF000EF93FF938091080590910905892B29F0C5
:100E0000E0910805F09109051995FF91EF91BF91C7
:100E1000AF919F918F917F916F915F914F913F9192
:100E20002F910F900BBE0F900FBE0F901F90189533
:100E30001F920F920FB60F920BB60F9211242F93A1
:100E40003F934F935F936F937F938F939F93AF9352
:100E5000BF93EF93FF9380910A0590910B05892B27
:100E600029F0E0910A05F0910B051995FF91EF919A
:100E7000BF91AF919F918F917F916F915F914F91B2
:100E80003F912F910F900BBE0F900FBE0F901F90B0
:100E900018951F920F920FB60F920BB60F92112456
:100EA0002F933F934F935F936F937F938F939F9372
:100EB000AF93BF93EF93FF9380910C0590910D0535
:100EC000892B29F0E0910C05F0910D051995FF9102
:100ED000EF91BF91AF919F918F917F916F915F91B2
:100EE0004F913F912F910F900BBE0F900FBE0F901F
:100EF0001F9018951F920F920FB60F920BB60F927C
:100F000011242F933F934F935F936F937F938F930E
:100F10009F93AF93BF93EF93FF93809102059091BE
:100F20000305892B29F0E0910205F091030519953D
:100F3000FF91EF91BF91AF919F918F917F916F91B1
:100F40005F914F913F912F910F900BBE0F900FBE6D
:100F50000F901F9018951F920F920FB60F920BB61D
:100F60000F9211242F933F934F935F936F937F932F
:100F70008F939F93AF93BF93EF93FF93809104055B
:100F800090910505892B29F0E0910405F091050564
:100F90001995FF91EF91BF91AF919F918F917F91A3
:100FA0006F915F914F913F912F910F900BBE0F90DA
:100FB0000FBE0F901F9018951F920F920FB60F92B1
:100FC0000BB60F9211242F933F934F935F936F9320
:100FD0007F938F939F93AF93BF93EF93FF938091F2
:100FE0000E0590910F05892B29F0E0910E05F091E7
:100FF0000F051995FF91EF91BF91AF919F918F913F
:101000007F916F915F914F913F912F910F900BBE08
:101010000F900FBE0F901F9018951F920F920FB652
:101020000F920BB60F9211242F933F934F935F9320
:101030006F937F938F939F93AF93BF93EF93FF93A0
:101040008091100590911105892B29F0E0911005F0
:10105000F09111051995FF91EF91BF91AF919F917B
:101060008F917F916F915F914F913F912F910F9051
:101070000BBE0F900FBE0F901F9018951F920F92EE
:101080000FB60F9211242F933F938F939F93AF939B
:10109000BF938091160590911705A0911805B09106
:1010A000190530911A050196A11DB11D232F2D5F41
:1010B0002D3720F02D570196A11DB11D20931A0543
:1010C0008093160590931705A0931805B093190502
:1010D0008091120590911305A0911405B09115050A
:1010E0000196A11DB11D8093120590931305A09345
:1010F0001405B0931505BF91AF919F918F913F91CA
:101100002F910F900FBE0F901F9018959FB7F894D6
:101110002091120530911305409114055091150549
:1011200086B5A89B06C08F3F21F02F5F3F4F4F4FE2
:101130005F4F9FBF542F432F322F2227280F311D7F
:10114000411D511D82E0220F331F441F551F8A95F8
:10115000D1F7B901CA010895789484B5826084BD3D
:1011600084B5816084BD85B5826085BD85B58160AB
:1011700085BDEEE6F0E0808181608083E1E8F0E00B
:101180001082808182608083808181608083E0E83A
:10119000F0E0808181608083E1EBF0E08081846019
:1011A0008083E0EBF0E0808181608083E1E9F0E022
:1011B000808182608083808181608083E0E9F0E0CB
:1011C000808181608083E1EAF0E0808182608083B9
:1011D000808181608083E0EAF0E0808181608083AB
:1011E000E1E2F1E0808182608083808181608083A0
:1011F000E0E2F1E0808181608083EAE7F0E08081D5
:10120000846080838081826080838081816080832C
:101210008081806880831092C10008951F93CF93CE
:10122000DF93182FEB0161E00E94EE09209709F48B
:10123000CAC0CF3FD10509F4C9C0E12FF0E0E254A4
:10124000FE4F8491893009F466C08A30B0F484304E
:10125000F1F1853040F4823059F1833070F58130FE
:1012600009F0AEC020C0873009F443C0883008F0D0
:1012700048C0863009F0A4C034C08D3009F478C06D
:101280008E3038F48B3009F45AC08C3008F066C0C8
:101290004CC0803109F480C0813109F487C08F309F
:1012A00009F08EC06FC084B5806884BDC7BD92C090
:1012B00084B5806284BDC8BD8DC080918000806887
:1012C00080938000D0938900C093880083C0809170
:1012D0008000806280938000D0938B00C0938A004E
:1012E00079C08091B00080688093B000C093B30053
:1012F00071C08091B00080628093B000C093B40050
:1013000069C080919000806880939000D09399008C
:10131000C09398005FC0809190008062809390009D
:10132000D0939B00C0939A0055C080919000886034
:1013300080939000D0939D00C0939C004BC08091FF
:10134000A00080688093A0008091A0008F7B809394
:10135000A000D093A900C093A8003CC08091A00039
:1013600080628093A000D093AB00C093AA0032C0EB
:101370008091A00088608093A000D093AD00C093BE
:10138000AC0028C080912001806880932001D09318
:101390002901C09328011EC08091200180628093A2
:1013A0002001D0932B01C0932A0114C08091200109
:1013B000886080932001D0932D01C0932C010AC036
:1013C000C038D1051CF4812F60E002C0812F61E09C
:1013D0000E94A10ADF91CF911F910895CF93DF93CF
:1013E000482F50E0CA0188589E4FFC0134914E5C52
:1013F0005E4FFA018491882369F190E0880F991F6C
:10140000FC01EC51FF4FA591B491FC01E250FF4F5C
:10141000C591D491662351F42FB7F8948C91932FF2
:10142000909589238C93888189230BC0623061F465
:101430002FB7F8948C91932F909589238C93888162
:10144000832B88832FBF06C09FB7F8948C91832B82
:101450008C939FBFDF91CF910895893009F449C0E3
:101460008A30A0F4843051F1853040F4823079F133
:10147000833000F5813009F063C026C0873079F1F0
:10148000883098F5863009F05BC025C08D3009F4AE
:1014900042C08E3028F48B30B1F18C30C0F52DC0B5
:1014A000803109F442C0813109F445C08F3009F020
:1014B00047C037C0809180008F7703C08091800043
:1014C0008F7D80938000089584B58F7702C084B5A6
:1014D0008F7D84BD08958091B0008F7703C0809187
:1014E000B0008F7D8093B0000895809190008F7739
:1014F00007C0809190008F7D03C080919000877F0E
:101500008093900008958091A0008F7707C080910C
:10151000A0008F7D03C08091A000877F8093A000F2
:101520000895809120018F7703C0809120018F7DE5
:1015300080932001089580912001877F809320016E
:101540000895FF920F931F93F62E482F50E0CA0183
:1015500082549E4FFC012491CA0188589E4FFC0181
:1015600014914E5C5E4FFA0104910023C9F02223CE
:1015700019F0822F0E942D0AE02FF0E0EE0FFF1FDE
:10158000E250FF4FA591B4919FB7F894FF2021F44A
:101590008C911095812302C08C91812B8C939FBFDD
:1015A0001F910F91FF9008958130910579F082305D
:1015B00091051CF4892B39F008958230910549F08A
:1015C000039781F40BC084E794E005C086E994E0BA
:1015D00002C088EB94E00E94E30508958AED94E050
:1015E0000E94E30508950F931F93CF93DF938A0121
:1015F000E9018130910581F0823091051CF400975A
:1016000041F014C08230910551F08330910571F49E
:1016100009C084E794E008C086E994E005C088EB3F
:1016200094E002C08AED94E00E94E303F801808315
:10163000198218828F5F9F4F21F081E090E099839B
:101640008883DF91CF911F910F910895813091058B
:1016500079F0823091051CF4892B39F0089582309D
:10166000910549F0039781F40BC084E794E005C02D
:1016700086E994E002C088EB94E00E942B03089571
:101680008AED94E00E942B030895809120058093B9
:101690001F050895089510922205109221051092B9
:1016A000200510921F0580E090E0A0E0B0E080935C
:1016B0001B0590931C05A0931D05B0931E058091FA
:1016C000000261E00E94EE098091040261E00E9444
:1016D000EE098091080261E00E94EE0980913A02D1
:1016E00080931F0508952F923F924F925F926F92C1
:1016F0007F928F929F92AF92BF92CF92DF92EF92A2
:10170000FF920F931F93DF93CF93CDB7DEB72E9742
:101710000FB6F894DEBF0FBECDBF60913B02809143
:1017200034029091350270E0AE014F5F5F4F9E0131
:101730002E5F3F4F0E94F30A2A813B81809138023D
:10174000909139028217930714F4898102C0809125
:101750001F05809320056091200570E080E090E0F7
:101760000E94A60E20911C0230911D0240911E0283
:1017700050911F020E940C0E1B012C012091180297
:101780003091190240911A0250911B020E94B10F30
:101790003B014C0120912002309121024091220214
:1017A000509123020E94AD0F88234CF0A0901402A8
:1017B000B0901502C0901602D090170208C0A090F9
:1017C0001002B0901102C0901202D0901302C40116
:1017D000B301A60195010E94B10F7B018C01E89431
:1017E00017F9C601B50120912402309125024091DC
:1017F0002602509127020E940C0E9B01AC01C401ED
:10180000B3010E94B10F3B014C01E89497F8C80165
:10181000B701A40193010E940D0E60931B05709304
:101820001C0580931D0590931E05C801B7010E94F9
:10183000E30E5B016C0120E030E040E057E40E94E1
:10184000710E88233CF4C601B5010E94750E7B839E
:101850006A8304C08FEF9FE79B838A838A819B8181
:101860009C012F3F310519F014F02FEF30E037FFC6
:1018700002C020E030E0298380910002622F70E0F6
:101880000E940E09C201B10120E030E040E853E4BB
:101890000E94710E882394F4C201B10120E030E06F
:1018A00040E050E00E94AD0F882334F0C201B10146
:1018B0000E947A0E698304C0198202C08FEF898367
:1018C00069818091040270E00E940E09C401B30195
:1018D0000E94E30E5B016C0120E030E040E057E441
:1018E0000E94710E88233CF4C601B5010E94750E5A
:1018F0007B836A8304C08FEF9FE79B838A838A81FF
:101900009B819C012F3F310519F014F02FEF30E03F
:1019100037FF02C020E030E0298380910802622F67
:1019200070E00E940E09A0902802B0902902C09099
:101930002A02D0902B02C601B50120E030E040E839
:1019400053E40E94710E882394F4C601B50120E08F
:1019500030E040E050E00E94AD0F882334F0C60133
:10196000B5010E947A0E6C8304C01C8202C08FEF06
:101970008C83C201B10120E030E040E853E40E94D2
:10198000710E882394F4C201B10120E030E040E000
:1019900050E00E94AD0F882334F0C201B1010E94D3
:1019A0007A0E6D830CC01D820AC08FEF8D838E83EB
:1019B0008F83888789878A878B878C8777C0C201C6
:1019C000B10120E030E040E050E00E94AD0F8823FC
:1019D00034F0C201B1010E947A0E6E8301C01E82F2
:1019E000C201B10120E030E040E050E00E94AD0FC4
:1019F000882334F0C201B1010E947A0E6F8301C0C6
:101A00001F82C201B10120E030E040E050E00E94BE
:101A1000AD0F882334F0C201B1010E947A0E6887AD
:101A200001C01886C201B10120E030E040E050E082
:101A30000E94AD0F882334F0C201B1010E947A0EDA
:101A4000698701C01986C201B10120E030E040E0A1
:101A500050E00E94AD0F882334F0C201B1010E9412
:101A60007A0E6A8701C01A86C201B10120E030E017
:101A700040E050E00E94AD0F882334F0C201B10174
:101A80000E947A0E6B8701C01B86C201B10120E063
:101A900030E040E050E00E94AD0F882334F0C201F6
:101AA000B1010E947A0E6C8701C01C86A0902C02A6
:101AB000B0902D02C0902E02D0902F02C601B50129
:101AC00020E030E040E853E40E94710E882394F453
:101AD000C601B50120E030E040E050E00E94AD0FCB
:101AE000882334F0C601B5010E947A0E6D8704C0C8
:101AF0001D8602C08FEF8D87A0903002B09031021A
:101B0000C0903202D0903302C601B50120E030E02F
:101B100040E853E40E94710E882394F4C601B50195
:101B200020E030E040E050E00E94AD0F882334F028
:101B3000C601B5010E947A0E6E8704C01E8602C0DF
:101B40008FEF8E8780910C0290910D02BE016C5F29
:101B50007F4F4BE050E00E94D40A2E960FB6F894C7
:101B6000DEBF0FBECDBFCF91DF911F910F91FF90D0
:101B7000EF90DF90CF90BF90AF909F908F907F902D
:101B80006F905F904F903F902F900895AF92BF92CB
:101B9000CF92DF92EF92FF920F931F93CF93DF9339
:101BA0000E94AC080E944B0B81E090E040E855E2B7
:101BB00060E070E00E94260BC0915202D091530267
:101BC000AA24BB24650115C00E9486087B018C01F4
:101BD000DC01CB018A199B09AC09BD0980529E44E6
:101BE000A040B04030F00E94730B0E94450B57019B
:101BF000680188819981892B39F30E944A0B80E022
:101C000090E0DF91CF911F910F91FF90EF90DF90C7
:101C1000CF90BF90AF9008955058BB27AA270ED001
:101C20004BC13CD130F041D120F031F49F3F11F451
:101C30001EF431C10EF4E095E7FBFCC0E92F4DD155
:101C400080F3BA17620773078407950718F071F4D9
:101C50009EF57CC10EF4E0950B2EBA2FA02D0B0142
:101C6000B90190010C01CA01A0011124FF27591BE1
:101C700099F0593F50F4503E68F11A16F040A22FE7
:101C8000232F342F4427585FF3CF46953795279558
:101C9000A795F0405395C9F77EF41F16BA0B620B57
:101CA000730B840BBAF09150A1F0FF0FBB1F661F9E
:101CB000771F881FC2F70EC0BA0F621F731F841FE1
:101CC00048F4879577956795B795F7959E3F08F007
:101CD000B3CF9395880F08F09927EE0F97958795C6
:101CE000089584D008F481E0089504D06894B11177
:101CF0002EC10895FAD088F09F5790F0B92F9927F8
:101D0000B751A0F0D1F0660F771F881F991F1AF006
:101D1000BA95C9F712C0B13081F018D1B1E0089579
:101D200015C1672F782F8827B85F39F0B93FCCF3FA
:101D3000869577956795B395D9F73EF490958095FC
:101D4000709561957F4F8F4F9F4F0895E89409C01C
:101D500097FB3EF490958095709561957F4F8F4FDE
:101D60009F4F9923A9F0F92F96E9BB279395F695F4
:101D7000879577956795B795F111F8CFFAF4BB0F72
:101D800011F460FF1BC06F5F7F4F8F4F9F4F16C0D6
:101D9000882311F096E911C0772321F09EE8872F60
:101DA000762F05C0662371F096E8862F70E060E01C
:101DB0002AF09A95660F771F881FDAF7880F969595
:101DC000879597F90895ABD080F09F3740F4911133
:101DD0000EF0BDC060E070E080E89FEB089526F44F
:101DE0001B16611D711D811D2BC045C0990F000878
:101DF000550FAA0BE0E8FEEF16161706E807F907DD
:101E0000C0F012161306E407F50798F0621B730B77
:101E1000840B950B39F40A2661F0232B242B252BF8
:101E200021F408950A2609F4A140A6958FEF811D9B
:101E3000811D089597F99F6780E870E060E008953C
:101E4000882371F4772321F09850872B762F07C0D1
:101E5000662311F499270DC09051862B70E060E045
:101E60002AF09A95660F771F881FDAF7880F9695E4
:101E7000879597F908959F3F49F0915028F48695EA
:101E800077956795B7959F5F80389F4F880F969598
:101E9000879597F908959FEF80EC089500240A94A0
:101EA0001616170618060906089500240A94121635
:101EB0001306140605060895092E0394000C11F468
:101EC000882352F0BB0F40F4BF2B11F460FF04C015
:101ED0006F5F7F4F8F4F9F4F089557FD9058440F6E
:101EE000551F59F05F3F71F04795880F97FB991F79
:101EF00061F09F3F79F08795089512161306140636
:101F0000551FF2CF4695F1DF08C0161617061806C2
:101F1000991FF1CF86957105610508940895E5DF55
:101F2000A0F0BEE7B91788F4BB279F3860F41616F7
:101F3000B11D672F782F8827985FF7CF8695779503
:101F40006795B11D93959639C8F30895E894BB271A
:101F500066277727CB0197F9089548DF08F48FEFBC
:101F600008950BD0A9CF9ADF28F09FDF18F09523B2
:101F700009F060CF90CF1124EACFAFDFA0F3959F97
:101F8000D1F3950F50E0551F629FF001729FBB2760
:101F9000F00DB11D639FAA27F00DB11DAA1F649F0C
:101FA0006627B00DA11D661F829F2227B00DA11DBF
:101FB000621F739FB00DA11D621F839FA00D611D45
:101FC000221F749F3327A00D611D231F849F600D66
:101FD000211D822F762F6A2F11249F5750408AF09F
:101FE000E1F088234AF0EE0FFF1FBB1F661F771F2B
:101FF000881F91505040A9F79E3F510570F01ACFAD
:10200000A6CF5F3FECF3983EDCF386957795679516
:10201000B795F795E7959F5FC1F7FE2B880F911D48
:102020009695879597F90895629FD001739FF00167
:10203000829FE00DF11D649FE00DF11D929FF00D58
:10204000839FF00D749FF00D659FF00D9927729F8F
:10205000B00DE11DF91F639FB00DE11DF91FBD011A
:10206000CF0111240895A1E21A2EAA1BBB1BFD016A
:102070000DC0AA1FBB1FEE1FFF1FA217B307E40767
:10208000F50720F0A21BB30BE40BF50B661F771FBF
:10209000881F991F1A9469F760957095809590959F
:1020A0009B01AC01BD01CF010895EE0FFF1F05900C
:0A20B000F491E02D1994F894FFCF8D
:1020BA00020000000500000004000000010000000A
:1020CA00000000000000803F0000004000000043C4
:1020DA00000000000000803F00002D430000803F08
:1020EA000000804101000000000000010000000023
:1020FA001C04E305B203E303C3030C04000000005D
:04210A00A105210505
:00000001FF
