:100000000C9474000C9426060C9457060C948806E5
:100010000C94B9060C94EA060C941B070C944C073C
:100020000C947D070C94A1000C94A1000C94A100E9
:100030000C94A1000C94A1000C94A1000C94A100BC
:100040000C94A1000C94A1000C94A1000C94A100AC
:100050000C94A1000C94A1000C94A1000C94AE0788
:100060000C94A1000C94A3000C949F010C94A1008B
:100070000C94A1000C94A1000C94A1000C94A1007C
:100080000C94A1000C94A1000C94A1000C94A1006C
:100090000C94E2000C94DE010C94A1000C94A100DD
:1000A0000C94A1000C94A1000C94A1000C94A1004C
:1000B0000C94A1000C94A1000C94A1000C94A1003C
:1000C0000C94A1000C94A1000C94A1000C942101AB
:1000D0000C941D020C94A1000C9460010C945C0221
:1000E0000C94A100CC03020511241FBECFEFD1E276
:1000F000DEBFCDBF00E00CBF12E0A0E0B2E0E0E266
:10010000FBE100E00BBF02C007900D92A034B107E5
:10011000D9F71BBE15E0A0E4B2E001C01D92AA3BD6
:10012000B107E1F710E0C8EED0E004C02297FE016D
:100130000E948A0DC43ED107C9F70E94170A0C9489
:100140008E0D0C9400001F920F920FB60F920BB6FB
:100150000F9211242F933F934F938F939F93EF937D
:10016000FF938091C00082FD1DC04091C600209188
:100170008002309181022F5F3F4F2F73307080914A
:100180008202909183022817390771F0E091800272
:10019000F0918102E05CFD4F408330938102209317
:1001A000800202C08091C600FF91EF919F918F91D4
:1001B0004F913F912F910F900BBE0F900FBE0F905C
:1001C0001F9018951F920F920FB60F920BB60F92B9
:1001D00011242F933F934F938F939F93EF93FF930C
:1001E0008091C80082FD1DC04091CE00209108037F
:1001F000309109032F5F3F4F2F73307080910A03B6
:1002000090910B032817390771F0E0910803F091E2
:100210000903E853FD4F40833093090320930803FB
:1002200002C08091CE00FF91EF919F918F914F91ED
:100230003F912F910F900BBE0F900FBE0F901F900C
:1002400018951F920F920FB60F920BB60F921124B2
:100250002F933F934F938F939F93EF93FF938091AF
:10026000D00082FD1DC04091D600209190033091B6
:1002700091032F5F3F4F2F733070809192039091C5
:1002800093032817390771F0E0919003F0919103DF
:10029000E05BFC4F4083309391032093900302C0B6
:1002A0008091D600FF91EF919F918F914F913F9157
:1002B0002F910F900BBE0F900FBE0F901F901895AF
:1002C0001F920F920FB60F920BB60F9211242F931D
:1002D0003F934F938F939F93EF93FF9380913001C0
:1002E00082FD1DC0409136012091180430911904FF
:1002F0002F5F3F4F2F73307080911A0490911B0431
:100300002817390771F0E0911804F0911904E852A8
:10031000FC4F4083309319042093180402C080914D
:100320003601FF91EF919F918F914F913F912F91C6
:100330000F900BBE0F900FBE0F901F9018951F923D
:100340000F920FB60F920BB60F9211242F933F937B
:100350008F939F93EF93FF932091C4023091C50236
:100360008091C6029091C7022817390731F4809115
:10037000C1008F7D8093C10014C0E091C602F0914E
:10038000C702EC57FD4F20818091C6029091C702B1
:1003900001968F7390709093C7028093C60220934A
:1003A000C600FF91EF919F918F913F912F910F90F8
:1003B0000BBE0F900FBE0F901F9018951F920F92BB
:1003C0000FB60F920BB60F9211242F933F938F937A
:1003D0009F93EF93FF9320914C0330914D038091B5
:1003E0004E0390914F032817390731F48091C900CB
:1003F0008F7D8093C90014C0E0914E03F0914F03AC
:10040000E45FFC4F208180914E0390914F03019651
:100410008F73907090934F0380934E032093CE0080
:10042000FF91EF919F918F913F912F910F900BBE74
:100430000F900FBE0F901F9018951F920F920FB63E
:100440000F920BB60F9211242F933F938F939F938C
:10045000EF93FF932091D4033091D5038091D6037D
:100460009091D7032817390731F48091D1008F7DFF
:100470008093D10014C0E091D603F091D703EC56DD
:10048000FC4F20818091D6039091D70301968F7302
:1004900090709093D7038093D6032093D600FF915A
:1004A000EF919F918F913F912F910F900BBE0F90E5
:1004B0000FBE0F901F9018951F920F920FB60F92BC
:1004C0000BB60F9211242F933F938F939F93EF932B
:1004D000FF9320915C0430915D0480915E049091C3
:1004E0005F042817390731F4809131018F7D8093A3
:1004F000310114C0E0915E04F0915F04E45EFB4FB3
:10050000208180915E0490915F0401968F739070BA
:1005100090935F0480935E0420933601FF91EF91E6
:100520009F918F913F912F910F900BBE0F900FBE17
:100530000F901F901895AF92BF92DF92EF92FF92AB
:100540000F931F93CF93DF93EC017A018B01DD248E
:10055000403081EE580780E0680780E0780711F0AE
:10056000DD24D39491E0A92EB12CEC89FD89DD2006
:1005700069F0C50108A002C0880F991F0A94E2F72C
:10058000808360E079E08DE390E005C0108260E850
:1005900074E88EE190E0A80197010E94660D215059
:1005A000304040405040569547953795279580E11B
:1005B0002030380720F0DD2011F0DD24D6CFE88987
:1005C000F9893083EA89FB89208319A2EE89FF89A2
:1005D000408121E030E0C9010C8C02C0880F991FD6
:1005E0000A94E2F7482B4083EE89FF894081C901D4
:1005F0000D8C02C0880F991F0A94E2F7482B4083A4
:10060000EE89FF894081C9010E8C02C0880F991FB5
:100610000A94E2F7482B4083EE89FF8980810F8C92
:1006200002C0220F331F0A94E2F72095282320836B
:10063000DF91CF911F910F91FF90EF90DF90BF90CE
:10064000AF900895DC011C96ED91FC911D97E05C44
:10065000FF4F2191319180819181281B390B2F739C
:100660003070C9010895DC011C96ED91FC911D9735
:10067000E05CFF4F20813181E054F040DF01AE5B50
:10068000BF4F8D919C9111972817390719F42FEFBF
:100690003FEF07C08D919C91E80FF91F8081282FB3
:1006A00030E0C9010895DC011C96ED91FC911D9785
:1006B000E05CFF4F20813181E054F040DF01AE5B10
:1006C000BF4F8D919C9111972817390719F42FEF7F
:1006D0003FEF10C08D919C911197E80FF91F208179
:1006E0008D919C91119701968F73907011969C93A8
:1006F0008E9330E0C9010895DC0191968C91919719
:10070000882339F05496ED91FC915597808186FFAE
:10071000F9CF91961C920895CF93DF93EC01EE856B
:10072000FF85E05CFF4F20813181E054F0402F5F76
:100730003F4F2F733070DF01AE5BBF4F8D919C91A7
:10074000119728173907D1F3E05CFF4F8081918121
:10075000E054F040E80FF91F6083EE85FF85E05C10
:10076000FF4F31832083EE89FF89208181E090E073
:100770000F8C02C0880F991F0A94E2F7282B208360
:1007800081E089A3EC89FD8980818064808381E098
:1007900090E0DF91CF9108951F931092630410921F
:1007A000620428EE33E040E050E02093640430938C
:1007B000650440936604509367046BE272E07093A3
:1007C00061046093600480E492E090936D048093F0
:1007D0006C0484E892E090936F0480936E0485EC3F
:1007E00090E0909371048093700484EC90E0909377
:1007F00073048093720480EC90E09093750480936E
:10080000740481EC90E0909377048093760482ECFA
:1008100090E0909379048093780486EC90E0909334
:100820007B0480937A0414E010937C04B3E0B093CB
:100830007D04A7E0A0937E04F5E0F0937F04E1E05F
:10084000E09380041092850410928404209386041F
:1008500030938704409388045093890470938304F1
:100860006093820488EC92E090938F0480938E04CE
:100870008CE093E090939104809390048DEC90E051
:1008800090939304809392048CEC90E09093950461
:100890008093940488EC90E090939704809396045E
:1008A00089EC90E090939904809398048AEC90E00E
:1008B00090939B0480939A048EEC90E090939D0417
:1008C00080939C0410939E04B0939F04A093A00473
:1008D000F093A104E093A2041092A7041092A6043E
:1008E0002093A8043093A9044093AA045093AB0426
:1008F0007093A5046093A40480E593E09093B10401
:100900008093B00484E993E09093B3048093B2049D
:1009100085ED90E09093B5048093B40484ED90E06D
:100920009093B7048093B60480ED90E09093B9045F
:100930008093B80481ED90E09093BB048093BA0457
:1009400082ED90E09093BD048093BC0486ED90E02E
:100950009093BF048093BE041093C004B093C1046D
:10096000A093C204F093C304E093C4041092C9049A
:100970001092C8042093CA043093CB044093CC0453
:100980005093CD047093C7046093C60488ED93E040
:100990009093D3048093D2048CE194E09093D50497
:1009A0008093D40485E391E09093D7048093D60498
:1009B00084E391E09093D9048093D80480E391E09C
:1009C0009093DB048093DA0481E391E09093DD045B
:1009D0008093DC0482E391E09093DF048093DE0453
:1009E00086E391E09093E1048093E0041093E204A5
:1009F000B093E304A093E404F093E504E093E604E9
:100A00001F9108958BE392E09093E9048093E804AA
:100A10001092EA041092EB041092EC041092ED0490
:100A200008958F929F92AF92BF92CF92DF92EF92F2
:100A3000FF920F931F93CF93DF934C016B017C01C7
:100A4000AA24BB24C0E0D0E0C601F70162814AE0DD
:100A500050E00E9414068C01C6016EE20E947D05E2
:100A6000080F191FA00EB11E21960894E11CF11C5D
:100A7000C330D10549F7C601F40165814AE050E071
:100A80000E9414069501280F391FC901DF91CF91EB
:100A90001F910F91FF90EF90DF90CF90BF90AF909C
:100AA0009F908F900895CF92DF92EF92FF920F93D5
:100AB0001F93CF93DF937C016B018A01C0E0D0E0EC
:100AC0000FC0D6016D916D01D701ED91FC910190A0
:100AD000F081E02DC7011995C80FD91F01501040B2
:100AE0000115110571F7CE01DF91CF911F910F9183
:100AF000FF90EF90DF90CF900895DC01ED91FC9195
:100B00000190F081E02D19950895CF93DF93EC01CA
:100B10006115710519F420E030E00FC0DB010D9084
:100B20000020E9F71197A61BB70BE881F981028035
:100B3000F381E02DAD0119959C01C901DF91CF91A1
:100B400008954F925F927F928F929F92AF92BF9241
:100B5000CF92DF92EF92FF920F931F93DF93CF9389
:100B6000CDB7DEB7A1970FB6F894DEBF0FBECDBFED
:100B70002C01742ECB01223008F42AE019A231E2B4
:100B8000C32ED12CCC0EDD1E822E9924AA24BB2488
:100B9000672D752FA50194010E94660D79018A01C8
:100BA000C801B701A50194010E943B0D472D461BCA
:100BB0000894C108D1084A3014F4405D01C0495C72
:100BC000F6014083E114F1040105110521F07E2CAA
:100BD0005F2DC801DDCFC201B6010E948505A19637
:100BE0000FB6F894DEBF0FBECDBFCF91DF911F913E
:100BF0000F91FF90EF90DF90CF90BF90AF909F90BC
:100C00008F907F905F904F900895DC012115310502
:100C100041F4ED91FC910190F081E02D642F199544
:100C200008950E94A1050895EF92FF920F931F93DC
:100C30009A01E62EFF2400E010E0B801A7010E940F
:100C400005061F910F91FF90EF9008951F920F924C
:100C50000FB60F920BB60F9211242F933F934F9321
:100C60005F936F937F938F939F93AF93BF93EF9314
:100C7000FF938091F2049091F304892B29F0E09185
:100C8000F204F091F3041995FF91EF91BF91AF91A8
:100C90009F918F917F916F915F914F913F912F9194
:100CA0000F900BBE0F900FBE0F901F9018951F92C4
:100CB0000F920FB60F920BB60F9211242F933F9302
:100CC0004F935F936F937F938F939F93AF93BF9354
:100CD000EF93FF938091F4049091F504892B29F010
:100CE000E091F404F091F5041995FF91EF91BF9113
:100CF000AF919F918F917F916F915F914F913F91B4
:100D00002F910F900BBE0F900FBE0F901F90189554
:100D10001F920F920FB60F920BB60F9211242F93C2
:100D20003F934F935F936F937F938F939F93AF9373
:100D3000BF93EF93FF938091F6049091F704892B72
:100D400029F0E091F604F091F7041995FF91EF91E5
:100D5000BF91AF919F918F917F916F915F914F91D3
:100D60003F912F910F900BBE0F900FBE0F901F90D1
:100D700018951F920F920FB60F920BB60F92112477
:100D80002F933F934F935F936F937F938F939F9393
:100D9000AF93BF93EF93FF938091F8049091F90480
:100DA000892B29F0E091F804F091F9041995FF914D
:100DB000EF91BF91AF919F918F917F916F915F91D3
:100DC0004F913F912F910F900BBE0F900FBE0F9040
:100DD0001F9018951F920F920FB60F920BB60F929D
:100DE00011242F933F934F935F936F937F938F9330
:100DF0009F93AF93BF93EF93FF938091EE049091F5
:100E0000EF04892B29F0E091EE04F091EF0419959D
:100E1000FF91EF91BF91AF919F918F917F916F91D2
:100E20005F914F913F912F910F900BBE0F900FBE8E
:100E30000F901F9018951F920F920FB60F920BB63E
:100E40000F9211242F933F934F935F936F937F9350
:100E50008F939F93AF93BF93EF93FF938091F00491
:100E60009091F104892B29F0E091F004F091F104C4
:100E70001995FF91EF91BF91AF919F918F917F91C4
:100E80006F915F914F913F912F910F900BBE0F90FB
:100E90000FBE0F901F9018951F920F920FB60F92D2
:100EA0000BB60F9211242F933F934F935F936F9341
:100EB0007F938F939F93AF93BF93EF93FF93809113
:100EC000FA049091FB04892B29F0E091FA04F09147
:100ED000FB041995FF91EF91BF91AF919F918F9175
:100EE0007F916F915F914F913F912F910F900BBE2A
:100EF0000F900FBE0F901F9018951F920F920FB674
:100F00000F920BB60F9211242F933F934F935F9341
:100F10006F937F938F939F93AF93BF93EF93FF93C1
:100F20008091FC049091FD04892B29F0E091FC0450
:100F3000F091FD041995FF91EF91BF91AF919F91B1
:100F40008F917F916F915F914F913F912F910F9072
:100F50000BBE0F900FBE0F901F9018951F920F920F
:100F60000FB60F9211242F933F938F939F93AF93BC
:100F7000BF938091020590910305A0910405B09163
:100F80000505309106050196A11DB11D232F2D5F8A
:100F90002D3720F02D570196A11DB11D2093060578
:100FA0008093020590930305A0930405B093050573
:100FB0008091FE049091FF04A0910005B09101057D
:100FC0000196A11DB11D8093FE049093FF04A09390
:100FD0000005B0930105BF91AF919F918F913F9113
:100FE0002F910F900FBE0F901F9018959FB7F894F8
:100FF0002091FE043091FF044091000550910105BD
:1010000086B5A89B06C08F3F21F02F5F3F4F4F4F03
:101010005F4F9FBF542F432F322F2227280F311DA0
:10102000411D511D82E0220F331F441F551F8A9519
:10103000D1F7B901CA010895789484B5826084BD5E
:1010400084B5816084BD85B5826085BD85B58160CC
:1010500085BDEEE6F0E0808181608083E1E8F0E02C
:101060001082808182608083808181608083E0E85B
:10107000F0E0808181608083E1EBF0E0808184603A
:101080008083E0EBF0E0808181608083E1E9F0E043
:10109000808182608083808181608083E0E9F0E0EC
:1010A000808181608083E1EAF0E0808182608083DA
:1010B000808181608083E0EAF0E0808181608083CC
:1010C000E1E2F1E0808182608083808181608083C1
:1010D000E0E2F1E0808181608083EAE7F0E08081F6
:1010E000846080838081826080838081816080834E
:1010F0008081806880831092C100089581309105BD
:1011000079F0823091051CF4892B39F008958230F2
:10111000910549F0039781F40BC080E694E005C087
:1011200082E894E002C084EA94E00E9453050895A6
:1011300086EC94E00E94530508958130910579F082
:10114000823091051CF4892B39F008958230910585
:1011500049F0039781F40BC080E694E005C082E873
:1011600094E002C084EA94E00E949B02089586EC19
:1011700094E00E949B0208950F931F9300918F05A6
:101180001091900560917E0570917F05809180059A
:10119000909181056F5F7F4F8F4F9F4F60937E05CA
:1011A00070937F0580938005909381050E94830B47
:1011B00020918205309183054091840550918505E9
:1011C0000E94D80CF801608371838283938380919D
:1011D000860590918705A0918805B09189050196B3
:1011E000A11DB11D8093860590938705A093880566
:1011F000B093890580918C058F5F80938C05823038
:1012000010F010928C051F910F910895089584E0BD
:1012100090E00E94B10AE7E0F5E086E9DF011D9267
:101220008A95E9F78DE895E090930C0580930B057E
:101230008FE895E097AF86AF82E895E090931A0526
:1012400080931905F0936A05E0936905F0930A0508
:10125000E093090581E090E090938E0580938D05E1
:1012600080E092E09093100580930F0581E995E06E
:101270009093900580938F058DEC9CECACE4BDE3DE
:101280008093820590938305A0938405B093850590
:1012900085E0EDE9F5E0DF011D928A95E9F7089513
:1012A0006F927F928F929F92AF92BF92CF92DF9276
:1012B000EF92FF920F931F93DF93CF930F92CDB7CF
:1012C000DEB7E0918F05F0919005A080B180C280DB
:1012D000D38060901A0270901B0280901C02909044
:1012E0001D02C601B501A40193010E94530B88237E
:1012F0004CF4E0902202F09023020091240210911D
:10130000250208C0E0901602F09017020091180222
:1013100010911902C601B501A40193010E94EE0AC1
:10132000A80197010E94D80C20911202309113025B
:1013300040911402509115020E94EF0A7B018C012A
:10134000CB01D80180939D0590939E05A0939F05A6
:10135000B093A00580918C058823B9F5B701C80129
:101360000E94C00B7B018C010E94A60A882309F011
:1013700053C0C801B7010E947B0A882309F04CC002
:10138000C801B70120E030E040E853E40E94DA0BE6
:101390009B01AC01CB01DA017C018D01B901CA01CD
:1013A00020E030E040E050E00E94530B88233CF402
:1013B000C801B70190580E94570B619504C0C8013D
:1013C000B7010E94570B6093A10560912602662326
:1013D00019F49091A10504C08091A1050E945A0DB5
:1013E000998380911E0290911F02BE016F5F7F4F13
:1013F00041E050E00E947E080F90CF91DF911F9155
:101400000F91FF90EF90DF90CF90BF90AF909F90A3
:101410008F907F906F9008950F2EF0E0EF2EF0E008
:10142000FF2EF0E00F2FF0E01F2FF02DC8CFAF926E
:10143000BF92CF92DF92EF92FF920F931F93CF93C1
:10144000DF930E941C080E94070981E090E040E8B9
:1014500055E260E070E00E949D08C0913D02D0918D
:101460003E02AA24BB24650115C00E94F6077B0139
:101470008C01DC01CB018A199B09AC09BD0980559F
:10148000934CA040B04030F00E9450090E94BC082C
:101490005701680188819981892B39F30E940609D7
:1014A00080E090E0DF91CF911F910F91FF90EF903E
:1014B000DF90CF90BF90AF90089560E070E080E83B
:1014C0009FE7089560E070E080E89FE7089560E09E
:1014D00070E080E89FEF089560E070E080E89FEFA3
:1014E000089560E070E080EC9FEF089560E070E0A8
:1014F00080EC9FEF0895DF92EF92FF920F931F937E
:101500007B018C012091AA053091AB054091AC057F
:101510005091AD050E94530B882379F0DD24C8015A
:10152000B7012091B2053091B3054091B4055091B7
:10153000B5050E94530B882311F4DD24D3948D2D1F
:101540001F910F91FF90EF90DF9008951F939B01E3
:10155000AC0110E00E94530B811111E0812F1F910B
:1015600008950E94710A6093AE057093AF05809351
:10157000B0059093B1050E94760A6093A20570931E
:10158000A3058093A4059093A5050E945D0A60932E
:10159000AA057093AB058093AC059093AD050E94AE
:1015A000620A6093A6057093A7058093A80590939F
:1015B000A9050E94670A6093B2057093B3058093F2
:1015C000B4059093B5050E946C0A6093B6057093BC
:1015D000B7058093B8059093B90508955058BB2777
:1015E000AA270ED094C185D130F08AD120F031F4F1
:1015F0009F3F11F41EF47AC10EF4E095E7FB45C15C
:10160000E92F96D180F3BA1762077307840795070D
:1016100018F071F49EF5C5C10EF4E0950B2EBA2FAB
:10162000A02D0B01B90190010C01CA01A0011124E8
:10163000FF27591B99F0593F50F4503E68F11A1694
:10164000F040A22F232F342F4427585FF3CF469525
:1016500037952795A795F0405395C9F77EF41F1647
:10166000BA0B620B730B840BBAF09150A1F0FF0F11
:10167000BB1F661F771F881FC2F70EC0BA0F621FFD
:10168000731F841F48F4879577956795B795F795ED
:101690009E3F08F0B3CF9395880F08F09927EE0F7F
:1016A000979587950895CDD008F481E0089548D1A5
:1016B00088F09F5790F0B92F9927B751A0F0D1F03B
:1016C000660F771F881F991F1AF0BA95C9F712C0C5
:1016D000B13081F066D1B1E0089563C1672F782FF2
:1016E0008827B85F39F0B93FCCF386957795679531
:1016F000B395D9F73EF490958095709561957F4F9D
:101700008F4F9F4F0895E89409C097FB3EF4909542
:101710008095709561957F4F8F4F9F4F9923A9F0CA
:10172000F92F96E9BB279395F69587957795679559
:10173000B795F111F8CFFAF4BB0F11F460FF1BC09D
:101740006F5F7F4F8F4F9F4F16C0882311F096E930
:1017500011C0772321F09EE8872F762F05C06623DE
:1017600071F096E8862F70E060E02AF09A95660F97
:10177000771F881FDAF7880F9695879597F9089550
:10178000F9D080F09F3740F491110EF00BC160E06A
:1017900070E080E89FEB089526F41B16611D711D13
:1017A000811D79C093C0A5D018F011F0A9D038F4EC
:1017B0009DC0F8C0E92FBCD0B0F35523C9F3E7FBB7
:1017C0006217730784079507A8F199F3E92FFF279C
:1017D00088232AF03197660F771F881FDAF7952F35
:1017E0005527442332F091505040220F331F441F9D
:1017F000D2F7BB27E91BF50B621B730B840BB109F6
:10180000C1F222F4620F731F841FB11D31972AF0B9
:10181000660F771F881FBB1FEFCF915050405AF0C3
:1018200041F0882332F0660F771F881F9150504097
:10183000C1F793954BC08695779567959F5FD9F7CC
:10184000F8CF990F0008550FAA0BE0E8FEEF161627
:101850001706E807F907C0F012161306E407F507A4
:1018600098F0621B730B840B950B39F40A2661F018
:10187000232B242B252B21F408950A2609F4A140BB
:10188000A6958FEF811D811D089597F99F6780E8C8
:1018900070E060E00895882371F4772321F0985078
:1018A000872B762F07C0662311F499270DC090511E
:1018B000862B70E060E02AF09A95660F771F881FEC
:1018C000DAF7880F9695879597F908959F3F49F025
:1018D000915028F4869577956795B7959F5F8038E6
:1018E0009F4F880F9695879597F908959FEF80EC05
:1018F000089500240A941616170618060906089576
:1019000000240A9412161306140605060895092EDB
:101910000394000C11F4882352F0BB0F40F4BF2B4A
:1019200011F460FF04C06F5F7F4F8F4F9F4F08958A
:1019300057FD9058440F551F59F05F3F71F0479580
:10194000880F97FB991F61F09F3F79F08795089565
:10195000121613061406551FF2CF4695F1DF08C084
:10196000161617061806991FF1CF869571056105A1
:1019700008940895E5DFA0F0BEE7B91788F4BB2707
:101980009F3860F41616B11D672F782F8827985F4F
:10199000F7CF869577956795B11D93959639C8F3DE
:1019A0000895E894BB2766277727CB0197F9089518
:1019B0000BD0ADCF9EDF28F0A3DF18F0952309F000
:1019C00064CF94CF1124EECFB3DFA0F3959FD1F372
:1019D000950F50E0551F629FF001729FBB27F00DDD
:1019E000B11D639FAA27F00DB11DAA1F649F662732
:1019F000B00DA11D661F829F2227B00DA11D621F81
:101A0000739FB00DA11D621F839FA00D611D221F3A
:101A1000749F3327A00D611D231F849F600D211D1E
:101A2000822F762F6A2F11249F5750408AF0E1F0C1
:101A300088234AF0EE0FFF1FBB1F661F771F881F0A
:101A400091505040A9F79E3F510570F01ECFAACF8C
:101A50005F3FECF3983EDCF3869577956795B795F5
:101A6000F795E7959F5FC1F7FE2B880F911D96951F
:101A7000879597F90895629FD001739FF001829F27
:101A8000E00DF11D649FE00DF11D929FF00D839F0D
:101A9000F00D749FF00D659FF00D9927729FB00DAA
:101AA000E11DF91F639FB00DE11DF91FBD01CF01BD
:101AB00011240895991B79E004C0991F961708F026
:101AC000961B881F7A95C9F780950895A1E21A2E72
:101AD000AA1BBB1BFD010DC0AA1FBB1FEE1FFF1FD2
:101AE000A217B307E407F50720F0A21BB30BE40B22
:101AF000F50B661F771F881F991F1A9469F7609569
:101B00007095809590959B01AC01BD01CF01089522
:101B1000EE0FFF1F0590F491E02D1994F894FFCF7C
:101B2000466978656453746570446973637265745B
:101B30006500000000000000803F00000000010080
:101B4000000000000000FF000000008C035305228D
:101B500003530333037C0300000000110507050055
:00000001FF
