:100000000C9404010C94B6060C94E7060C941807A3
:100010000C9449070C947A070C94AB070C94DC07FA
:100020000C940D080C9431010C9431010C943101A5
:100030000C9431010C9431010C9431010C94310178
:100040000C9431010C9431010C9431010C94310168
:100050000C9431010C9431010C9431010C943E0844
:100060000C9431010C9433010C942F020C94310147
:100070000C9431010C9431010C9431010C94310138
:100080000C9431010C9431010C9431010C94310128
:100090000C9472010C946E020C9431010C94310199
:1000A0000C9431010C9431010C9431010C94310108
:1000B0000C9431010C9431010C9431010C943101F8
:1000C0000C9431010C9431010C9431010C94B10168
:1000D0000C94AD020C9431010C94F0010C94EC02E0
:1000E0000C94310100002100240027002A002D007B
:1000F0003000330001010000040107010A01000083
:100100002200250028002B002E00310034000201BF
:100110000000050108010B0100002000230026005B
:1001200029002C002F00320000010000030106010D
:10013000090105050505070508080808020202026D
:100140000A0A080804040404010101010101010173
:100150000303030303030303040707070C0C0C0C3E
:100160000C0C0C0C02020202060606060606060627
:100170000B0B0B0B0B0B0B0B0102102020080810B4
:100180002040102040800201020108040201010207
:1001900004081020408080402010080402018004E0
:1001A000020180402010080402010804020101023B
:1001B0000408102040800102040810204080000044
:1001C000090A02080B0C0D070603040100000000D9
:1001D000000000000000000000000000000000001F
:1001E0000000000000000000000011100F000000DF
:1001F00000000000000000000000000000000000FF
:10020000000000005C04920511241FBECFEFD1E274
:10021000DEBFCDBF00E00CBF12E0A0E0B2E0E8E13D
:10022000FAE200E00BBF02C007900D92AA39B107B5
:10023000D9F71BBE15E0AAE9B2E001C01D92A138B2
:10024000B107E1F712E0C8E0D2E004C02297FE0156
:100250000E940615C430D107C9F70E943F120C94C2
:100260000A150C9400001F920F920FB60F920BB656
:100270000F9211242F933F934F938F939F93EF935C
:10028000FF938091C00082FD1DC04091C600209167
:10029000DA023091DB022F5F3F4F2F733070809175
:1002A000DC029091DD022817390771F0E091DA0243
:1002B000F091DB02E656FD4F40833093DB02209342
:1002C000DA0202C08091C600FF91EF919F918F9159
:1002D0004F913F912F910F900BBE0F900FBE0F903B
:1002E0001F9018951F920F920FB60F920BB60F9298
:1002F00011242F933F934F938F939F93EF93FF93EB
:100300008091C80082FD1DC04091CE002091620303
:10031000309163032F5F3F4F2F73307080916403E0
:10032000909165032817390771F0E0916203F0910D
:100330006303EE5DFC4F40833093630320936203BD
:1003400002C08091CE00FF91EF919F918F914F91CC
:100350003F912F910F900BBE0F900FBE0F901F90EB
:1003600018951F920F920FB60F920BB60F92112491
:100370002F933F934F938F939F93EF93FF9380918E
:10038000D00082FD1DC04091D6002091EA0330913B
:10039000EB032F5F3F4F2F7330708091EC039091F0
:1003A000ED032817390771F0E091EA03F091EB03B0
:1003B000E655FC4F40833093EB032093EA0302C0E1
:1003C0008091D600FF91EF919F918F914F913F9136
:1003D0002F910F900BBE0F900FBE0F901F9018958E
:1003E0001F920F920FB60F920BB60F9211242F93FC
:1003F0003F934F938F939F93EF93FF93809130019F
:1004000082FD1DC040913601209172043091730429
:100410002F5F3F4F2F73307080917404909175045B
:100420002817390771F0E0917204F0917304EE5CC3
:10043000FB4F4083309373042093720402C0809179
:100440003601FF91EF919F918F914F913F912F91A5
:100450000F900BBE0F900FBE0F901F9018951F921C
:100460000F920FB60F920BB60F9211242F933F935A
:100470008F939F93EF93FF9320911E0330911F035F
:1004800080912003909121032817390731F480913E
:10049000C1008F7D8093C10014C0E0912003F091D2
:1004A0002103E252FD4F208180912003909121038E
:1004B00001968F7390709093210380932003209373
:1004C000C600FF91EF919F918F913F912F910F90D7
:1004D0000BBE0F900FBE0F901F9018951F920F929A
:1004E0000FB60F920BB60F9211242F933F938F9359
:1004F0009F93EF93FF932091A6033091A7038091E0
:10050000A8039091A9032817390731F48091C900F5
:100510008F7D8093C90014C0E091A803F091A903D6
:10052000EA59FC4F20818091A8039091A90301967C
:100530008F7390709093A9038093A8032093CE00AB
:10054000FF91EF919F918F913F912F910F900BBE53
:100550000F900FBE0F901F9018951F920F920FB61D
:100560000F920BB60F9211242F933F938F939F936B
:10057000EF93FF9320912E0430912F04809130044B
:10058000909131042817390731F48091D1008F7D83
:100590008093D10014C0E0913004F0913104E25115
:1005A000FC4F2081809130049091310401968F732B
:1005B000907090933104809330042093D600FF9183
:1005C000EF919F918F913F912F910F900BBE0F90C4
:1005D0000FBE0F901F9018951F920F920FB60F929B
:1005E0000BB60F9211242F933F938F939F93EF930A
:1005F000FF932091B6043091B7048091B804909194
:10060000B9042817390731F4809131018F7D809327
:10061000310114C0E091B804F091B904EA58FB4FDD
:1006200020818091B8049091B90401968F739070E5
:100630009093B9048093B80420933601FF91EF9111
:100640009F918F913F912F910F900BBE0F900FBEF6
:100650000F901F901895AF92BF92DF92EF92FF928A
:100660000F931F93CF93DF93EC017A018B01DD246D
:10067000403081EE580780E0680780E0780711F08D
:10068000DD24D39491E0A92EB12CEC89FD89DD20E5
:1006900069F0C50108A002C0880F991F0A94E2F70B
:1006A000808360E079E08DE390E005C0108260E82F
:1006B00074E88EE190E0A80197010E94E2142150B5
:1006C000304040405040569547953795279580E1FA
:1006D0002030380720F0DD2011F0DD24D6CFE88966
:1006E000F9893083EA89FB89208319A2EE89FF8981
:1006F000408121E030E0C9010C8C02C0880F991FB5
:100700000A94E2F7482B4083EE89FF894081C901B2
:100710000D8C02C0880F991F0A94E2F7482B408382
:10072000EE89FF894081C9010E8C02C0880F991F94
:100730000A94E2F7482B4083EE89FF8980810F8C71
:1007400002C0220F331F0A94E2F72095282320834A
:10075000DF91CF911F910F91FF90EF90DF90BF90AD
:10076000AF900895DC011C96ED91FC911D97E05C23
:10077000FF4F2191319180819181281B390B2F737B
:100780003070C9010895DC011C96ED91FC911D9714
:10079000E05CFF4F20813181E054F040DF01AE5B2F
:1007A000BF4F8D919C9111972817390719F42FEF9E
:1007B0003FEF07C08D919C91E80FF91F8081282F92
:1007C00030E0C9010895DC011C96ED91FC911D9764
:1007D000E05CFF4F20813181E054F040DF01AE5BEF
:1007E000BF4F8D919C9111972817390719F42FEF5E
:1007F0003FEF10C08D919C911197E80FF91F208158
:100800008D919C91119701968F73907011969C9386
:100810008E9330E0C9010895DC0191968C919197F7
:10082000882339F05496ED91FC915597808186FF8D
:10083000F9CF91961C920895CF93DF93EC01EE854A
:10084000FF85E05CFF4F20813181E054F0402F5F55
:100850003F4F2F733070DF01AE5BBF4F8D919C9186
:10086000119728173907D1F3E05CFF4F8081918100
:10087000E054F040E80FF91F6083EE85FF85E05CEF
:10088000FF4F31832083EE89FF89208181E090E052
:100890000F8C02C0880F991F0A94E2F7282B20833F
:1008A00081E089A3EC89FD8980818064808381E077
:1008B00090E0DF91CF9108951F931092BD041092A4
:1008C000BC0428EE33E040E050E02093BE043093B7
:1008D000BF044093C0045093C10460E872E0709379
:1008E000BB046093BA048AE992E09093C7048093B2
:1008F000C6048EED92E09093C9048093C80485EC01
:1009000090E09093CB048093CA0484EC90E09093A1
:10091000CD048093CC0480EC90E09093CF0480933E
:10092000CE0481EC90E09093D1048093D00482ECCB
:1009300090E09093D3048093D20486EC90E090935F
:10094000D5048093D40414E01093D604B3E0B0939C
:10095000D704A7E0A093D804F5E0F093D904E1E030
:10096000E093DA041092DF041092DE042093E00496
:100970003093E1044093E2045093E3047093DD0468
:100980006093DC0482E293E09093E9048093E804AE
:1009900086E693E09093EB048093EA048DEC90E07C
:1009A0009093ED048093EC048CEC90E09093EF0432
:1009B0008093EE0488EC90E09093F1048093F0042F
:1009C00089EC90E09093F3048093F2048AEC90E039
:1009D0009093F5048093F4048EEC90E09093F704E8
:1009E0008093F6041093F804B093F904A093FA04EA
:1009F000F093FB04E093FC041092010510920005B3
:100A00002093020530930305409304055093050598
:100A10007093FF046093FE048AEA93E090930B05C1
:100A200080930A058EEE93E090930D0580930C055C
:100A300085ED90E090930F0580930E0584ED90E096
:100A4000909311058093100580ED90E0909313052D
:100A50008093120581ED90E0909315058093140525
:100A600082ED90E0909317058093160586ED90E057
:100A7000909319058093180510931A05B0931B05E0
:100A8000A0931C05F0931D05E0931E05109223050D
:100A900010922205209324053093250540932605C6
:100AA00050932705709321056093200582E394E01D
:100AB00090932D0580932C0586E794E090932F0565
:100AC00080932E0585E391E0909331058093300566
:100AD00084E391E0909333058093320580E391E0C5
:100AE000909335058093340581E391E09093370529
:100AF0008093360582E391E0909339058093380521
:100B000086E391E090933B0580933A0510933C0572
:100B1000B0933D05A0933E05F0933F05E09340055B
:100B20001F91089580E992E09093430580934205D8
:100B30001092440510924505109246051092470503
:100B400008958F929F92AF92BF92CF92DF92EF92D1
:100B5000FF920F931F93CF93DF934C016B017C01A6
:100B6000AA24BB24C0E0D0E0C601F70162814AE0BC
:100B700050E00E94A4068C01C6016EE20E940D06A0
:100B8000080F191FA00EB11E21960894E11CF11C3C
:100B9000C330D10549F7C601F40165814AE050E050
:100BA0000E94A4069501280F391FC901DF91CF913A
:100BB0001F910F91FF90EF90DF90CF90BF90AF907B
:100BC0009F908F900895CF92DF92EF92FF920F93B4
:100BD0001F93CF93DF937C016B018A01C0E0D0E0CB
:100BE0000FC0D6016D916D01D701ED91FC9101907F
:100BF000F081E02DC7011995C80FD91F0150104091
:100C00000115110571F7CE01DF91CF911F910F9161
:100C1000FF90EF90DF90CF900895DC01ED91FC9173
:100C20000190F081E02D19950895CF93DF93EC01A9
:100C30006115710519F420E030E00FC0DB010D9063
:100C40000020E9F71197A61BB70BE881F981028014
:100C5000F381E02DAD0119959C01C901DF91CF9180
:100C600008954F925F927F928F929F92AF92BF9220
:100C7000CF92DF92EF92FF920F931F93DF93CF9368
:100C8000CDB7DEB7A1970FB6F894DEBF0FBECDBFCC
:100C90002C01742ECB01223008F42AE019A231E293
:100CA000C32ED12CCC0EDD1E822E9924AA24BB2467
:100CB000672D752FA50194010E94E21479018A0124
:100CC000C801B701A50194010E94C314472D461B1A
:100CD0000894C108D1084A3014F4405D01C0495C51
:100CE000F6014083E114F1040105110521F07E2C89
:100CF0005F2DC801DDCFC201B6010E941506A19685
:100D00000FB6F894DEBF0FBECDBFCF91DF911F911C
:100D10000F91FF90EF90DF90CF90BF90AF909F909A
:100D20008F907F905F904F900895DC0121153105E1
:100D300041F4ED91FC910190F081E02D642F199523
:100D400008950E9431060895EF92FF920F931F932A
:100D50009A01E62EFF2400E010E0B801A7010E94EE
:100D600095061F910F91FF90EF9008951F920F929B
:100D70000FB60F920BB60F9211242F933F934F9300
:100D80005F936F937F938F939F93AF93BF93EF93F3
:100D9000FF9380914C0590914D05892B29F0E091AE
:100DA0004C05F0914D051995FF91EF91BF91AF91D1
:100DB0009F918F917F916F915F914F913F912F9173
:100DC0000F900BBE0F900FBE0F901F9018951F92A3
:100DD0000F920FB60F920BB60F9211242F933F93E1
:100DE0004F935F936F937F938F939F93AF93BF9333
:100DF000EF93FF9380914E0590914F05892B29F039
:100E0000E0914E05F0914F051995FF91EF91BF913B
:100E1000AF919F918F917F916F915F914F913F9192
:100E20002F910F900BBE0F900FBE0F901F90189533
:100E30001F920F920FB60F920BB60F9211242F93A1
:100E40003F934F935F936F937F938F939F93AF9352
:100E5000BF93EF93FF938091500590915105892B9B
:100E600029F0E0915005F09151051995FF91EF910E
:100E7000BF91AF919F918F917F916F915F914F91B2
:100E80003F912F910F900BBE0F900FBE0F901F90B0
:100E900018951F920F920FB60F920BB60F92112456
:100EA0002F933F934F935F936F937F938F939F9372
:100EB000AF93BF93EF93FF938091520590915305A9
:100EC000892B29F0E0915205F09153051995FF9176
:100ED000EF91BF91AF919F918F917F916F915F91B2
:100EE0004F913F912F910F900BBE0F900FBE0F901F
:100EF0001F9018951F920F920FB60F920BB60F927C
:100F000011242F933F934F935F936F937F938F930E
:100F10009F93AF93BF93EF93FF9380914805909178
:100F20004905892B29F0E0914805F091490519956B
:100F3000FF91EF91BF91AF919F918F917F916F91B1
:100F40005F914F913F912F910F900BBE0F900FBE6D
:100F50000F901F9018951F920F920FB60F920BB61D
:100F60000F9211242F933F934F935F936F937F932F
:100F70008F939F93AF93BF93EF93FF9380914A0515
:100F800090914B05892B29F0E0914A05F0914B0592
:100F90001995FF91EF91BF91AF919F918F917F91A3
:100FA0006F915F914F913F912F910F900BBE0F90DA
:100FB0000FBE0F901F9018951F920F920FB60F92B1
:100FC0000BB60F9211242F933F934F935F936F9320
:100FD0007F938F939F93AF93BF93EF93FF938091F2
:100FE000540590915505892B29F0E0915405F09115
:100FF00055051995FF91EF91BF91AF919F918F91F9
:101000007F916F915F914F913F912F910F900BBE08
:101010000F900FBE0F901F9018951F920F920FB652
:101020000F920BB60F9211242F933F934F935F9320
:101030006F937F938F939F93AF93BF93EF93FF93A0
:101040008091560590915705892B29F0E09156051E
:10105000F09157051995FF91EF91BF91AF919F9135
:101060008F917F916F915F914F913F912F910F9051
:101070000BBE0F900FBE0F901F9018951F920F92EE
:101080000FB60F9211242F933F938F939F93AF939B
:10109000BF9380915C0590915D05A0915E05B09134
:1010A0005F05309160050196A11DB11D232F2D5FB5
:1010B0002D3720F02D570196A11DB11D20936005FD
:1010C00080935C0590935D05A0935E05B0935F05EA
:1010D0008091580590915905A0915A05B0915B05F2
:1010E0000196A11DB11D8093580590935905A093B9
:1010F0005A05B0935B05BF91AF919F918F913F913E
:101100002F910F900FBE0F901F9018959FB7F894D6
:10111000209158053091590540915A0550915B0531
:1011200086B5A89B06C08F3F21F02F5F3F4F4F4FE2
:101130005F4F9FBF542F432F322F2227280F311D7F
:10114000411D511D82E0220F331F441F551F8A95F8
:10115000D1F7B901CA010895789484B5826084BD3D
:1011600084B5816084BD85B5826085BD85B58160AB
:1011700085BDEEE6F0E0808181608083E1E8F0E00B
:101180001082808182608083808181608083E0E83A
:10119000F0E0808181608083E1EBF0E08081846019
:1011A0008083E0EBF0E0808181608083E1E9F0E022
:1011B000808182608083808181608083E0E9F0E0CB
:1011C000808181608083E1EAF0E0808182608083B9
:1011D000808181608083E0EAF0E0808181608083AB
:1011E000E1E2F1E0808182608083808181608083A0
:1011F000E0E2F1E0808181608083EAE7F0E08081D5
:10120000846080838081826080838081816080832C
:101210008081806880831092C1000895382F8633C2
:1012200008F0365320917B00832F8695869586950E
:1012300090E08170907043E0880F991F4A95E1F724
:10124000277F282B20937B003770809100028295A6
:10125000880F880F807C832B80937C0080917A009C
:10126000806480937A0080917A0086FDFCCF209183
:10127000780040917900942F80E030E0282B392BC2
:10128000C90108951F93CF93DF93182FEB0161E0FD
:101290000E94220A209709F4CAC0CF3FD10509F461
:1012A000C9C0E12FF0E0E254FE4F8491893009F487
:1012B00066C08A30B0F48430F1F1853040F4823079
:1012C00059F1833070F5813009F0AEC020C087300D
:1012D00009F443C0883008F048C0863009F0A4C043
:1012E00034C08D3009F478C08E3038F48B3009F476
:1012F0005AC08C3008F066C04CC0803109F480C000
:10130000813109F487C08F3009F08EC06FC084B579
:10131000806884BDC7BD92C084B5806284BDC8BDED
:101320008DC080918000806880938000D093890078
:10133000C093880083C08091800080628093800089
:10134000D0938B00C0938A0079C08091B0008068F0
:101350008093B000C093B30071C08091B0008062F0
:101360008093B000C093B40069C080919000806801
:1013700080939000D0939900C09398005FC08091B3
:101380009000806280939000D0939B00C0939A005D
:1013900055C080919000886080939000D0939D000C
:1013A000C0939C004BC08091A00080688093A000F7
:1013B0008091A0008F7B8093A000D093A900C09360
:1013C000A8003CC08091A00080628093A000D093D0
:1013D000AB00C093AA0032C08091A00088608093C7
:1013E000A000D093AD00C093AC0028C08091200134
:1013F000806880932001D0932901C09328011EC0EA
:1014000080912001806280932001D0932B01C093B2
:101410002A0114C080912001886080932001D0931C
:101420002D01C0932C010AC0C038D1051CF4812FB6
:1014300060E002C0812F61E00E94D50ADF91CF9168
:101440001F910895CF93DF93482F50E0CA01885829
:101450009E4FFC0134914E5C5E4FFA0184918823CB
:1014600069F190E0880F991FFC01EC51FF4FA591A5
:10147000B491FC01E250FF4FC591D491662351F421
:101480002FB7F8948C91932F909589238C93888112
:1014900089230BC0623061F42FB7F8948C91932F9D
:1014A000909589238C938881832B88832FBF06C0D6
:1014B0009FB7F8948C91832B8C939FBFDF91CF9132
:1014C0000895893009F449C08A30A0F4843051F17C
:1014D000853040F4823079F1833000F5813009F0B5
:1014E00063C026C0873079F1883098F5863009F0DE
:1014F0005BC025C08D3009F442C08E3028F48B309B
:10150000B1F18C30C0F52DC0803109F442C0813179
:1015100009F445C08F3009F047C037C08091800082
:101520008F7703C0809180008F7D80938000089525
:1015300084B58F7702C084B58F7D84BD0895809176
:10154000B0008F7703C08091B0008F7D8093B00092
:101550000895809190008F7707C0809190008F7DD3
:1015600003C080919000877F8093900008958091C0
:10157000A0008F7707C08091A0008F7D03C080916D
:10158000A000877F8093A0000895809120018F772D
:1015900003C0809120018F7D809320010895809168
:1015A0002001877F809320010895FF920F931F935E
:1015B000F62E482F50E0CA0182549E4FFC01249120
:1015C000CA0188589E4FFC0114914E5C5E4FFA018F
:1015D00004910023C9F0222319F0822F0E94610A8E
:1015E000E02FF0E0EE0FFF1FE250FF4FA591B49106
:1015F0009FB7F894FF2021F48C911095812302C0AD
:101600008C91812B8C939FBF1F910F91FF90089518
:10161000862F60E00E94220A08958130910579F0BA
:10162000823091051CF4892B39F0089582309105A0
:1016300049F0039781F40BC08AEB94E005C08CED70
:1016400094E002C08EEF94E00E94E305089580E2EA
:1016500095E00E94E30508950F931F93CF93DF93C6
:101660008A01E9018130910581F0823091051CF4F5
:10167000009741F014C08230910551F083309105FC
:1016800071F409C08AEB94E008C08CED94E005C0C9
:101690008EEF94E002C080E295E00E94E303F8013F
:1016A0008083198218828F5F9F4F21F081E090E044
:1016B00099838883DF91CF911F910F910895813095
:1016C000910579F0823091051CF4892B39F0089549
:1016D0008230910549F0039781F40BC08AEB94E0C6
:1016E00005C08CED94E002C08EEF94E00E942B03C5
:1016F000089580E295E00E942B0308952F923F9277
:101700004F925F926F927F928F929F92AF92BF9211
:10171000CF92DF92EF92FF920F931F93DF93CF93BD
:10172000CDB7DEB7EE970FB6F894DEBF0FBECDBFD4
:101730009AAB89AB7CAB6BAB4BAF5CAF3EAB2DAB2D
:1017400018AF0FABFAAEE9AEF80180E090E005C04B
:1017500011921192119211920196A9ACBAAC8A150C
:101760009B05B4F318AA1FA61E8A1D8A69C1E9A9A0
:10177000FAA9CD88DE88EC0DFD1D80819181A281C2
:10178000B3817D0100271127EFA2F8A609A71AA7A8
:101790008C019D01207030700BA31CA32DA33EA3D0
:1017A00029AD3AAD4FA558A9241B350B3CA72BA753
:1017B0008DA99EA98217930714F49CA78BA7AFA9A4
:1017C000B8ADED89FE89AE0FBF1FBA8FA98F8BAD63
:1017D0009CAD9C01388F2F8BAFA4B8A8BEAEADAE28
:1017E0001EA61DA666247724430102C1A98DBA8DC9
:1017F000ED90FD900D911C91EF89F88D8081918184
:10180000A281B3815D01CC24DD24AF8EB8A2C9A230
:10181000DAA2FFEFAF2EFFEFBF2EC12CD12CA822F2
:10182000B922CA22DB22C601B5012FA138A549A5DC
:101830005AA50E94C3146B8F7C8F8D8F9E8F6F8DE6
:1018400078A189A19AA12BA13CA14DA15EA10E94E2
:10185000C3141B012C01E60CF71C081D191D19826D
:101860001A821B821C82E614F7040805190540F44D
:1018700021E030E040E050E029833A834B835C83F1
:10188000C601B5012BA13CA14DA15EA10E94C314CC
:101890005B016C01E60EF71E081F191F8B8D9C8DD6
:1018A000AD8DBE8DDC0199278827898B9A8BAB8BF8
:1018B000BC8B8E0D9F1DA01FB11F8D879E87AF878C
:1018C000B88BA1013327222729873A874B875C876A
:1018D000820F931FA41FB51F8D839E83AF83B8878C
:1018E000E98DFA8D80839183A283B3832B8D3C8D08
:1018F0004D8D5E8D3A0188249924C201AA27BB2709
:10190000680E791E8A1E9B1E6F8D78A189A19AA1EF
:101910002FA138A549A55AA50E94C314660E771EAB
:10192000881E991E89819A81AB81BC81680E791EBF
:101930008A1E9B1E80E090E0A0E0B0E0EA14FB0469
:101940000C051D0520F481E090E0A0E0B0E0BC01B2
:10195000CD01660D771D881D991D20E030E040E027
:1019600050E0AD84BE84CF84D888E988FA880B899A
:101970001C89AE14BF04C006D10620F421E030E07B
:1019800040E050E0620F731F841F951F20E030E09D
:1019900040E050E0AD80BE80CF80D884E984FA84F6
:1019A0000B851C85AE14BF04C006D10620F421E0CF
:1019B00030E040E050E03B014C01620E731E841E9B
:1019C000951E0DAD1EAD0F5F1F4F1EAF0DAF2DA5A8
:1019D0003EA52F5F3F4F3EA72DA7498D5A8D4C5FE7
:1019E0005F4F5A8F498F8F89988D0496988F8F8B70
:1019F000ADA5BEA5EBA5FCA5AE17BF070CF4F6CEB2
:101A0000ADACBEACC9ACDAACAC14BD0474F4AA0C79
:101A1000BB1CAA0CBB1CEFA8F8ACAE0CBF1CD501BC
:101A20006D927D928D929C921397EFA5F8A93196B5
:101A3000F8ABEFA70D891E890C5F1F4F1E8B0D8B16
:101A40002FA538A94BA95CA9241735070CF48FCE14
:101A5000EE960FB6F894DEBF0FBECDBFCF91DF91EB
:101A60001F910F91FF90EF90DF90CF90BF90AF90BC
:101A70009F908F907F906F905F904F903F902F90AE
:101A800008958091650590916605A0916705B091D4
:101A900068058093710590937205A0937305B093C8
:101AA00074058091610590916205A0916305B091E4
:101AB00064058093750590937605A0937705B093A0
:101AC000780580916D0590916E05A0916F05B0919C
:101AD00070058093790590937A05A0937B05B09368
:101AE0007C05089508951092800510927F0580E18D
:101AF000E1E6F5E0DF011D928A95E9F78EE0E1E786
:101B0000F5E0DF011D928A95E9F760916502709119
:101B1000660280916702909168020E94080B6091B2
:101B20006D0270916E0280916F02909170020E941E
:101B3000080B8091010261E00E94220A8091050257
:101B400061E00E94220A8091090261E00E94220A5B
:101B500080910D0261E00E94220A80912D029091F5
:101B60002E02A0912F02B0913002809371059093C4
:101B70007205A0937305B093740580913102909122
:101B80003202A0913302B091340280937505909394
:101B90007605A0937705B0937805809135029091F2
:101BA0003602A0913702B091380280937905909364
:101BB0007A05A0937B05B0937C0510927D05109269
:101BC0007E0508958F929F92AF92BF92CF92DF923F
:101BD000EF92FF920F931F93CF93DF934B015C0122
:101BE0006A010F2EF0E0EF2EF0E0FF2EF0E00F2F55
:101BF000F0E01F2FF02DC0E0D0E018C0F50161919A
:101C00007191819191915F010E941F13A6010E9421
:101C10002C149B01AC01C801B7010E9486127B0104
:101C20008C0180E290E0C80ED91E2196C815D90516
:101C30002CF3B701C801DF91CF911F910F91FF9055
:101C4000EF90DF90CF90BF90AF909F908F900895CE
:101C50002F923F924F925F926F927F928F929F92BC
:101C6000AF92BF92CF92DF92EF92FF920F931F93AA
:101C7000DF93CF93CDB7DEB7A2970FB6F894DEBF50
:101C80000FBECDBF809165020E940E09A0E0B0E0BA
:101C9000209177023091780240E050E0BC01CD0104
:101CA0000E94C3146C837D838E839F8381E792E0BF
:101CB00061E070E0AE014C5F5F4F21E030E08E01EB
:101CC000085F1F4FE2E0EE2EF12C0E947E0BE090A9
:101CD0007105F09072050091730510917405609183
:101CE0007B028091690290916A0270E0AE014F5FC1
:101CF0005F4F9E012E5F3F4F0E942C0B2A813B813C
:101D00008091750290917602821793073CF4698165
:101D100070E080E090E00E941F1308C060911502FF
:101D200070911602809117029091180220E030E025
:101D300040E050E00E94EA12882319F420E030E0ED
:101D400026C0DD2460917505709176058091770538
:101D5000909178052091790530917A0540917B0525
:101D600050917C050E9485129F7720913902309115
:101D70003A0240913B0250913C020E94EA1287FDD8
:101D800002C0DD24D39481E0D8262D2D30E080914F
:101D90007D05882321F481E080937D0522C0809118
:101DA0007E05813019F08230E1F404C02130310524
:101DB000C1F406C021303105F9F481E080937E053D
:101DC000C801B70120E030E040E85FE30E948612DE
:101DD0006093690570936A0580936B0590936C0519
:101DE0000BC082E080937E05E0926905F0926A055F
:101DF00000936B0510936C05E0906905F0906A05FF
:101E000000916B0510916C05E0926505F0926605F6
:101E10000093670510936805C801B70120E030E022
:101E200040EC50E40E942614181664F480E090E020
:101E3000A0E8BFE38093650590936605A0936705CE
:101E4000B0936805C801B70120E030E040E85FE3E7
:101E50000E94EA12882364F480E090E0A0ECB0E4F1
:101E60008093650590936605A0936705B093680518
:101E7000E0906505F0906605009167051091680592
:101E8000C801B70120E030E040E85FE30E94EA12B9
:101E900088235CF40F2EF0E0EF2EF0E0FF2EF0E848
:101EA0000F2FFFE31F2FF02D14C0C801B70120E052
:101EB00030E040EC50E40E942614181654F40F2E23
:101EC000F0E0EF2EF0E0FF2EF0EC0F2FF0E41F2FEC
:101ED000F02DC801B7010E94EE12DC01CB018D5636
:101EE0009D4FFC016081772767FD7095872F972FA5
:101EF0000E94211360936D0570936E0580936F05AA
:101F00009093700520913D0230913E0240913F0236
:101F1000509140020E9460143B014C0160914102CB
:101F2000709142028091430290914402A401930176
:101F30000E9485127B018C01CE01089662E070E060
:101F400040E050E00E94E20D20E030E040E853EA3B
:101F50000E9460149B01AC01C801B7010E94861267
:101F6000209145023091460240914702509148022B
:101F70000E9460145B016C012091490230914A0279
:101F800040914B0250914C020E94261488234CF041
:101F9000E0902502F090260200912702109128027D
:101FA00008C0E0902102F0902202009123021091DB
:101FB0002402C601B501A80197010E9460149B018B
:101FC000AC015F772F8F38A349A35AA3C801B7018B
:101FD00020914D0230914E0240914F02509150029B
:101FE0000E9485129B01AC01C601B5010E946014DC
:101FF0009B01AC015F772B8F3C8F4D8F5E8F6F8D78
:1020000078A189A19AA10E948612609361057093BC
:102010006205809363059093640580916D020E9430
:102020000E09A0E0B0E02091790230917A0240E000
:1020300050E0BC01CD010E94C3140E941F1320E098
:1020400030E040E058EB0E9460149B01AC01C401F9
:10205000B3010E94861220915102309152024091A8
:102060005302509154020E9460145B016C01209154
:1020700055023091560240915702509158020E94E9
:10208000261488234CF0E0901D02F0901E0200916F
:102090001F021091200208C0E0901902F0901A026D
:1020A00000911B0210911C02C601B501A801970105
:1020B0000E9460143B014C01E89497F8C801B701F5
:1020C0002091590230915A0240915B0250915C027A
:1020D0000E9485129B01AC01C601B5010E946014EB
:1020E0001B012C01E89457F8C401B301A20191012E
:1020F0000E9486125B016C01E0902902F0902A0296
:1021000000912B0210912C02C801B70120E030E0B1
:1021100040E853E40E94EA12882394F4C801B7010E
:1021200020E030E040E050E00E942614882334F0A4
:10213000C801B7010E94F312688B04C0188A02C05C
:102140008FEF888BE0906105F09062050091630548
:1021500010916405C801B70120E030E040E853E485
:102160000E94EA12882394F4C801B70120E030E00D
:1021700040E050E00E942614882334F0C801B701E3
:102180000E94F312698B08C0198A06C08FEF898BF1
:102190008A8B8B8B8C8B33C0C801B70120E030E079
:1021A00040E050E00E942614882334F0C801B701B3
:1021B0000E94F3126A8B01C01A8AC801B70120E09D
:1021C00030E040E050E00E942614882334F0C8013B
:1021D000B7010E94F3126B8B01C01B8AC801B701C3
:1021E00020E030E040E050E00E942614882334F0E4
:1021F000C801B7010E94F3126C8B01C01C8AC60192
:10220000B50120E030E040E853E40E94EA12882360
:102210004CF4C601B5010E94F3126D8B6E8B6F8B6F
:10222000688F05C08FEF8D8B8E8B8F8B888FE090A2
:102230005D02F0905E0200915F0210916002C801A1
:10224000B70120E030E040E853E40E94EA1288231E
:1022500094F4C801B70120E030E040E050E00E9473
:102260002614882334F0C801B7010E94F312698F45
:1022700004C0198E02C08FEF898FE0906102F09048
:1022800062020091630210916402C801B70120E06C
:1022900030E040E853E40E94EA12882394F4C80135
:1022A000B70120E030E040E050E00E94261488238F
:1022B00034F0C801B7010E94F3126A8F04C01A8E6D
:1022C00002C08FEF8A8F8091110290911202BE019D
:1022D000605F7F4F4BE050E00E940D0BC401B301E3
:1022E0000E945C137B018C0120E030E040E057E469
:1022F0000E94EA1288233CF4C801B7010E94EE1242
:102300007B836A8304C08FEF9FE79B838A838A81E4
:102310009B819C012F3F310519F014F02FEF30E025
:1023200037FF02C020E030E0298380910102622F54
:1023300070E00E944209C201B1010E945C137B015E
:102340008C0120E030E040E057E40E94EA1288234C
:102350003CF4C801B7010E94EE127B836A8304C07B
:102360008FEF9FE79B838A838A819B819C012F3F0C
:10237000310519F014F02FEF30E037FF02C020E0F4
:1023800030E0298380910502622F70E00E944209AB
:102390006F8D78A189A19AA10E945C137B018C01A9
:1023A00020E030E040E057E40E94EA1288233CF449
:1023B000C801B7010E94EE127B836A8304C08FEFCD
:1023C0009FE79B838A838A819B819C012F3F3105F4
:1023D00019F014F02FEF30E037FF02C020E030E0BA
:1023E000298380910902622F70E00E9442096B8D5F
:1023F0007C8D8D8D9E8D0E945C137B018C0120E075
:1024000030E040E057E40E94EA1288233CF4C8011F
:10241000B7010E94EE127B836A8304C08FEF9FE7AF
:102420009B838A838A819B819C012F3F310519F010
:1024300014F02FEF30E037FF02C020E030E02983B6
:1024400080910D02622F70E00E944209A2960FB6A1
:10245000F894DEBF0FBECDBFCF91DF911F910F91DA
:10246000FF90EF90DF90CF90BF90AF909F908F90B4
:102470007F906F905F904F903F902F900895AF9214
:10248000BF92CF92DF92EF92FF920F931F93CF9361
:10249000DF930E94AC080E94730D81E090E040E859
:1024A00055E260E070E00E945F0BC0919202D09113
:1024B0009302AA24BB24650115C00E9486087B01F3
:1024C0008C01DC01CB018A199B09AC09BD09805242
:1024D0009E44A040B04030F00E94280E0E94410D62
:1024E0005701680188819981892B39F30E94720D07
:1024F00080E090E0DF91CF911F910F91FF90EF90DE
:10250000DF90CF90BF90AF9008955058BB27AA2777
:102510000ED04BC13CD130F041D120F031F49F3F7F
:1025200011F41EF431C10EF4E095E7FBFCC0E92F75
:102530004DD180F3BA17620773078407950718F027
:1025400071F49EF57CC10EF4E0950B2EBA2FA02DF0
:102550000B01B90190010C01CA01A0011124FF2750
:10256000591B99F0593F50F4503E68F11A16F0404B
:10257000A22F232F342F4427585FF3CF469537954A
:102580002795A795F0405395C9F77EF41F16BA0B0F
:10259000620B730B840BBAF09150A1F0FF0FBB1FBD
:1025A000661F771F881FC2F70EC0BA0F621F731F06
:1025B000841F48F4879577956795B795F7959E3F63
:1025C00008F0B3CF9395880F08F09927EE0F9795F1
:1025D0008795089584D008F481E0089504D0689424
:1025E000B1112EC10895FAD088F09F5790F0B92FFD
:1025F0009927B751A0F0D1F0660F771F881F991F58
:102600001AF0BA95C9F712C0B13081F018D1B1E013
:10261000089515C1672F782F8827B85F39F0B93F23
:10262000CCF3869577956795B395D9F73EF4909559
:102630008095709561957F4F8F4F9F4F0895E894D7
:1026400009C097FB3EF490958095709561957F4FFA
:102650008F4F9F4F9923A9F0F92F96E9BB279395A8
:10266000F695879577956795B795F111F8CFFAF4B8
:10267000BB0F11F460FF1BC06F5F7F4F8F4F9F4FE9
:1026800016C0882311F096E911C0772321F09EE847
:10269000872F762F05C0662371F096E8862F70E0AD
:1026A00060E02AF09A95660F771F881FDAF7880F87
:1026B0009695879597F90895ABD080F09F3740F4B1
:1026C00091110EF0BDC060E070E080E89FEB0895CE
:1026D00026F41B16611D711D811D2BC045C0990F6D
:1026E0000008550FAA0BE0E8FEEF16161706E807DC
:1026F000F907C0F012161306E407F50798F0621BFD
:10270000730B840B950B39F40A2661F0232B242BD1
:10271000252B21F408950A2609F4A140A6958FEFF0
:10272000811D811D089597F99F6780E870E060E042
:102730000895882371F4772321F09850872B762F02
:1027400007C0662311F499270DC09051862B70E0C5
:1027500060E02AF09A95660F771F881FDAF7880FD6
:102760009695879597F908959F3F49F0915028F4E1
:10277000869577956795B7959F5F80389F4F880FAF
:102780009695879597F908959FEF80EC089500241A
:102790000A941616170618060906089500240A94C6
:1027A00012161306140605060895092E0394000C4C
:1027B00011F4882352F0BB0F40F4BF2B11F460FFDB
:1027C00004C06F5F7F4F8F4F9F4F089557FD905804
:1027D000440F551F59F05F3F71F04795880F97FBE5
:1027E000991F61F09F3F79F087950895121613069F
:1027F0001406551FF2CF4695F1DF08C016161706CE
:102800001806991FF1CF8695710561050894089502
:10281000E5DFA0F0BEE7B91788F4BB279F3860F466
:102820001616B11D672F782F8827985FF7CF8695EA
:1028300077956795B11D93959639C8F30895E894F7
:10284000BB2766277727CB0197F9089548DF08F45F
:102850008FEF089568CF88CFC1DFE8F39923D9F3CC
:10286000940F511DBBF39150504094F059F08823C0
:1028700032F0660F771F881F91505040C1F79E3F7E
:10288000510544F7880F911D9695879597F90895FE
:102890005F3FACF0983E9CF0BB2786957795679597
:1028A000B79508F4B1609395C1F7BB0F58F711F4D1
:1028B00060FFE8CF6F5F7F4F8F4F9F4FE3CFC0CF59
:1028C0000BD073CF64DF28F069DF18F0952309F08F
:1028D0002ACF5ACF1124B4CF79DFA0F3959FD1F33B
:1028E000950F50E0551F629FF001729FBB27F00DBE
:1028F000B11D639FAA27F00DB11DAA1F649F662713
:10290000B00DA11D661F829F2227B00DA11D621F61
:10291000739FB00DA11D621F839FA00D611D221F1B
:10292000749F3327A00D611D231F849F600D211DFF
:10293000822F762F6A2F11249F5750408AF0E1F0A2
:1029400088234AF0EE0FFF1FBB1F661F771F881FEB
:1029500091505040A9F79E3F510570F0E4CE70CFE2
:102960005F3FECF3983EDCF3869577956795B795D6
:10297000F795E7959F5FC1F7FE2B880F911D969500
:10298000879597F90895629FD001739FF001829F08
:10299000E00DF11D649FE00DF11D929FF00D839FEE
:1029A000F00D749FF00D659FF00D9927729FB00D8B
:1029B000E11DF91F639FB00DE11DF91FBD01CF019E
:1029C00011240895A1E21A2EAA1BBB1BFD010DC004
:1029D000AA1FBB1FEE1FFF1FA217B307E407F507CF
:1029E00020F0A21BB30BE40BF50B661F771F881FAB
:1029F000991F1A9469F760957095809590959B0141
:102A0000AC01BD01CF010895EE0FFF1F0590F491B9
:082A1000E02D1994F894FFCFAA
:102A180001090000000B000000050000000700008D
:102A2800000100000000000000000000000000801D
:102A38003F000000000000803F00002D4300000020
:102A480000000000000000000000002041CDCC4C38
:102A58003E0000803F00803B4500000000000080F1
:102A68003F00803B45000000000000803F000080E0
:102A78003F00008041020000000100000004000047
:102A880000020820800000558555850100000000DF
:102A98001C04E305B203E303C3030C0400000000B5
:0A2AA800A1057F05010203040302EB
:00000001FF
