:100000000C9404010C942F060C9460060C94910639
:100010000C94C2060C94F3060C9424070C94550718
:100020000C9486070C9431010C9431010C9431012D
:100030000C9431010C9431010C9431010C94310178
:100040000C9431010C9431010C9431010C94310168
:100050000C9431010C9431010C9431010C94B707CC
:100060000C9431010C9433010C942F020C94310147
:100070000C9431010C9431010C9431010C94310138
:100080000C9431010C9431010C9431010C94310128
:100090000C9472010C946E020C9431010C94310199
:1000A0000C9431010C9431010C9431010C94310108
:1000B0000C9431010C9431010C9431010C943101F8
:1000C0000C9431010C9431010C9431010C94B10168
:1000D0000C94AD020C9431010C94F0010C94EC02E0
:1000E0000C94310100002100240027002A002D007B
:1000F0003000330001010000040107010A01000083
:100100002200250028002B002E00310034000201BF
:100110000000050108010B0100002000230026005B
:1001200029002C002F00320000010000030106010D
:10013000090105050505070508080808020202026D
:100140000A0A080804040404010101010101010173
:100150000303030303030303040707070C0C0C0C3E
:100160000C0C0C0C02020202060606060606060627
:100170000B0B0B0B0B0B0B0B0102102020080810B4
:100180002040102040800201020108040201010207
:1001900004081020408080402010080402018004E0
:1001A000020180402010080402010804020101023B
:1001B0000408102040800102040810204080000044
:1001C000090A02080B0C0D070603040100000000D9
:1001D000000000000000000000000000000000001F
:1001E0000000000000000000000011100F000000DF
:1001F00000000000000000000000000000000000FF
:1002000000000000D5030B0511241FBECFEFD1E283
:10021000DEBFCDBF00E00CBF12E0A0E0B2E0E0E541
:10022000F8E100E00BBF02C007900D92A432B107C5
:10023000D9F71BBE14E0A4E2B2E001C01D92AD3EAE
:10024000B107E1F712E0C8E0D2E004C02297FE0156
:100250000E94220CC430D107C9F70E944D0A0C94A9
:10026000260C0C9400001F920F920FB60F920BB643
:100270000F9211242F933F934F938F939F93EF935C
:10028000FF938091C00082FD1DC04091C600209167
:100290006402309165022F5F3F4F2F733070809161
:1002A0006602909167022817390771F0E0916402A5
:1002B000F0916502EC5DFD4F408330936502209321
:1002C000640202C08091C600FF91EF919F918F91CF
:1002D0004F913F912F910F900BBE0F900FBE0F903B
:1002E0001F9018951F920F920FB60F920BB60F9298
:1002F00011242F933F934F938F939F93EF93FF93EB
:100300008091C80082FD1DC04091CE002091EC027A
:100310003091ED022F5F3F4F2F7330708091EE02CE
:100320009091EF022817390771F0E091EC02F091FB
:10033000ED02E455FD4F40833093ED022093EC0233
:1003400002C08091CE00FF91EF919F918F914F91CC
:100350003F912F910F900BBE0F900FBE0F901F90EB
:1003600018951F920F920FB60F920BB60F92112491
:100370002F933F934F938F939F93EF93FF9380918E
:10038000D00082FD1DC04091D600209174033091B1
:1003900075032F5F3F4F2F733070809176039091DC
:1003A00077032817390771F0E0917403F091750312
:1003B000EC5CFC4F4083309375032093740302C0C0
:1003C0008091D600FF91EF919F918F914F913F9136
:1003D0002F910F900BBE0F900FBE0F901F9018958E
:1003E0001F920F920FB60F920BB60F9211242F93FC
:1003F0003F934F938F939F93EF93FF93809130019F
:1004000082FD1DC0409136012091FC033091FD0317
:100410002F5F3F4F2F7330708091FE039091FF0349
:100420002817390771F0E091FC03F091FD03E454C3
:10043000FC4F40833093FD032093FC0302C0809166
:100440003601FF91EF919F918F914F913F912F91A5
:100450000F900BBE0F900FBE0F901F9018951F921C
:100460000F920FB60F920BB60F9211242F933F935A
:100470008F939F93EF93FF932091A8023091A9024D
:100480008091AA029091AB022817390731F480912C
:10049000C1008F7D8093C10014C0E091AA02F09149
:1004A000AB02E859FD4F20818091AA029091AB02E6
:1004B00001968F7390709093AB028093AA02209361
:1004C000C600FF91EF919F918F913F912F910F90D7
:1004D0000BBE0F900FBE0F901F9018951F920F929A
:1004E0000FB60F920BB60F9211242F933F938F9359
:1004F0009F93EF93FF9320913003309131038091CC
:100500003203909133032817390731F48091C900E1
:100510008F7D8093C90014C0E0913203F0913303C2
:10052000E051FD4F20818091320390913303019679
:100530008F73907090933303809332032093CE0097
:10054000FF91EF919F918F913F912F910F900BBE53
:100550000F900FBE0F901F9018951F920F920FB61D
:100560000F920BB60F9211242F933F938F939F936B
:10057000EF93FF932091B8033091B9038091BA03B0
:100580009091BB032817390731F48091D1008F7DFA
:100590008093D10014C0E091BA03F091BB03E858F6
:1005A000FC4F20818091BA039091BB0301968F7319
:1005B00090709093BB038093BA032093D600FF9171
:1005C000EF919F918F913F912F910F900BBE0F90C4
:1005D0000FBE0F901F9018951F920F920FB60F929B
:1005E0000BB60F9211242F933F938F939F93EF930A
:1005F000FF932091400430914104809142049091F6
:1006000043042817390731F4809131018F7D80939D
:10061000310114C0E0914204F0914304E050FC4FDA
:100620002081809142049091430401968F739070D1
:10063000909343048093420420933601FF91EF91FD
:100640009F918F913F912F910F900BBE0F900FBEF6
:100650000F901F901895DC011C96ED91FC911D9751
:10066000E05CFF4F2191319180819181281B390BF2
:100670002F733070C9010895DC011C96ED91FC9137
:100680001D97E05CFF4F20813181E054F040DF0195
:10069000AE5BBF4F8D919C9111972817390719F4C4
:1006A0002FEF3FEF07C08D919C91E80FF91F8081DC
:1006B000282F30E0C9010895DC011C96ED91FC91D2
:1006C0001D97E05CFF4F20813181E054F040DF0155
:1006D000AE5BBF4F8D919C9111972817390719F484
:1006E0002FEF3FEF10C08D919C911197E80FF91FEC
:1006F00020818D919C91119701968F739070119626
:100700009C938E9330E0C9010895DC0191968C9101
:100710009197882339F05496ED91FC9155978081FB
:1007200086FFF9CF91961C920895CF93DF93EC0149
:10073000EE85FF85E05CFF4F20813181E054F04081
:100740002F5F3F4F2F733070DF01AE5BBF4F8D9136
:100750009C91119728173907D1F3E05CFF4F8081F6
:100760009181E054F040E80FF91F6083EE85FF852A
:10077000E05CFF4F31832083EE89FF89208181E097
:1007800090E00F8C02C0880F991F0A94E2F7282B83
:10079000208381E089A3EC89FD8980818064808346
:1007A00081E090E0DF91CF9108951F93109247046C
:1007B0001092460428EE33E040E050E020934804D5
:1007C0003093490440934A0450934B0460E172E033
:1007D000709345046093440484E292E09093510442
:1007E0008093500488E692E09093530480935204DF
:1007F00085EC90E0909355048093540484EC90E051
:10080000909357048093560480EC90E090935904A1
:100810008093580481EC90E090935B0480935A0499
:1008200082EC90E090935D0480935C0486EC90E011
:1008300090935F0480935E0414E010936004B3E02F
:10084000B0936104A7E0A0936204F5E0F093630421
:10085000E1E0E0936404109269041092680420932C
:100860006A0430936B0440936C0450936D0470934E
:100870006704609366048CEA92E09093730480931B
:10088000720480EF92E090937504809374048DEC71
:1008900090E090937704809376048CEC90E09093B2
:1008A00079048093780488EC90E090937B048093A3
:1008B0007A0489EC90E090937D0480937C048AEC28
:1008C00090E090937F0480937E048EEC90E0909370
:1008D00081048093800410938204B0938304A093D6
:1008E0008404F0938504E093860410928B041092A4
:1008F0008A0420938C0430938D0440938E0450938B
:100900008F04709389046093880484E393E0909348
:1009100095048093940488E793E0909397048093E0
:10092000960485ED90E0909399048093980484ED6B
:1009300090E090939B0480939A0480ED90E09093D4
:100940009D0480939C0481ED90E090939F0480939C
:100950009E0482ED90E09093A1048093A00486ED24
:1009600090E09093A3048093A2041093A404B09306
:10097000A504A093A604F093A704E093A804109202
:10098000AD041092AC042093AE043093AF044093B6
:10099000B0045093B1047093AB046093AA048CEB41
:1009A00093E09093B7048093B60480E094E0909332
:1009B000B9048093B80485E391E09093BB048093DD
:1009C000BA0484E391E09093BD048093BC0480E377
:1009D00091E09093BF048093BE0481E391E09093F3
:1009E000C1048093C00482E391E09093C304809398
:1009F000C20486E391E09093C5048093C4041093ED
:100A0000C604B093C704A093C804F093C904E0934C
:100A1000CA041F91089580E292E09093CD048093E0
:100A2000CC041092CE041092CF041092D0041092F5
:100A3000D10408958F929F92AF92BF92CF92DF928E
:100A4000EF92FF920F931F93CF93DF934C016B01B3
:100A50007C01AA24BB24C0E0D0E0C601F70162817A
:100A60004AE050E00E941D068C01C6016EE20E9421
:100A70008605080F191FA00EB11E21960894E11CCF
:100A8000F11CC330D10549F7C601F40165814AE084
:100A900050E00E941D069501280F391FC901DF9102
:100AA000CF911F910F91FF90EF90DF90CF90BF906B
:100AB000AF909F908F900895CF92DF92EF92FF9228
:100AC0000F931F93CF93DF937C016B018A01C0E0EA
:100AD000D0E00FC0D6016D916D01D701ED91FC9171
:100AE0000190F081E02DC7011995C80FD91F015061
:100AF00010400115110571F7CE01DF91CF911F91C3
:100B00000F91FF90EF90DF90CF900895DC01ED9171
:100B1000FC910190F081E02D19950895CF93DF931A
:100B2000EC016115710519F420E030E00FC0DB0124
:100B30000D900020E9F71197A61BB70BE881F9810A
:100B40000280F381E02DAD0119959C01C901DF916F
:100B5000CF9108954F925F927F928F929F92AF9222
:100B6000BF92CF92DF92EF92FF920F931F93DF938A
:100B7000CF93CDB7DEB7A1970FB6F894DEBF0FBE07
:100B8000CDBF2C01742ECB01223008F42AE019A22B
:100B900031E2C32ED12CCC0EDD1E822E9924AA2444
:100BA000BB24672D752FA50194010E94FE0B7901CE
:100BB0008A01C801B701A50194010E94DF0B472DEE
:100BC000461B0894C108D1084A3014F4405D01C0A6
:100BD000495CF6014083E114F1040105110521F09F
:100BE0007E2C5F2DC801DDCFC201B6010E948E05AB
:100BF000A1960FB6F894DEBF0FBECDBFCF91DF91A7
:100C00001F910F91FF90EF90DF90CF90BF90AF902A
:100C10009F908F907F905F904F900895DC012115F9
:100C2000310541F4ED91FC910190F081E02D642FAC
:100C3000199508950E94AA050895EF92FF920F93C7
:100C40001F939A01E62EFF2400E010E0B801A701EF
:100C50000E940E061F910F91FF90EF9008951F9232
:100C60000F920FB60F920BB60F9211242F933F9352
:100C70004F935F936F937F938F939F93AF93BF93A4
:100C8000EF93FF938091D6049091D704892B29F09C
:100C9000E091D604F091D7041995FF91EF91BF919F
:100CA000AF919F918F917F916F915F914F913F9104
:100CB0002F910F900BBE0F900FBE0F901F901895A5
:100CC0001F920F920FB60F920BB60F9211242F9313
:100CD0003F934F935F936F937F938F939F93AF93C4
:100CE000BF93EF93FF938091D8049091D904892BFF
:100CF00029F0E091D804F091D9041995FF91EF9172
:100D0000BF91AF919F918F917F916F915F914F9123
:100D10003F912F910F900BBE0F900FBE0F901F9021
:100D200018951F920F920FB60F920BB60F921124C7
:100D30002F933F934F935F936F937F938F939F93E3
:100D4000AF93BF93EF93FF938091DA049091DB040C
:100D5000892B29F0E091DA04F091DB041995FF91D9
:100D6000EF91BF91AF919F918F917F916F915F9123
:100D70004F913F912F910F900BBE0F900FBE0F9090
:100D80001F9018951F920F920FB60F920BB60F92ED
:100D900011242F933F934F935F936F937F938F9380
:100DA0009F93AF93BF93EF93FF938091DC04909157
:100DB000DD04892B29F0E091DC04F091DD04199524
:100DC000FF91EF91BF91AF919F918F917F916F9123
:100DD0005F914F913F912F910F900BBE0F900FBEDF
:100DE0000F901F9018951F920F920FB60F920BB68F
:100DF0000F9211242F933F934F935F936F937F93A1
:100E00008F939F93AF93BF93EF93FF938091D204FF
:100E10009091D304892B29F0E091D204F091D3046E
:100E20001995FF91EF91BF91AF919F918F917F9114
:100E30006F915F914F913F912F910F900BBE0F904B
:100E40000FBE0F901F9018951F920F920FB60F9222
:100E50000BB60F9211242F933F934F935F936F9391
:100E60007F938F939F93AF93BF93EF93FF93809163
:100E7000D4049091D504892B29F0E091D404F09109
:100E8000D5041995FF91EF91BF91AF919F918F91EB
:100E90007F916F915F914F913F912F910F900BBE7A
:100EA0000F900FBE0F901F9018951F920F920FB6C4
:100EB0000F920BB60F9211242F933F934F935F9392
:100EC0006F937F938F939F93AF93BF93EF93FF9312
:100ED0008091DE049091DF04892B29F0E091DE04FB
:100EE000F091DF041995FF91EF91BF91AF919F9120
:100EF0008F917F916F915F914F913F912F910F90C3
:100F00000BBE0F900FBE0F901F9018951F920F925F
:100F10000FB60F920BB60F9211242F933F934F935E
:100F20005F936F937F938F939F93AF93BF93EF9351
:100F3000FF938091E0049091E104892B29F0E091E6
:100F4000E004F091E1041995FF91EF91BF91AF9109
:100F50009F918F917F916F915F914F913F912F91D1
:100F60000F900BBE0F900FBE0F901F9018951F9201
:100F70000F920FB60F9211242F933F938F939F934D
:100F8000AF93BF938091E6049091E704A091E804A9
:100F9000B091E9043091EA040196A11DB11D232FFF
:100FA0002D5F2D3720F02D570196A11DB11D2093E7
:100FB000EA048093E6049093E704A093E804B093D6
:100FC000E9048091E2049091E304A091E404B091DB
:100FD000E5040196A11DB11D8093E2049093E30402
:100FE000A093E404B093E504BF91AF919F918F91DA
:100FF0003F912F910F900FBE0F901F9018959FB7A4
:10100000F8942091E2043091E3044091E40450917B
:10101000E50486B5A89B06C08F3F21F02F5F3F4FA8
:101020004F4F5F4F9FBF542F432F322F2227280F40
:10103000311D411D511D82E0220F331F441F551FDA
:101040008A95D1F7B901CA010895789484B5826070
:1010500084BD84B5816084BD85B5826085BD85B55C
:10106000816085BDEEE6F0E0808181608083E1E80B
:10107000F0E0108280818260808380818160808343
:10108000E0E8F0E0808181608083E1EBF0E0808146
:1010900084608083E0EBF0E0808181608083E1E91F
:1010A000F0E0808182608083808181608083E0E9DC
:1010B000F0E0808181608083E1EAF0E080818260FD
:1010C0008083808181608083E0EAF0E080818160BC
:1010D0008083E1E2F1E080818260808380818160B1
:1010E0008083E0E2F1E0808181608083EAE7F0E0E4
:1010F0008081846080838081826080838081816040
:1011000080838081806880831092C10008951F933E
:10111000CF93DF93182FEB0161E00E9467092097BE
:1011200009F4CAC0CF3FD10509F4C9C0E12FF0E0EE
:10113000E254FE4F8491893009F466C08A30B0F4DD
:101140008430F1F1853040F4823059F1833070F50C
:10115000813009F0AEC020C0873009F443C0883028
:1011600008F048C0863009F0A4C034C08D3009F4BE
:1011700078C08E3038F48B3009F45AC08C3008F0C7
:1011800066C04CC0803109F480C0813109F487C049
:101190008F3009F08EC06FC084B5806884BDC7BD34
:1011A00092C084B5806284BDC8BD8DC0809180002E
:1011B000806880938000D0938900C093880083C0AA
:1011C00080918000806280938000D0938B00C093D8
:1011D0008A0079C08091B00080688093B000C0938D
:1011E000B30071C08091B00080628093B000C09362
:1011F000B40069C080919000806880939000D09383
:101200009900C09398005FC08091900080628093A5
:101210009000D0939B00C0939A0055C0809190009D
:10122000886080939000D0939D00C0939C004BC039
:101230008091A00080688093A0008091A0008F7BA7
:101240008093A000D093A900C093A8003CC08091D7
:10125000A00080628093A000D093AB00C093AA004E
:1012600032C08091A00088608093A000D093AD0030
:10127000C093AC0028C08091200180688093200139
:10128000D0932901C09328011EC080912001806263
:1012900080932001D0932B01C0932A0114C0809128
:1012A0002001886080932001D0932D01C0932C01F0
:1012B0000AC0C038D1051CF4812F60E002C0812F24
:1012C00061E00E941A0ADF91CF911F910895CF9398
:1012D000DF93482F50E0CA0188589E4FFC0134919B
:1012E0004E5C5E4FFA018491882369F190E0880F8B
:1012F000991FFC01EC51FF4FA591B491FC01E25004
:10130000FF4FC591D491662351F42FB7F8948C9177
:10131000932F909589238C93888189230BC0623009
:1013200061F42FB7F8948C91932F909589238C9327
:101330008881832B88832FBF06C09FB7F8948C9138
:10134000832B8C939FBFDF91CF910895893009F44F
:1013500049C08A30A0F4843051F1853040F48230A5
:1013600079F1833000F5813009F063C026C0873001
:1013700079F1883098F5863009F05BC025C08D3052
:1013800009F442C08E3028F48B30B1F18C30C0F5B6
:101390002DC0803109F442C0813109F445C08F303D
:1013A00009F047C037C0809180008F7703C08091DB
:1013B00080008F7D80938000089584B58F7702C070
:1013C00084B58F7D84BD08958091B0008F7703C070
:1013D0008091B0008F7D8093B0000895809190003F
:1013E0008F7707C0809190008F7D03C0809190001F
:1013F000877F8093900008958091A0008F7707C029
:101400008091A0008F7D03C08091A000877F809392
:10141000A0000895809120018F7703C08091200162
:101420008F7D80932001089580912001877F809394
:1014300020010895FF920F931F93F62E482F50E03E
:10144000CA0182549E4FFC012491CA0188589E4FC4
:10145000FC0114914E5C5E4FFA0104910023C9F027
:10146000222319F0822F0E94A609E02FF0E0EE0F50
:10147000FF1FE250FF4FA591B4919FB7F894FF2052
:1014800021F48C911095812302C08C91812B8C9337
:101490009FBF1F910F91FF900895AF92BF92CF927F
:1014A000DF92EF92FF920F931F93CF93DF930E94EF
:1014B00025080E948D0AC0912202D0912302AA24FD
:1014C000BB24650115C00E94FF077B018C01DC0174
:1014D000CB018A199B09AC09BD0980549D40A340EA
:1014E000B04030F00E94970A0E948B0A57016801B1
:1014F00088819981892B39F30E948C0A80E090E0E1
:10150000DF91CF911F910F91FF90EF90DF90CF90DF
:10151000BF90AF900895089508951092EC04109232
:10152000EB048091000261E00E9467090895EF9248
:10153000FF920F931F9360910802709109028091AE
:101540000A0290910B022091040230910502409111
:101550000602509107020E947C0B7B018C0120E067
:1015600030E040E853E40E94D30A87FD02C06FEFE9
:1015700010C0C801B70120E030E040E050E00E9418
:10158000780B87FF02C060E004C0C801B7010E9469
:10159000D70A8091000270E00E9487081F910F9186
:1015A000FF90EF9008952FD008F481E008957FD048
:1015B00088F09F5790F0B92F9927B751A0F0D1F03C
:1015C000660F771F881F991F1AF0BA95C9F712C0C6
:1015D000B13081F086D0B1E0089583C0672F782FB5
:1015E0008827B85F39F0B93FCCF386957795679532
:1015F000B395D9F73EF490958095709561957F4F9E
:101600008F4F9F4F0895990F0008550FAA0BE0E8E0
:10161000FEEF16161706E807F907C0F012161306B4
:10162000E407F50798F0621B730B840B950B39F4F4
:101630000A2661F0232B242B252B21F408950A265A
:1016400009F4A140A6958FEF811D811D089597F99A
:101650009F6780E870E060E008959FEF80EC089558
:1016600000240A9416161706180609060895002481
:101670000A9412161306140605060895092E0394FB
:10168000000C11F4882352F0BB0F40F4BF2B11F46F
:1016900060FF04C06F5F7F4F8F4F9F4F089557FDCE
:1016A0009058440F551F59F05F3F71F04795880FD0
:1016B00097FB991F61F09F3F79F087950895121667
:1016C00013061406551FF2CF4695F1DF08C0161613
:1016D00017061806991FF1CF8695710561050894C4
:1016E0000895E894BB2766277727CB0197F90895DB
:1016F0008ADF08F48FEF08950BD0C0CFB1DF28F058
:10170000B6DF18F0952309F0A2CFA7CF1124EACFB6
:10171000C6DFA0F3959FD1F3950F50E0551F629F50
:10172000F001729FBB27F00DB11D639FAA27F00D3A
:10173000B11DAA1F649F6627B00DA11D661F829F61
:101740002227B00DA11D621F739FB00DA11D621F46
:10175000839FA00D611D221F749F3327A00D611D63
:10176000231F849F600D211D822F762F6A2F112445
:101770009F5750408AF0E1F088234AF0EE0FFF1F98
:10178000BB1F661F771F881F91505040A9F79E3FCF
:10179000510570F05CCFA6CF5F3FECF3983EDCF3D1
:1017A000869577956795B795F795E7959F5FC1F70C
:1017B000FE2B880F911D9695879597F90895629F46
:1017C000D001739FF001829FE00DF11D649FE00D39
:1017D000F11D929FF00D839FF00D749FF00D659F9A
:1017E000F00D9927729FB00DE11DF91F639FB00D99
:1017F000E11DF91FBD01CF0111240895A1E21A2EA8
:10180000AA1BBB1BFD010DC0AA1FBB1FEE1FFF1FA4
:10181000A217B307E407F50720F0A21BB30BE40BF4
:10182000F50B661F771F881F991F1A9469F760953B
:101830007095809590959B01AC01BD01CF010895F5
:10184000EE0FFF1F0590F491E02D1994F894FFCF4F
:10185000050000000000803F000000430000000081
:1018600095035C052B035C033C038503000000002B
:041870001A05EB0466
:00000001FF
