:100000000C9404010C942F060C9460060C94910639
:100010000C94C2060C94F3060C9424070C94550718
:100020000C9486070C9431010C9431010C9431012D
:100030000C9431010C9431010C9431010C94310178
:100040000C9431010C9431010C9431010C94310168
:100050000C9431010C9431010C9431010C94B707CC
:100060000C9431010C9433010C942F020C94310147
:100070000C9431010C9431010C9431010C94310138
:100080000C9431010C9431010C9431010C94310128
:100090000C9472010C946E020C9431010C94310199
:1000A0000C9431010C9431010C9431010C94310108
:1000B0000C9431010C9431010C9431010C943101F8
:1000C0000C9431010C9431010C9431010C94B10168
:1000D0000C94AD020C9431010C94F0010C94EC02E0
:1000E0000C94310100002100240027002A002D007B
:1000F0003000330001010000040107010A01000083
:100100002200250028002B002E00310034000201BF
:100110000000050108010B0100002000230026005B
:1001200029002C002F00320000010000030106010D
:10013000090105050505070508080808020202026D
:100140000A0A080804040404010101010101010173
:100150000303030303030303040707070C0C0C0C3E
:100160000C0C0C0C02020202060606060606060627
:100170000B0B0B0B0B0B0B0B0102102020080810B4
:100180002040102040800201020108040201010207
:1001900004081020408080402010080402018004E0
:1001A000020180402010080402010804020101023B
:1001B0000408102040800102040810204080000044
:1001C000090A02080B0C0D070603040100000000D9
:1001D000000000000000000000000000000000001F
:1001E0000000000000000000000011100F000000DF
:1001F00000000000000000000000000000000000FF
:1002000000000000D5030B0511241FBECFEFD1E283
:10021000DEBFCDBF00E00CBF12E0A0E0B2E0E2E73D
:10022000F5E200E00BBF02C007900D92AC38B107B9
:10023000D9F71BBE15E0ACE8B2E001C01D92A737AC
:10024000B107E1F712E0C8E0D2E004C02297FE0156
:100250000E94B312C430D107C9F70E9439100C9420
:10026000B7120C9400001F920F920FB60F920BB6AC
:100270000F9211242F933F934F938F939F93EF935C
:10028000FF938091C00082FD1DC04091C600209167
:10029000CC023091CD022F5F3F4F2F733070809191
:1002A000CE029091CF022817390771F0E091CC026D
:1002B000F091CD02E457FD4F40833093CD0220935F
:1002C000CC0202C08091C600FF91EF919F918F9167
:1002D0004F913F912F910F900BBE0F900FBE0F903B
:1002E0001F9018951F920F920FB60F920BB60F9298
:1002F00011242F933F934F938F939F93EF93FF93EB
:100300008091C80082FD1DC04091CE002091540311
:10031000309155032F5F3F4F2F73307080915603FC
:10032000909157032817390771F0E0915403F09129
:100330005503EC5EFC4F40833093550320935403E8
:1003400002C08091CE00FF91EF919F918F914F91CC
:100350003F912F910F900BBE0F900FBE0F901F90EB
:1003600018951F920F920FB60F920BB60F92112491
:100370002F933F934F938F939F93EF93FF9380918E
:10038000D00082FD1DC04091D6002091DC03309149
:10039000DD032F5F3F4F2F7330708091DE0390910C
:1003A000DF032817390771F0E091DC03F091DD03DA
:1003B000E456FC4F40833093DD032093DC0302C0FE
:1003C0008091D600FF91EF919F918F914F913F9136
:1003D0002F910F900BBE0F900FBE0F901F9018958E
:1003E0001F920F920FB60F920BB60F9211242F93FC
:1003F0003F934F938F939F93EF93FF93809130019F
:1004000082FD1DC040913601209164043091650445
:100410002F5F3F4F2F733070809166049091670477
:100420002817390771F0E0916404F0916504EC5DE0
:10043000FB4F4083309365042093640402C0809195
:100440003601FF91EF919F918F914F913F912F91A5
:100450000F900BBE0F900FBE0F901F9018951F921C
:100460000F920FB60F920BB60F9211242F933F935A
:100470008F939F93EF93FF9320911003309111037B
:1004800080911203909113032817390731F480915A
:10049000C1008F7D8093C10014C0E0911203F091E0
:1004A0001303E053FD4F20818091120390911303B9
:1004B00001968F739070909313038093120320938F
:1004C000C600FF91EF919F918F913F912F910F90D7
:1004D0000BBE0F900FBE0F901F9018951F920F929A
:1004E0000FB60F920BB60F9211242F933F938F9359
:1004F0009F93EF93FF9320919803309199038091FC
:100500009A0390919B032817390731F48091C90011
:100510008F7D8093C90014C0E0919A03F0919B03F2
:10052000E85AFC4F208180919A0390919B03019699
:100530008F73907090939B0380939A032093CE00C7
:10054000FF91EF919F918F913F912F910F900BBE53
:100550000F900FBE0F901F9018951F920F920FB61D
:100560000F920BB60F9211242F933F938F939F936B
:10057000EF93FF9320912004309121048091220475
:10058000909123042817390731F48091D1008F7D91
:100590008093D10014C0E0912204F0912304E05232
:1005A000FC4F2081809122049091230401968F7347
:1005B000907090932304809322042093D600FF919F
:1005C000EF919F918F913F912F910F900BBE0F90C4
:1005D0000FBE0F901F9018951F920F920FB60F929B
:1005E0000BB60F9211242F933F938F939F93EF930A
:1005F000FF932091A8043091A9048091AA049091BE
:10060000AB042817390731F4809131018F7D809335
:10061000310114C0E091AA04F091AB04E859FB4FFA
:1006200020818091AA049091AB0401968F73907001
:100630009093AB048093AA0420933601FF91EF912D
:100640009F918F913F912F910F900BBE0F900FBEF6
:100650000F901F901895DC011C96ED91FC911D9751
:10066000E05CFF4F2191319180819181281B390BF2
:100670002F733070C9010895DC011C96ED91FC9137
:100680001D97E05CFF4F20813181E054F040DF0195
:10069000AE5BBF4F8D919C9111972817390719F4C4
:1006A0002FEF3FEF07C08D919C91E80FF91F8081DC
:1006B000282F30E0C9010895DC011C96ED91FC91D2
:1006C0001D97E05CFF4F20813181E054F040DF0155
:1006D000AE5BBF4F8D919C9111972817390719F484
:1006E0002FEF3FEF10C08D919C911197E80FF91FEC
:1006F00020818D919C91119701968F739070119626
:100700009C938E9330E0C9010895DC0191968C9101
:100710009197882339F05496ED91FC9155978081FB
:1007200086FFF9CF91961C920895CF93DF93EC0149
:10073000EE85FF85E05CFF4F20813181E054F04081
:100740002F5F3F4F2F733070DF01AE5BBF4F8D9136
:100750009C91119728173907D1F3E05CFF4F8081F6
:100760009181E054F040E80FF91F6083EE85FF852A
:10077000E05CFF4F31832083EE89FF89208181E097
:1007800090E00F8C02C0880F991F0A94E2F7282B83
:10079000208381E089A3EC89FD8980818064808346
:1007A00081E090E0DF91CF9108951F931092AF0404
:1007B0001092AE0428EE33E040E050E02093B00405
:1007C0003093B1044093B2045093B30461E772E0F4
:1007D0007093AD046093AC048CE892E09093B904FC
:1007E0008093B80480ED92E09093BB048093BA04A8
:1007F00085EC90E09093BD048093BC0484EC90E081
:100800009093BF048093BE0480EC90E09093C10469
:100810008093C00481EC90E09093C3048093C20461
:1008200082EC90E09093C5048093C40486EC90E041
:100830009093C7048093C60414E01093C804B3E0F7
:10084000B093C904A7E0A093CA04F5E0F093CB04E9
:10085000E1E0E093CC041092D1041092D0042093F4
:10086000D2043093D3044093D4045093D5047093AE
:10087000CF046093CE0484E193E09093DB048093F3
:10088000DA0488E593E09093DD048093DC048DEC3A
:1008900090E09093DF048093DE048CEC90E09093E2
:1008A000E1048093E00488EC90E09093E30480936B
:1008B000E20489EC90E09093E5048093E4048AECF0
:1008C00090E09093E7048093E6048EEC90E09093A0
:1008D000E9048093E8041093EA04B093EB04A09336
:1008E000EC04F093ED04E093EE041092F304109204
:1008F000F2042093F4043093F5044093F6045093EB
:10090000F7047093F1046093F0048CE993E0909302
:10091000FD048093FC0480EE93E09093FF048093A9
:10092000FE0485ED90E0909301058093000584ED31
:1009300090E0909303058093020580ED90E0909302
:1009400005058093040581ED90E090930705809361
:10095000060582ED90E0909309058093080586EDE9
:1009600090E090930B0580930A0510930C05B093CB
:100970000D05A0930E05F0930F05E093100510925E
:100980001505109214052093160530931705409312
:10099000180550931905709313056093120584E2AE
:1009A00094E090931F0580931E0588E694E0909351
:1009B00021058093200585E391E0909323058093A2
:1009C000220584E391E0909325058093240580E33C
:1009D00091E0909327058093260581E391E0909321
:1009E00029058093280582E391E090932B0580935D
:1009F0002A0586E391E090932D0580932C051093B2
:100A00002E05B0932F05A0933005F0933105E093A8
:100A100032051F91089581E892E090933505809307
:100A20003405109236051092370510923805109251
:100A3000390508958F929F92AF92BF92CF92DF9225
:100A4000EF92FF920F931F93CF93DF934C016B01B3
:100A50007C01AA24BB24C0E0D0E0C601F70162817A
:100A60004AE050E00E941D068C01C6016EE20E9421
:100A70008605080F191FA00EB11E21960894E11CCF
:100A8000F11CC330D10549F7C601F40165814AE084
:100A900050E00E941D069501280F391FC901DF9102
:100AA000CF911F910F91FF90EF90DF90CF90BF906B
:100AB000AF909F908F900895CF92DF92EF92FF9228
:100AC0000F931F93CF93DF937C016B018A01C0E0EA
:100AD000D0E00FC0D6016D916D01D701ED91FC9171
:100AE0000190F081E02DC7011995C80FD91F015061
:100AF00010400115110571F7CE01DF91CF911F91C3
:100B00000F91FF90EF90DF90CF900895DC01ED9171
:100B1000FC910190F081E02D19950895CF93DF931A
:100B2000EC016115710519F420E030E00FC0DB0124
:100B30000D900020E9F71197A61BB70BE881F9810A
:100B40000280F381E02DAD0119959C01C901DF916F
:100B5000CF9108954F925F927F928F929F92AF9222
:100B6000BF92CF92DF92EF92FF920F931F93DF938A
:100B7000CF93CDB7DEB7A1970FB6F894DEBF0FBE07
:100B8000CDBF2C01742ECB01223008F42AE019A22B
:100B900031E2C32ED12CCC0EDD1E822E9924AA2444
:100BA000BB24672D752FA50194010E948F12790136
:100BB0008A01C801B701A50194010E947012472D56
:100BC000461B0894C108D1084A3014F4405D01C0A6
:100BD000495CF6014083E114F1040105110521F09F
:100BE0007E2C5F2DC801DDCFC201B6010E948E05AB
:100BF000A1960FB6F894DEBF0FBECDBFCF91DF91A7
:100C00001F910F91FF90EF90DF90CF90BF90AF902A
:100C10009F908F907F905F904F900895DC012115F9
:100C2000310541F4ED91FC910190F081E02D642FAC
:100C3000199508950E94AA050895EF92FF920F93C7
:100C40001F939A01E62EFF2400E010E0B801A701EF
:100C50000E940E061F910F91FF90EF9008951F9232
:100C60000F920FB60F920BB60F9211242F933F9352
:100C70004F935F936F937F938F939F93AF93BF93A4
:100C8000EF93FF9380913E0590913F05892B29F0CA
:100C9000E0913E05F0913F051995FF91EF91BF91CD
:100CA000AF919F918F917F916F915F914F913F9104
:100CB0002F910F900BBE0F900FBE0F901F901895A5
:100CC0001F920F920FB60F920BB60F9211242F9313
:100CD0003F934F935F936F937F938F939F93AF93C4
:100CE000BF93EF93FF938091400590914105892B2D
:100CF00029F0E0914005F09141051995FF91EF91A0
:100D0000BF91AF919F918F917F916F915F914F9123
:100D10003F912F910F900BBE0F900FBE0F901F9021
:100D200018951F920F920FB60F920BB60F921124C7
:100D30002F933F934F935F936F937F938F939F93E3
:100D4000AF93BF93EF93FF9380914205909143053A
:100D5000892B29F0E0914205F09143051995FF9107
:100D6000EF91BF91AF919F918F917F916F915F9123
:100D70004F913F912F910F900BBE0F900FBE0F9090
:100D80001F9018951F920F920FB60F920BB60F92ED
:100D900011242F933F934F935F936F937F938F9380
:100DA0009F93AF93BF93EF93FF93809144059091EE
:100DB0004505892B29F0E0914405F09145051995E9
:100DC000FF91EF91BF91AF919F918F917F916F9123
:100DD0005F914F913F912F910F900BBE0F900FBEDF
:100DE0000F901F9018951F920F920FB60F920BB68F
:100DF0000F9211242F933F934F935F936F937F93A1
:100E00008F939F93AF93BF93EF93FF9380913A0596
:100E100090913B05892B29F0E0913A05F0913B0533
:100E20001995FF91EF91BF91AF919F918F917F9114
:100E30006F915F914F913F912F910F900BBE0F904B
:100E40000FBE0F901F9018951F920F920FB60F9222
:100E50000BB60F9211242F933F934F935F936F9391
:100E60007F938F939F93AF93BF93EF93FF93809163
:100E70003C0590913D05892B29F0E0913C05F091CE
:100E80003D051995FF91EF91BF91AF919F918F9182
:100E90007F916F915F914F913F912F910F900BBE7A
:100EA0000F900FBE0F901F9018951F920F920FB6C4
:100EB0000F920BB60F9211242F933F934F935F9392
:100EC0006F937F938F939F93AF93BF93EF93FF9312
:100ED0008091460590914705892B29F0E0914605C0
:100EE000F09147051995FF91EF91BF91AF919F91B7
:100EF0008F917F916F915F914F913F912F910F90C3
:100F00000BBE0F900FBE0F901F9018951F920F925F
:100F10000FB60F920BB60F9211242F933F934F935E
:100F20005F936F937F938F939F93AF93BF93EF9351
:100F3000FF938091480590914905892B29F0E09114
:100F40004805F09149051995FF91EF91BF91AF9137
:100F50009F918F917F916F915F914F913F912F91D1
:100F60000F900BBE0F900FBE0F901F9018951F9201
:100F70000F920FB60F9211242F933F938F939F934D
:100F8000AF93BF9380914E0590914F05A09150056E
:100F9000B0915105309152050196A11DB11D232F2D
:100FA0002D5F2D3720F02D570196A11DB11D2093E7
:100FB000520580934E0590934F05A0935005B09332
:100FC000510580914A0590914B05A0914C05B09137
:100FD0004D050196A11DB11D80934A0590934B05C7
:100FE000A0934C05B0934D05BF91AF919F918F9108
:100FF0003F912F910F900FBE0F901F9018959FB7A4
:10100000F89420914A0530914B0540914C05509140
:101010004D0586B5A89B06C08F3F21F02F5F3F4F3F
:101020004F4F5F4F9FBF542F432F322F2227280F40
:10103000311D411D511D82E0220F331F441F551FDA
:101040008A95D1F7B901CA010895789484B5826070
:1010500084BD84B5816084BD85B5826085BD85B55C
:10106000816085BDEEE6F0E0808181608083E1E80B
:10107000F0E0108280818260808380818160808343
:10108000E0E8F0E0808181608083E1EBF0E0808146
:1010900084608083E0EBF0E0808181608083E1E91F
:1010A000F0E0808182608083808181608083E0E9DC
:1010B000F0E0808181608083E1EAF0E080818260FD
:1010C0008083808181608083E0EAF0E080818160BC
:1010D0008083E1E2F1E080818260808380818160B1
:1010E0008083E0E2F1E0808181608083EAE7F0E0E4
:1010F0008081846080838081826080838081816040
:1011000080838081806880831092C1000895382F89
:10111000863308F0365320917B00832F8695869581
:10112000869590E08170907043E0880F991F4A95F2
:10113000E1F7277F282B20937B00377080910002F6
:101140008295880F880F807C832B80937C00809110
:101150007A00806480937A0080917A0086FDFCCFCB
:101160002091780040917900942F80E030E0282B86
:10117000392BC90108951F93CF93DF93182FEB01EB
:1011800061E00E949B09209709F4CAC0CF3FD105B6
:1011900009F4C9C0E12FF0E0E254FE4F8491893098
:1011A00009F466C08A30B0F48430F1F1853040F43F
:1011B000823059F1833070F5813009F0AEC020C023
:1011C000873009F443C0883008F048C0863009F001
:1011D000A4C034C08D3009F478C08E3038F48B3020
:1011E00009F45AC08C3008F066C04CC0803109F454
:1011F00080C0813109F487C08F3009F08EC06FC084
:1012000084B5806884BDC7BD92C084B5806284BD4A
:10121000C8BD8DC080918000806880938000D0938D
:101220008900C093880083C0809180008062809391
:101230008000D0938B00C0938A0079C08091B00069
:1012400080688093B000C093B30071C08091B000FB
:1012500080628093B000C093B40069C08091900018
:10126000806880939000D0939900C09398005FC0ED
:1012700080919000806280939000D0939B00C093F7
:101280009A0055C080919000886080939000D09320
:101290009D00C0939C004BC08091A000806880930B
:1012A000A0008091A0008F7B8093A000D093A90024
:1012B000C093A8003CC08091A00080628093A000F1
:1012C000D093AB00C093AA0032C08091A000886088
:1012D0008093A000D093AD00C093AC0028C0809153
:1012E0002001806880932001D0932901C0932801B8
:1012F0001EC080912001806280932001D0932B0139
:10130000C0932A0114C0809120018860809320013D
:10131000D0932D01C0932C010AC0C038D1051CF414
:10132000812F60E002C0812F61E00E944E0ADF91B0
:10133000CF911F910895CF93DF93482F50E0CA01BA
:1013400088589E4FFC0134914E5C5E4FFA018491A7
:10135000882369F190E0880F991FFC01EC51FF4F41
:10136000A591B491FC01E250FF4FC591D491662341
:1013700051F42FB7F8948C91932F909589238C93E7
:10138000888189230BC0623061F42FB7F8948C9167
:10139000932F909589238C938881832B88832FBFEB
:1013A00006C09FB7F8948C91832B8C939FBFDF91DD
:1013B000CF910895893009F449C08A30A0F484306F
:1013C00051F1853040F4823079F1833000F581307D
:1013D00009F063C026C0873079F1883098F58630EF
:1013E00009F05BC025C08D3009F442C08E3028F46E
:1013F0008B30B1F18C30C0F52DC0803109F442C082
:10140000813109F445C08F3009F047C037C0809161
:1014100080008F7703C0809180008F7D8093800053
:10142000089584B58F7702C084B58F7D84BD0895FB
:101430008091B0008F7703C08091B0008F7D809342
:10144000B0000895809190008F7707C08091900040
:101450008F7D03C080919000877F809390000895D6
:101460008091A0008F7707C08091A0008F7D03C07E
:101470008091A000877F8093A00008958091200133
:101480008F7703C0809120018F7D80932001089584
:1014900080912001877F809320010895FF920F9310
:1014A0001F93F62E482F50E0CA0182549E4FFC0134
:1014B0002491CA0188589E4FFC0114914E5C5E4FE6
:1014C000FA0104910023C9F0222319F0822F0E940F
:1014D000DA09E02FF0E0EE0FFF1FE250FF4FA59179
:1014E000B4919FB7F894FF2021F48C91109581233B
:1014F00002C08C91812B8C939FBF1F910F91FF9005
:101500000895862F60E00E949B0908952F923F92D4
:101510004F925F926F927F928F929F92AF92BF9203
:10152000CF92DF92EF92FF920F931F93DF93CF93AF
:10153000CDB7DEB7EE970FB6F894DEBF0FBECDBFC6
:101540009AAB89AB7CAB6BAB4BAF5CAF3EAB2DAB1F
:1015500018AF0FABFAAEE9AEF80180E090E005C03D
:1015600011921192119211920196A9ACBAAC8A15FE
:101570009B05B4F318AA1FA61E8A1D8A69C1E9A992
:10158000FAA9CD88DE88EC0DFD1D80819181A281B4
:10159000B3817D0100271127EFA2F8A609A71AA79A
:1015A0008C019D01207030700BA31CA32DA33EA3C2
:1015B00029AD3AAD4FA558A9241B350B3CA72BA745
:1015C0008DA99EA98217930714F49CA78BA7AFA996
:1015D000B8ADED89FE89AE0FBF1FBA8FA98F8BAD55
:1015E0009CAD9C01388F2F8BAFA4B8A8BEAEADAE1A
:1015F0001EA61DA666247724430102C1A98DBA8DBB
:10160000ED90FD900D911C91EF89F88D8081918175
:10161000A281B3815D01CC24DD24AF8EB8A2C9A222
:10162000DAA2FFEFAF2EFFEFBF2EC12CD12CA822E4
:10163000B922CA22DB22C601B5012FA138A549A5CE
:101640005AA50E9470126B8F7C8F8D8F9E8F6F8D2D
:1016500078A189A19AA12BA13CA14DA15EA10E94D4
:1016600070121B012C01E60CF71C081D191D1982B4
:101670001A821B821C82E614F7040805190540F43F
:1016800021E030E040E050E029833A834B835C83E3
:10169000C601B5012BA13CA14DA15EA10E94701213
:1016A0005B016C01E60EF71E081F191F8B8D9C8DC8
:1016B000AD8DBE8DDC0199278827898B9A8BAB8BEA
:1016C000BC8B8E0D9F1DA01FB11F8D879E87AF877E
:1016D000B88BA1013327222729873A874B875C875C
:1016E000820F931FA41FB51F8D839E83AF83B8877E
:1016F000E98DFA8D80839183A283B3832B8D3C8DFA
:101700004D8D5E8D3A0188249924C201AA27BB27FA
:10171000680E791E8A1E9B1E6F8D78A189A19AA1E1
:101720002FA138A549A55AA50E947012660E771EF2
:10173000881E991E89819A81AB81BC81680E791EB1
:101740008A1E9B1E80E090E0A0E0B0E0EA14FB045B
:101750000C051D0520F481E090E0A0E0B0E0BC01A4
:10176000CD01660D771D881D991D20E030E040E019
:1017700050E0AD84BE84CF84D888E988FA880B898C
:101780001C89AE14BF04C006D10620F421E030E06D
:1017900040E050E0620F731F841F951F20E030E08F
:1017A00040E050E0AD80BE80CF80D884E984FA84E8
:1017B0000B851C85AE14BF04C006D10620F421E0C1
:1017C00030E040E050E03B014C01620E731E841E8D
:1017D000951E0DAD1EAD0F5F1F4F1EAF0DAF2DA59A
:1017E0003EA52F5F3F4F3EA72DA7498D5A8D4C5FD9
:1017F0005F4F5A8F498F8F89988D0496988F8F8B62
:10180000ADA5BEA5EBA5FCA5AE17BF070CF4F6CEA3
:10181000ADACBEACC9ACDAACAC14BD0474F4AA0C6B
:10182000BB1CAA0CBB1CEFA8F8ACAE0CBF1CD501AE
:101830006D927D928D929C921397EFA5F8A93196A7
:10184000F8ABEFA70D891E890C5F1F4F1E8B0D8B08
:101850002FA538A94BA95CA9241735070CF48FCE06
:10186000EE960FB6F894DEBF0FBECDBFCF91DF91DD
:101870001F910F91FF90EF90DF90CF90BF90AF90AE
:101880009F908F907F906F905F904F903F902F90A0
:1018900008958091530590915405A0915505B091FC
:1018A00056058093630590936405A0936505B093F6
:1018B000660580915F0590916005A0916105B091EA
:1018C00062058093670590936805A0936905B093BE
:1018D0006A058091570590915805A0915905B091DE
:1018E0005A0580936B0590936C05A0936D05B0939A
:1018F0006E058091730590917405A0917505B09166
:1019000076050196A11DB11D809373059093740512
:10191000A0937505B09376050895089586E0E1E7F4
:10192000F5E0DF011D928A95E9F780E1E3E5F5E056
:10193000DF011D928A95E9F78EE0E3E6F5E0DF012D
:101940001D928A95E9F760915D0270915E02809127
:101950005F02909160020E94810A8091010261E021
:101960000E949B098091050261E00E949B096091A1
:1019700061027091620280916302909164020E9400
:10198000810A8091090261E00E949B0980910D0209
:1019900061E00E949B0980912D0290912E02A091FE
:1019A0002F02B09130028093630590936405A09359
:1019B0006505B09366058091310290913202A09145
:1019C0003302B09134028093670590936805A09329
:1019D0006905B0936A058091390290913A02A0910D
:1019E0003B02B0913C0280936B0590936C05A093F1
:1019F0006D05B0936E0510926F05109270050895F5
:101A00008F929F92AF92BF92CF92DF92EF92FF920E
:101A10000F931F93CF93DF934B015C016A010F2E4D
:101A2000F0E0EF2EF0E0FF2EF0E00F2FF0E01F2FA0
:101A3000F02DC0E0D0E018C0F50161917191819165
:101A400091915F010E941111A6010E94C9119B0191
:101A5000AC01C801B7010E9478107B018C0180E2C3
:101A600090E0C80ED91E2196C815D9052CF3B701F0
:101A7000C801DF91CF911F910F91FF90EF90DF9000
:101A8000CF90BF90AF909F908F9008952F923F92EC
:101A90004F925F926F927F928F929F92AF92BF927E
:101AA000CF92DF92EF92FF920F931F93DF93CF932A
:101AB000CDB7DEB72C970FB6F894DEBF0FBECDBF03
:101AC000609173057091740580917505909176050C
:101AD0000E9411112AE037ED43E25CE30E94FD1100
:101AE0002091210230912202409123025091240240
:101AF0000E94DC1088234CF4E0902502F09026022E
:101B0000009127021091280208C0E0902902F0906D
:101B10002A0200912B0210912C02609163057091B2
:101B20006405809165059091660520916705309167
:101B300068054091690550916A050E9477109F776A
:101B4000209135023091360240913702509138028F
:101B50000E94DC1087FD05C020E030E040E050E04E
:101B600004C020E030E040E85FE380916F05882307
:101B700021F481E080936F054CC0C801B7010E9439
:101B8000FD117B018C0180917005813019F082304C
:101B9000B1F50BC0C801B70120E030E040E85FE3D9
:101BA0000E94DC10882371F034C0C801B70120E026
:101BB00030E040E85FE30E94DC10882391F481E08C
:101BC0008093700560916B0570916C0580916D0537
:101BD00090916E0520E030E040E85FE30E947810CD
:101BE0003AC0C801B70120E030E040E85FEB0E9456
:101BF000DC108823C1F583E0809370051EC0C80106
:101C0000B70120E030E040E85FEB0E94DC10882361
:101C1000A1F082E08093700580916B0590916C0536
:101C2000A0916D05B0916E0580935B0590935C0566
:101C3000A0935D05B0935E0516C060916B05709131
:101C40006C0580916D0590916E0520E030E040E8D4
:101C50005FE30E94771060935B0570935C0580934F
:101C60005D0590935E05E0905B05F0905C0500914A
:101C70005D0510915E05E0925705F09258050093BE
:101C8000590510935A05C801B70120E030E040EC37
:101C900050E40E94C311181664F480E090E0A0E8BC
:101CA000BFE38093570590935805A0935905B093CF
:101CB0005A05C801B70120E030E040E85FE30E9428
:101CC000DC10882364F480E090E0A0ECB0E4809322
:101CD000570590935805A0935905B0935A05E09085
:101CE0005705F09058050091590510915A05C80103
:101CF000B70120E030E040E85FE30E94DC10882379
:101D00005CF40F2EF0E0EF2EF0E0FF2EF0E80F2F46
:101D1000FFE31F2FF02D14C0C801B70120E030E011
:101D200040EC50E40E94C311181654F40F2EF0E05A
:101D3000EF2EF0E0FF2EF0EC0F2FF0E41F2FF02D30
:101D4000C801B7010E94E010DC01CB018C579D4F08
:101D5000FC016081772767FD7095872F972F0E9480
:101D6000131160935F0570936005809361059093F4
:101D7000620520913D0230913E0240913F02509118
:101D800040020E94FD111B012C0180915D020E9406
:101D90008708A0E0B0E02091690230916A0240E03B
:101DA00050E0BC01CD010E9470120E94111120E090
:101DB00030E040E058EB0E94FD119B01AC01C201F4
:101DC000B1010E9478102091450230914602409165
:101DD0004702509148020E94FD115B016C01209165
:101DE000490230914A0240914B0250914C020E94AC
:101DF000C31188234CF0E0901502F0901602009178
:101E000017021091180208C0E0901102F09012021F
:101E10000091130210911402C601B501A8019701A7
:101E20000E94FD113B014C01E89497F8C401B301F5
:101E300020E030E040E853E40E94DC1087FD02C05F
:101E40006FEF04C0C401B3010E94E510809101024C
:101E500070E00E94BB08C801B70120914D0230918B
:101E60004E0240914F02509150020E9477109B0108
:101E7000AC01C601B5010E94FD117B018C01E89403
:101E800017F9C801B70120E030E040E853E40E94B0
:101E9000DC1087FD02C06FEF04C0C801B7010E94CB
:101EA000E5108091050270E00E94BB08C401B301F7
:101EB000A80197010E947810609353057093540510
:101EC00080935505909356056091410270914202AE
:101ED0008091430290914402A20191010E947710E7
:101EE0004B015C01809161020E948708A0E0B0E094
:101EF00020916B0230916C0240E050E0BC01CD01BA
:101F00000E94701269837A838B839C83F5E0CF2EC5
:101F1000D12CCC0EDD1E85E692E061E070E0AE01D2
:101F20004F5F5F4F21E030E08601E2E0EE2EF12CC2
:101F30000E94860AC60162E070E040E050E00E9424
:101F4000000D20E030E040E853EA0E94FD119B01C3
:101F5000AC01C501B4010E9478102091510230916A
:101F6000520240915302509154020E94FD113B01D4
:101F70004C012091550230915602409157025091E8
:101F800058020E94C31188234CF0A0901D02B0900B
:101F90001E02C0901F02D090200208C0A09019021B
:101FA000B0901A02C0901B02D0901C02C401B30171
:101FB000A60195010E94FD117B018C01E89417F99F
:101FC000C801B70120E030E040E853E40E94DC1093
:101FD00087FD02C06FEF04C0C801B7010E94E51081
:101FE0008091090270E00E94BB08C601B5012091F2
:101FF000590230915A0240915B0250915C020E945A
:1020000077109B01AC01C401B3010E94FD117B015B
:102010008C01E89417F9C801B70120E030E040E8EE
:1020200053E40E94DC1087FD02C06FEF04C0C801BA
:10203000B7010E94E51080910D0270E00E94BB087C
:102040002C960FB6F894DEBF0FBECDBFCF91DF91B7
:102050001F910F91FF90EF90DF90CF90BF90AF90C6
:102060009F908F907F906F905F904F903F902F90B8
:102070000895AF92BF92CF92DF92EF92FF920F93AB
:102080001F93CF93DF930E9425080E948E0CC0916E
:102090008302D0918402AA24BB24650115C00E944A
:1020A000FF077B018C01DC01CB018A199B09AC097C
:1020B000BD0980519742A040B04030F00E94460DCB
:1020C0000E94490C5701680188819981892B39F355
:1020D0000E948D0C80E090E0DF91CF911F910F91D5
:1020E000FF90EF90DF90CF90BF90AF900895505841
:1020F000BB27AA270ED00DC1FED030F003D120F0AF
:1021000031F49F3F11F41EF4F3C00EF4E095E7FBA9
:10211000E9C0E92F0FD180F3BA176207730784076C
:10212000950718F071F49EF527C10EF4E0950B2E7B
:10213000BA2FA02D0B01B90190010C01CA01A00119
:102140001124FF27591B99F0593F50F4503E68F174
:102150001A16F040A22F232F342F4427585FF3CFB5
:10216000469537952795A795F0405395C9F77EF486
:102170001F16BA0B620B730B840BBAF09150A1F0CF
:10218000FF0FBB1F661F771F881FC2F70EC0BA0F55
:10219000621F731F841F48F4879577956795B795DD
:1021A000F7959E3F08F0B3CF9395880F08F09927D5
:1021B000EE0F97958795089571D008F481E0089502
:1021C00004D06894B111D9C00895BCD088F09F574D
:1021D00090F0B92F9927B751A0F0D1F0660F771F73
:1021E000881F991F1AF0BA95C9F712C0B13081F053
:1021F000C3D0B1E00895C0C0672F782F8827B85F9B
:1022000039F0B93FCCF3869577956795B395D9F7B3
:102210003EF490958095709561957F4F8F4F9F4FBD
:102220000895E89409C097FB3EF4909580957095C9
:1022300061957F4F8F4F9F4F9923A9F0F92F96E912
:10224000BB279395F695879577956795B795F11187
:10225000F8CFFAF4BB0F11F460FF1BC06F5F7F4F24
:102260008F4F9F4F16C0882311F096E911C0772336
:1022700021F09EE8872F762F05C0662371F096E83F
:10228000862F70E060E02AF09A95660F771F881F0E
:10229000DAF7880F9695879597F90895990F0008B2
:1022A000550FAA0BE0E8FEEF16161706E807F90728
:1022B000C0F012161306E407F50798F0621B730BC3
:1022C000840B950B39F40A2661F0232B242B252B44
:1022D00021F408950A2609F4A140A6958FEF811DE7
:1022E000811D089597F99F6780E870E060E0089588
:1022F0009FEF80EC089500240A941616170618061E
:102300000906089500240A941216130614060506F9
:102310000895092E0394000C11F4882352F0BB0F8A
:1023200040F4BF2B11F460FF04C06F5F7F4F8F4FED
:102330009F4F089557FD9058440F551F59F05F3F28
:1023400071F04795880F97FB991F61F09F3F79F0D7
:1023500087950895121613061406551FF2CF469559
:10236000F1DF08C0161617061806991FF1CF8695DB
:102370007105610508940895E894BB2766277727BF
:10238000CB0197F908958ADF08F48FEF0895AACF5B
:1023900097C0D8DFE8F39923D9F3940F511DBBF30D
:1023A0009150504094F059F0882332F0660F771F17
:1023B000881F91505040C1F79E3F510544F7880F48
:1023C000911D9695879597F908955F3FACF0983EDB
:1023D0009CF0BB27869577956795B79508F4B16013
:1023E0009395C1F7BB0F58F711F460FFE8CF6F5F0B
:1023F0007F4F8F4F9F4FE3CFC0CF0BD08ACF7BDF74
:1024000028F080DF18F0952309F06CCF71CF1124EC
:10241000B4CF90DFA0F3959FD1F3950F50E0551FF7
:10242000629FF001729FBB27F00DB11D639FAA2729
:10243000F00DB11DAA1F649F6627B00DA11D661F78
:10244000829F2227B00DA11D621F739FB00DA11D99
:10245000621F839FA00D611D221F749F3327A00D53
:10246000611D231F849F600D211D822F762F6A2FEF
:1024700011249F5750408AF0E1F088234AF0EE0F74
:10248000FF1FBB1F661F771F881F91505040A9F781
:102490009E3F510570F026CF70CF5F3FECF3983E22
:1024A000DCF3869577956795B795F795E7959F5FE8
:1024B000C1F7FE2B880F911D9695879597F9089582
:1024C0009F3F49F0915028F4869577956795B79589
:1024D0009F5F80389F4F880F9695879597F908954D
:1024E000629FD001739FF001829FE00DF11D649FF8
:1024F000E00DF11D929FF00D839FF00D749FF00D84
:10250000659FF00D9927729FB00DE11DF91F639F24
:10251000B00DE11DF91FBD01CF0111240895A1E205
:102520001A2EAA1BBB1BFD010DC0AA1FBB1FEE1F4D
:10253000FF1FA217B307E407F50720F0A21BB30B98
:10254000E40BF50B661F771F881F991F1A9469F714
:1025500060957095809590959B01AC01BD01CF0170
:102560000895EE0FFF1F0590F491E02D1994F89453
:02257000FFCF9B
:102572000103000000050000000700000009000040
:1025820000000000000000803F000000000000800A
:102592003F00000000000000000000803F0000003B
:1025A20000000000000000FA4300000000CDCC4C07
:1025B2003E0000803F00803B45000000000000809C
:1025C2003F00803B45000000000000803F04000007
:1025D2000002000000020820805585558500000099
:1025E2000095035C052B035C033C0385030000009C
:0C25F200001A0571050102030403020039
:00000001FF
